{
  "_format": "hh-sol-artifact-1",
  "contractName": "AetherDAO",
  "sourceName": "contracts/DAO/AetherDAO.sol",
  "abi": [
    {
      "inputs": [],
      "stateMutability": "nonpayable",
      "type": "constructor"
    },
    {
      "anonymous": false,
      "inputs": [
        {
          "indexed": true,
          "internalType": "address",
          "name": "AetherDAO",
          "type": "address"
        },
        {
          "indexed": false,
          "internalType": "bytes32",
          "name": "ProposalReference",
          "type": "bytes32"
        },
        {
          "indexed": false,
          "internalType": "uint8",
          "name": "ProposalResolution",
          "type": "uint8"
        },
        {
          "indexed": false,
          "internalType": "uint256",
          "name": "ProposalVotes",
          "type": "uint256"
        }
      ],
      "name": "ConcludeProposal",
      "type": "event"
    },
    {
      "anonymous": false,
      "inputs": [
        {
          "indexed": true,
          "internalType": "address",
          "name": "AetherDAO",
          "type": "address"
        },
        {
          "indexed": true,
          "internalType": "address",
          "name": "Composer",
          "type": "address"
        },
        {
          "indexed": false,
          "internalType": "string",
          "name": "ProposalLink",
          "type": "string"
        },
        {
          "indexed": false,
          "internalType": "bytes32",
          "name": "ProposalReference",
          "type": "bytes32"
        },
        {
          "indexed": false,
          "internalType": "string",
          "name": "ProposalVariable",
          "type": "string"
        },
        {
          "indexed": false,
          "internalType": "uint256",
          "name": "ProposalValue",
          "type": "uint256"
        }
      ],
      "name": "InitiateProposal",
      "type": "event"
    },
    {
      "anonymous": false,
      "inputs": [
        {
          "indexed": true,
          "internalType": "address",
          "name": "AetherDAO",
          "type": "address"
        },
        {
          "indexed": false,
          "internalType": "string",
          "name": "VariableName",
          "type": "string"
        },
        {
          "indexed": false,
          "internalType": "uint256",
          "name": "VariableValue",
          "type": "uint256"
        },
        {
          "indexed": false,
          "internalType": "uint256",
          "name": "VariableOscillation",
          "type": "uint256"
        }
      ],
      "name": "VariableAdded",
      "type": "event"
    },
    {
      "anonymous": false,
      "inputs": [
        {
          "indexed": true,
          "internalType": "address",
          "name": "AetherDAO",
          "type": "address"
        },
        {
          "indexed": false,
          "internalType": "bytes4",
          "name": "VariableReference",
          "type": "bytes4"
        },
        {
          "indexed": false,
          "internalType": "uint256",
          "name": "VariableValue",
          "type": "uint256"
        }
      ],
      "name": "VariableChange",
      "type": "event"
    },
    {
      "anonymous": false,
      "inputs": [
        {
          "indexed": true,
          "internalType": "address",
          "name": "AetherDAO",
          "type": "address"
        },
        {
          "indexed": true,
          "internalType": "address",
          "name": "DAOMember",
          "type": "address"
        },
        {
          "indexed": false,
          "internalType": "bytes32",
          "name": "ProposalReference",
          "type": "bytes32"
        },
        {
          "indexed": false,
          "internalType": "uint8",
          "name": "voteType",
          "type": "uint8"
        }
      ],
      "name": "Vote",
      "type": "event"
    },
    {
      "stateMutability": "nonpayable",
      "type": "fallback"
    },
    {
      "inputs": [],
      "name": "_AetherToken_",
      "outputs": [
        {
          "internalType": "address",
          "name": "",
          "type": "address"
        }
      ],
      "stateMutability": "view",
      "type": "function"
    },
    {
      "inputs": [],
      "name": "aetherBonds",
      "outputs": [
        {
          "internalType": "address",
          "name": "",
          "type": "address"
        }
      ],
      "stateMutability": "view",
      "type": "function"
    },
    {
      "inputs": [],
      "name": "aetherDAO",
      "outputs": [
        {
          "internalType": "address",
          "name": "",
          "type": "address"
        }
      ],
      "stateMutability": "view",
      "type": "function"
    },
    {
      "inputs": [],
      "name": "aetherFactory",
      "outputs": [
        {
          "internalType": "address",
          "name": "",
          "type": "address"
        }
      ],
      "stateMutability": "view",
      "type": "function"
    },
    {
      "inputs": [],
      "name": "aetherHUB",
      "outputs": [
        {
          "internalType": "address",
          "name": "",
          "type": "address"
        }
      ],
      "stateMutability": "view",
      "type": "function"
    },
    {
      "inputs": [],
      "name": "aetherID",
      "outputs": [
        {
          "internalType": "uint256",
          "name": "",
          "type": "uint256"
        }
      ],
      "stateMutability": "view",
      "type": "function"
    },
    {
      "inputs": [],
      "name": "aetherKeeper",
      "outputs": [
        {
          "internalType": "address",
          "name": "",
          "type": "address"
        }
      ],
      "stateMutability": "view",
      "type": "function"
    },
    {
      "inputs": [],
      "name": "aetherRouter",
      "outputs": [
        {
          "internalType": "address",
          "name": "",
          "type": "address"
        }
      ],
      "stateMutability": "view",
      "type": "function"
    },
    {
      "inputs": [],
      "name": "aetherToken",
      "outputs": [
        {
          "internalType": "address",
          "name": "",
          "type": "address"
        }
      ],
      "stateMutability": "view",
      "type": "function"
    },
    {
      "inputs": [],
      "name": "bondMaturityTime",
      "outputs": [
        {
          "internalType": "uint256",
          "name": "",
          "type": "uint256"
        }
      ],
      "stateMutability": "view",
      "type": "function"
    },
    {
      "inputs": [],
      "name": "depletionDivisor",
      "outputs": [
        {
          "internalType": "uint256",
          "name": "",
          "type": "uint256"
        }
      ],
      "stateMutability": "view",
      "type": "function"
    },
    {
      "inputs": [],
      "name": "depletionMultiplier",
      "outputs": [
        {
          "internalType": "uint256",
          "name": "",
          "type": "uint256"
        }
      ],
      "stateMutability": "view",
      "type": "function"
    },
    {
      "inputs": [],
      "name": "depletionRatio",
      "outputs": [
        {
          "internalType": "uint256",
          "name": "",
          "type": "uint256"
        },
        {
          "internalType": "uint256",
          "name": "",
          "type": "uint256"
        }
      ],
      "stateMutability": "view",
      "type": "function"
    },
    {
      "inputs": [
        {
          "internalType": "bytes32",
          "name": "proposalReference",
          "type": "bytes32"
        }
      ],
      "name": "finalizeProposal",
      "outputs": [],
      "stateMutability": "nonpayable",
      "type": "function"
    },
    {
      "inputs": [],
      "name": "gasMarkup",
      "outputs": [
        {
          "internalType": "uint256",
          "name": "",
          "type": "uint256"
        }
      ],
      "stateMutability": "view",
      "type": "function"
    },
    {
      "inputs": [
        {
          "internalType": "uint256",
          "name": "contractId",
          "type": "uint256"
        }
      ],
      "name": "getAetherAddress",
      "outputs": [
        {
          "internalType": "address",
          "name": "contractAddress",
          "type": "address"
        }
      ],
      "stateMutability": "view",
      "type": "function"
    },
    {
      "inputs": [
        {
          "internalType": "bytes4",
          "name": "varRef",
          "type": "bytes4"
        }
      ],
      "name": "getLastEdit",
      "outputs": [
        {
          "internalType": "uint256",
          "name": "",
          "type": "uint256"
        }
      ],
      "stateMutability": "view",
      "type": "function"
    },
    {
      "inputs": [
        {
          "internalType": "string",
          "name": "varName",
          "type": "string"
        }
      ],
      "name": "getLastEdit",
      "outputs": [
        {
          "internalType": "uint256",
          "name": "",
          "type": "uint256"
        }
      ],
      "stateMutability": "view",
      "type": "function"
    },
    {
      "inputs": [
        {
          "internalType": "bytes32",
          "name": "proposalReference",
          "type": "bytes32"
        }
      ],
      "name": "getProposal",
      "outputs": [
        {
          "internalType": "string",
          "name": "proposalLink",
          "type": "string"
        },
        {
          "internalType": "string",
          "name": "proposalVarName",
          "type": "string"
        },
        {
          "internalType": "uint256",
          "name": "proposalVarVal",
          "type": "uint256"
        },
        {
          "internalType": "uint256",
          "name": "proposalExpiry",
          "type": "uint256"
        },
        {
          "internalType": "uint256[3]",
          "name": "proposalVotes",
          "type": "uint256[3]"
        },
        {
          "internalType": "uint8",
          "name": "proposalStatus",
          "type": "uint8"
        },
        {
          "internalType": "uint8",
          "name": "ProposalResolution",
          "type": "uint8"
        }
      ],
      "stateMutability": "view",
      "type": "function"
    },
    {
      "inputs": [
        {
          "internalType": "bytes32",
          "name": "proposalReference",
          "type": "bytes32"
        }
      ],
      "name": "getProposalExpiry",
      "outputs": [
        {
          "internalType": "uint256",
          "name": "",
          "type": "uint256"
        }
      ],
      "stateMutability": "view",
      "type": "function"
    },
    {
      "inputs": [
        {
          "internalType": "uint256",
          "name": "proposalIndex",
          "type": "uint256"
        }
      ],
      "name": "getProposalReference",
      "outputs": [
        {
          "internalType": "bytes32",
          "name": "",
          "type": "bytes32"
        }
      ],
      "stateMutability": "view",
      "type": "function"
    },
    {
      "inputs": [
        {
          "internalType": "bytes32",
          "name": "proposalReference",
          "type": "bytes32"
        }
      ],
      "name": "getProposalResolution",
      "outputs": [
        {
          "internalType": "uint8",
          "name": "",
          "type": "uint8"
        }
      ],
      "stateMutability": "view",
      "type": "function"
    },
    {
      "inputs": [
        {
          "internalType": "bytes32",
          "name": "proposalReference",
          "type": "bytes32"
        }
      ],
      "name": "getProposalStatus",
      "outputs": [
        {
          "internalType": "uint8",
          "name": "",
          "type": "uint8"
        }
      ],
      "stateMutability": "view",
      "type": "function"
    },
    {
      "inputs": [
        {
          "internalType": "bytes32",
          "name": "proposalReference",
          "type": "bytes32"
        }
      ],
      "name": "getProposalVotes",
      "outputs": [
        {
          "internalType": "uint256[3]",
          "name": "",
          "type": "uint256[3]"
        }
      ],
      "stateMutability": "view",
      "type": "function"
    },
    {
      "inputs": [
        {
          "internalType": "string",
          "name": "varName",
          "type": "string"
        }
      ],
      "name": "getVar",
      "outputs": [
        {
          "internalType": "uint256",
          "name": "variableValue",
          "type": "uint256"
        },
        {
          "internalType": "string",
          "name": "variableName",
          "type": "string"
        },
        {
          "internalType": "uint256",
          "name": "variableOsc",
          "type": "uint256"
        }
      ],
      "stateMutability": "view",
      "type": "function"
    },
    {
      "inputs": [
        {
          "internalType": "bytes4",
          "name": "varRef",
          "type": "bytes4"
        }
      ],
      "name": "getVar",
      "outputs": [
        {
          "internalType": "uint256",
          "name": "variableValue",
          "type": "uint256"
        },
        {
          "internalType": "string",
          "name": "variableName",
          "type": "string"
        },
        {
          "internalType": "uint256",
          "name": "variableOsc",
          "type": "uint256"
        }
      ],
      "stateMutability": "view",
      "type": "function"
    },
    {
      "inputs": [
        {
          "internalType": "bytes4",
          "name": "varRef",
          "type": "bytes4"
        }
      ],
      "name": "getVarName",
      "outputs": [
        {
          "internalType": "string",
          "name": "",
          "type": "string"
        }
      ],
      "stateMutability": "view",
      "type": "function"
    },
    {
      "inputs": [
        {
          "internalType": "string",
          "name": "varName",
          "type": "string"
        }
      ],
      "name": "getVarRef",
      "outputs": [
        {
          "internalType": "bytes4",
          "name": "",
          "type": "bytes4"
        }
      ],
      "stateMutability": "pure",
      "type": "function"
    },
    {
      "inputs": [
        {
          "internalType": "string",
          "name": "varName",
          "type": "string"
        }
      ],
      "name": "getVarVal",
      "outputs": [
        {
          "internalType": "uint256",
          "name": "",
          "type": "uint256"
        }
      ],
      "stateMutability": "view",
      "type": "function"
    },
    {
      "inputs": [
        {
          "internalType": "bytes4",
          "name": "varRef",
          "type": "bytes4"
        }
      ],
      "name": "getVarVal",
      "outputs": [
        {
          "internalType": "uint256",
          "name": "",
          "type": "uint256"
        }
      ],
      "stateMutability": "view",
      "type": "function"
    },
    {
      "inputs": [],
      "name": "holderThreshold",
      "outputs": [
        {
          "internalType": "uint256",
          "name": "",
          "type": "uint256"
        }
      ],
      "stateMutability": "view",
      "type": "function"
    },
    {
      "inputs": [
        {
          "internalType": "address",
          "name": "_addr",
          "type": "address"
        }
      ],
      "name": "isDAOMember",
      "outputs": [
        {
          "internalType": "bool",
          "name": "",
          "type": "bool"
        }
      ],
      "stateMutability": "view",
      "type": "function"
    },
    {
      "inputs": [
        {
          "internalType": "address",
          "name": "_addr",
          "type": "address"
        }
      ],
      "name": "isDAOPartner",
      "outputs": [
        {
          "internalType": "bool",
          "name": "",
          "type": "bool"
        }
      ],
      "stateMutability": "view",
      "type": "function"
    },
    {
      "inputs": [
        {
          "internalType": "address",
          "name": "_addr",
          "type": "address"
        }
      ],
      "name": "isHolder",
      "outputs": [
        {
          "internalType": "bool",
          "name": "",
          "type": "bool"
        }
      ],
      "stateMutability": "view",
      "type": "function"
    },
    {
      "inputs": [
        {
          "internalType": "address",
          "name": "_addr",
          "type": "address"
        }
      ],
      "name": "isNodeOwner",
      "outputs": [
        {
          "internalType": "bool",
          "name": "",
          "type": "bool"
        }
      ],
      "stateMutability": "view",
      "type": "function"
    },
    {
      "inputs": [
        {
          "internalType": "bytes32",
          "name": "proposalReference",
          "type": "bytes32"
        }
      ],
      "name": "isProposalActive",
      "outputs": [
        {
          "internalType": "bool",
          "name": "",
          "type": "bool"
        }
      ],
      "stateMutability": "view",
      "type": "function"
    },
    {
      "inputs": [
        {
          "internalType": "address",
          "name": "_addr",
          "type": "address"
        }
      ],
      "name": "isTreasuryPartner",
      "outputs": [
        {
          "internalType": "bool",
          "name": "",
          "type": "bool"
        }
      ],
      "stateMutability": "view",
      "type": "function"
    },
    {
      "inputs": [
        {
          "internalType": "bytes32",
          "name": "proposalReference",
          "type": "bytes32"
        },
        {
          "internalType": "address",
          "name": "voter",
          "type": "address"
        }
      ],
      "name": "memberVote",
      "outputs": [
        {
          "internalType": "uint8",
          "name": "",
          "type": "uint8"
        }
      ],
      "stateMutability": "view",
      "type": "function"
    },
    {
      "inputs": [
        {
          "internalType": "address",
          "name": "_addr",
          "type": "address"
        },
        {
          "internalType": "enum IMemberships.Membership",
          "name": "_membership",
          "type": "uint8"
        }
      ],
      "name": "membershipFor",
      "outputs": [
        {
          "internalType": "bool",
          "name": "",
          "type": "bool"
        }
      ],
      "stateMutability": "view",
      "type": "function"
    },
    {
      "inputs": [],
      "name": "nodeThreshold",
      "outputs": [
        {
          "internalType": "uint256",
          "name": "",
          "type": "uint256"
        }
      ],
      "stateMutability": "view",
      "type": "function"
    },
    {
      "inputs": [],
      "name": "nodesAllocation",
      "outputs": [
        {
          "internalType": "uint256",
          "name": "",
          "type": "uint256"
        }
      ],
      "stateMutability": "view",
      "type": "function"
    },
    {
      "inputs": [],
      "name": "proposalTime",
      "outputs": [
        {
          "internalType": "uint256",
          "name": "",
          "type": "uint256"
        }
      ],
      "stateMutability": "view",
      "type": "function"
    },
    {
      "inputs": [],
      "name": "proposalsCount",
      "outputs": [
        {
          "internalType": "uint256",
          "name": "",
          "type": "uint256"
        }
      ],
      "stateMutability": "view",
      "type": "function"
    },
    {
      "inputs": [],
      "name": "rewardLedger",
      "outputs": [
        {
          "internalType": "uint256",
          "name": "",
          "type": "uint256"
        }
      ],
      "stateMutability": "view",
      "type": "function"
    },
    {
      "inputs": [],
      "name": "rewardsTreasury",
      "outputs": [
        {
          "internalType": "uint256",
          "name": "",
          "type": "uint256"
        }
      ],
      "stateMutability": "view",
      "type": "function"
    },
    {
      "inputs": [],
      "name": "signersThreshold",
      "outputs": [
        {
          "internalType": "uint256",
          "name": "",
          "type": "uint256"
        }
      ],
      "stateMutability": "view",
      "type": "function"
    },
    {
      "inputs": [
        {
          "internalType": "string",
          "name": "proposalLink",
          "type": "string"
        },
        {
          "internalType": "string",
          "name": "proposalVarName",
          "type": "string"
        },
        {
          "internalType": "uint256",
          "name": "proposalVal",
          "type": "uint256"
        }
      ],
      "name": "submitProposal",
      "outputs": [
        {
          "internalType": "bytes32",
          "name": "proposalReference",
          "type": "bytes32"
        }
      ],
      "stateMutability": "nonpayable",
      "type": "function"
    },
    {
      "inputs": [],
      "name": "targetGas",
      "outputs": [
        {
          "internalType": "uint256",
          "name": "",
          "type": "uint256"
        }
      ],
      "stateMutability": "view",
      "type": "function"
    },
    {
      "inputs": [],
      "name": "targetNative",
      "outputs": [
        {
          "internalType": "uint256",
          "name": "",
          "type": "uint256"
        }
      ],
      "stateMutability": "view",
      "type": "function"
    },
    {
      "inputs": [],
      "name": "targetTransactions",
      "outputs": [
        {
          "internalType": "uint256",
          "name": "",
          "type": "uint256"
        }
      ],
      "stateMutability": "view",
      "type": "function"
    },
    {
      "inputs": [],
      "name": "transactionThreshold",
      "outputs": [
        {
          "internalType": "uint256",
          "name": "",
          "type": "uint256"
        }
      ],
      "stateMutability": "view",
      "type": "function"
    },
    {
      "inputs": [],
      "name": "treasuryThreshold",
      "outputs": [
        {
          "internalType": "uint256",
          "name": "",
          "type": "uint256"
        }
      ],
      "stateMutability": "view",
      "type": "function"
    },
    {
      "inputs": [
        {
          "internalType": "bytes4",
          "name": "varRef",
          "type": "bytes4"
        }
      ],
      "name": "varExists",
      "outputs": [
        {
          "internalType": "bool",
          "name": "",
          "type": "bool"
        }
      ],
      "stateMutability": "view",
      "type": "function"
    },
    {
      "inputs": [
        {
          "internalType": "string",
          "name": "varName",
          "type": "string"
        }
      ],
      "name": "varExists",
      "outputs": [
        {
          "internalType": "bool",
          "name": "",
          "type": "bool"
        }
      ],
      "stateMutability": "view",
      "type": "function"
    },
    {
      "inputs": [
        {
          "internalType": "bytes32",
          "name": "proposalReference",
          "type": "bytes32"
        },
        {
          "internalType": "uint8",
          "name": "proposalVote",
          "type": "uint8"
        }
      ],
      "name": "voteOnProposal",
      "outputs": [],
      "stateMutability": "nonpayable",
      "type": "function"
    }
  ],
  "bytecode": "0x60806040523480156200001157600080fd5b50620000606040518060400160405280600c81526020017f70726f706f73616c54696d650000000000000000000000000000000000000000815250620a0668622819a06200060160201b60201c565b50620000ad6040518060400160405280601081526020017f7369676e6572735468726573686f6c6400000000000000000000000000000000815250600262140cd06200060160201b60201c565b50620001046040518060400160405280600d81526020017f6e6f64655468726573686f6c64000000000000000000000000000000000000008152506a084595161401484a00000062784ce06200060160201b60201c565b50620001546040518060400160405280600f81526020017f6e6f64655374616b696e6754696d6500000000000000000000000000000000008152506301e1338062784ce06200060160201b60201c565b50620001a36040518060400160405280601081526020017f626f6e644d6174757269747954696d6500000000000000000000000000000000815250626ebe0062784ce06200060160201b60201c565b50620001ed6040518060400160405280601481526020017f7472616e73616374696f6e5468726573686f6c640000000000000000000000008152504560006200060160201b60201c565b50620002416040518060400160405280600f81526020017f686f6c6465725468726573686f6c64000000000000000000000000000000000081525069d3c21bcecceda100000060006200060160201b60201c565b506200028e6040518060400160405280600f81526020017f7265776172647354726561737572790000000000000000000000000000000000815250603c62140cd06200060160201b60201c565b50620002db6040518060400160405280601181526020017f74726561737572795468726573686f6c64000000000000000000000000000000815250600162784ce06200060160201b60201c565b50620003266040518060400160405280601381526020017f6465706c6574696f6e4d756c7469706c69657200000000000000000000000000815250603260006200060160201b60201c565b50620003716040518060400160405280601081526020017f6465706c6574696f6e44697669736f7200000000000000000000000000000000815250606460006200060160201b60201c565b50620003be6040518060400160405280600c81526020017f7265776172644c6564676572000000000000000000000000000000000000000081525060056203f4806200060160201b60201c565b506200040b6040518060400160405280600881526020017f67617350726963650000000000000000000000000000000000000000000000008152506023620151806200060160201b60201c565b50620004626040518060400160405280600981526020017f74617267657447617300000000000000000000000000000000000000000000008152506c0c9f2c9cd04674edea4000000060006200060160201b60201c565b50620004af6040518060400160405280601281526020017f7461726765745472616e73616374696f6e7300000000000000000000000000008152506298968060006200060160201b60201c565b50620004fc6040518060400160405280600681526020017f4d61784250420000000000000000000000000000000000000000000000000000815250600a620151806200060160201b60201c565b50620005496040518060400160405280600681526020017f4d617854504200000000000000000000000000000000000000000000000000008152506003620151806200060160201b60201c565b50620005bb6003600681111562000589577f4e487b7100000000000000000000000000000000000000000000000000000000600052602160045260246000fd5b604051806020016200059b906200094e565b6020820181038252601f19601f820116604052506200081860201b60201c565b600760006101000a81548173ffffffffffffffffffffffffffffffffffffffff021916908373ffffffffffffffffffffffffffffffffffffffff16021790555062000ebf565b600062000614846200091c60201b60201c565b9050600060026000837bffffffffffffffffffffffffffffffffffffffffffffffffffffffff19167bffffffffffffffffffffffffffffffffffffffffffffffffffffffff191681526020019081526020016000206002015414620006b0576040517f08c379a0000000000000000000000000000000000000000000000000000000008152600401620006a79062000c51565b60405180910390fd5b60008214620006c05781620006c3565b60015b915060405180606001604052808481526020018581526020018381525060026000837bffffffffffffffffffffffffffffffffffffffffffffffffffffffff19167bffffffffffffffffffffffffffffffffffffffffffffffffffffffff19168152602001908152602001600020600082015181600001556020820151816001019080519060200190620007599291906200095c565b50604082015181600201559050504260036000837bffffffffffffffffffffffffffffffffffffffffffffffffffffffff19167bffffffffffffffffffffffffffffffffffffffffffffffffffffffff19168152602001908152602001600020819055503073ffffffffffffffffffffffffffffffffffffffff167fcc182ad97b7e6767e6f1450d65d318e2dd9183580b6ef05d5d99800ec74602b2858585604051620008099392919062000beb565b60405180910390a29392505050565b6000803061a31460f01b85604051602001620008379392919062000b82565b604051602081830303815290604052805190602001209050600083511162000896576040517f08c379a00000000000000000000000000000000000000000000000000000000081526004016200088d9062000c2f565b60405180910390fd5b808351602085016000f59150600073ffffffffffffffffffffffffffffffffffffffff168273ffffffffffffffffffffffffffffffffffffffff16141562000915576040517f08c379a00000000000000000000000000000000000000000000000000000000081526004016200090c9062000c73565b60405180910390fd5b5092915050565b60008160405160200162000931919062000bc5565b604051602081830303815290604052805190602001209050919050565b61371080620054da83390190565b8280546200096a9062000d5c565b90600052602060002090601f0160209004810192826200098e5760008555620009da565b82601f10620009a957805160ff1916838001178555620009da565b82800160010185558215620009da579182015b82811115620009d9578251825591602001919060010190620009bc565b5b509050620009e99190620009ed565b5090565b5b8082111562000a08576000816000905550600101620009ee565b5090565b62000a2162000a1b8262000cbc565b62000d92565b82525050565b62000a3c62000a368262000cd0565b62000da6565b82525050565b600062000a4f8262000c95565b62000a5b818562000ca0565b935062000a6d81856020860162000d26565b62000a788162000dfd565b840191505092915050565b600062000a908262000c95565b62000a9c818562000cb1565b935062000aae81856020860162000d26565b80840191505092915050565b600062000ac960208362000ca0565b915062000ad68262000e1b565b602082019050919050565b600062000af060028362000cb1565b915062000afd8262000e44565b600282019050919050565b600062000b17601d8362000ca0565b915062000b248262000e6d565b602082019050919050565b600062000b3e60118362000ca0565b915062000b4b8262000e96565b602082019050919050565b62000b618162000d1c565b82525050565b62000b7c62000b768262000d1c565b62000dc4565b82525050565b600062000b90828662000a0c565b60148201915062000ba2828562000a27565b60028201915062000bb4828462000b67565b602082019150819050949350505050565b600062000bd3828462000a83565b915062000be08262000ae1565b915081905092915050565b6000606082019050818103600083015262000c07818662000a42565b905062000c18602083018562000b56565b62000c27604083018462000b56565b949350505050565b6000602082019050818103600083015262000c4a8162000aba565b9050919050565b6000602082019050818103600083015262000c6c8162000b08565b9050919050565b6000602082019050818103600083015262000c8e8162000b2f565b9050919050565b600081519050919050565b600082825260208201905092915050565b600081905092915050565b600062000cc98262000cfc565b9050919050565b60007fffff00000000000000000000000000000000000000000000000000000000000082169050919050565b600073ffffffffffffffffffffffffffffffffffffffff82169050919050565b6000819050919050565b60005b8381101562000d4657808201518184015260208101905062000d29565b8381111562000d56576000848401525b50505050565b6000600282049050600182168062000d7557607f821691505b6020821081141562000d8c5762000d8b62000dce565b5b50919050565b600062000d9f8262000db0565b9050919050565b6000819050919050565b600062000dbd8262000e0e565b9050919050565b6000819050919050565b7f4e487b7100000000000000000000000000000000000000000000000000000000600052602260045260246000fd5b6000601f19601f8301169050919050565b60008160601b9050919050565b7f4372656174696f6e436f6465206d696e206c656e206973206e6f74207a65726f600082015250565b7f2829000000000000000000000000000000000000000000000000000000000000600082015250565b7f54686973207661726961626c6520726566206973206f63637570696564000000600082015250565b7f6465706c6f796d656e74206661696c6564000000000000000000000000000000600082015250565b61460b8062000ecf6000396000f3fe608060405234801561001057600080fd5b50600436106103615760003560e01c806376aa7e6f116101d3578063b3b005de11610104578063da7095f5116100a2578063ec2382381161007c578063ec23823814610b74578063eccda8df14610b92578063fafb2f2314610bb0578063ffe466a714610bce57610362565b8063da7095f514610b08578063dc60135214610b38578063e3a073e914610b5657610362565b8063ba859643116100de578063ba85964314610a5a578063bfdb74f014610a78578063bff28ea814610aa8578063d4d7b19a14610ad857610362565b8063b3b005de146109dc578063b7f583b714610a0c578063ba8554c714610a2a57610362565b8063a296718411610171578063a84dc7c31161014b578063a84dc7c314610952578063acab144b14610970578063aeecd3f91461098e578063b1e44d8f146109ac57610362565b8063a2967184146108c2578063a41a32e4146108f2578063a74a36851461092257610362565b80638312cd97116101ad5780638312cd971461081457806393dfd045146108325780639ddd6c83146108625780639fa59f001461089257610362565b806376aa7e6f146107aa578063779994f3146107c65780637bf45933146107e457610362565b806343d9d564116102ad578063552532d31161024b578063656e97fd11610225578063656e97fd146106fa578063689051f2146107185780636a0db4371461074a5780636ebd065a1461077a57610362565b8063552532d3146106a05780635fd1cf26146106be5780636330d59d146106dc57610362565b806347d0da141161028757806347d0da14146106065780635096c4391461062257806350ef7d2014610652578063513404291461067057610362565b806343d9d56414610599578063440e3198146105c957806346f733f8146105e857610362565b80631e4433c41161031a5780632cb0e40d116102f45780632cb0e40d146104f7578063388c5a96146105155780633955e65314610545578063430694cf1461056357610362565b80631e4433c4146104655780631ecc918614610497578063206dffa0146104c757610362565b8063081dd5ff1461039f5780630a9f46ad146103bd578063153b362b146103db57806315f7aaab146103f9578063177a6ce514610429578063184a0ae91461044757610362565b5b60006103916000357fffffffff0000000000000000000000000000000000000000000000000000000016610bec565b905060008181526020810181f35b6103a7610c4a565b6040516103b49190613c26565b60405180910390f35b6103c5610d02565b6040516103d29190613f6c565b60405180910390f35b6103e3610d08565b6040516103f09190613f6c565b60405180910390f35b610413600480360381019061040e919061368c565b610d1f565b6040516104209190613c5c565b60405180910390f35b610431610dc1565b60405161043e9190613c26565b60405180910390f35b61044f610e79565b60405161045c9190613f6c565b60405180910390f35b61047f600480360381019061047a919061386d565b610e90565b60405161048e93929190613f87565b60405180910390f35b6104b160048036038101906104ac91906137bb565b610eb4565b6040516104be9190613d8d565b60405180910390f35b6104e160048036038101906104dc919061386d565b610f9a565b6040516104ee9190613f6c565b60405180910390f35b6104ff610fb4565b60405161050c9190613f6c565b60405180910390f35b61052f600480360381019061052a919061368c565b610fda565b60405161053c9190613c5c565b60405180910390f35b61054d61107c565b60405161055a9190613f6c565b60405180910390f35b61057d6004803603810190610578919061371a565b611093565b6040516105909796959493929190613daf565b60405180910390f35b6105b360048036038101906105ae91906138ae565b6113fe565b6040516105c09190613c77565b60405180910390f35b6105d1611430565b6040516105df929190613fc5565b60405180910390f35b6105f061144b565b6040516105fd9190613c26565b60405180910390f35b610620600480360381019061061b919061371a565b611503565b005b61063c600480360381019061063791906137bb565b611a72565b6040516106499190613c5c565b60405180910390f35b61065a611ad3565b6040516106679190613f6c565b60405180910390f35b61068a600480360381019061068591906137bb565b610bec565b6040516106979190613f6c565b60405180910390f35b6106a8611adc565b6040516106b59190613f6c565b60405180910390f35b6106c6611af3565b6040516106d39190613c26565b60405180910390f35b6106e4611baa565b6040516106f19190613f6c565b60405180910390f35b610702611bc1565b60405161070f9190613f6c565b60405180910390f35b610732600480360381019061072d91906137bb565b611bd8565b60405161074193929190613f87565b60405180910390f35b610764600480360381019061075f9190613743565b611d00565b6040516107719190613fee565b60405180910390f35b610794600480360381019061078f91906137bb565b611d4c565b6040516107a19190613f6c565b60405180910390f35b6107c460048036038101906107bf919061377f565b611da7565b005b6107ce61222c565b6040516107db9190613f6c565b60405180910390f35b6107fe60048036038101906107f9919061386d565b612243565b60405161080b9190613f6c565b60405180910390f35b61081c61225d565b6040516108299190613f6c565b60405180910390f35b61084c6004803603810190610847919061371a565b612274565b6040516108599190613fee565b60405180910390f35b61087c6004803603810190610877919061386d565b6122be565b6040516108899190613c5c565b60405180910390f35b6108ac60048036038101906108a7919061386d565b6122d8565b6040516108b99190613cf2565b60405180910390f35b6108dc60048036038101906108d7919061371a565b612308565b6040516108e99190613c5c565b60405180910390f35b61090c6004803603810190610907919061371a565b61232a565b6040516109199190613f6c565b60405180910390f35b61093c600480360381019061093791906138ae565b61234a565b6040516109499190613c26565b60405180910390f35b61095a6123cb565b6040516109679190613f6c565b60405180910390f35b6109786123e2565b6040516109859190613f6c565b60405180910390f35b6109966123f9565b6040516109a39190613f6c565b60405180910390f35b6109c660048036038101906109c1919061368c565b612410565b6040516109d39190613c5c565b60405180910390f35b6109f660048036038101906109f191906136de565b612442565b604051610a039190613c5c565b60405180910390f35b610a146125e9565b604051610a219190613f6c565b60405180910390f35b610a446004803603810190610a3f91906137e4565b612600565b604051610a519190613c77565b60405180910390f35b610a62612a4e565b604051610a6f9190613f6c565b60405180910390f35b610a926004803603810190610a8d919061371a565b612a65565b604051610a9f9190613fee565b60405180910390f35b610ac26004803603810190610abd919061371a565b612aaf565b604051610acf9190613c41565b60405180910390f35b610af26004803603810190610aed919061368c565b612b10565b604051610aff9190613c5c565b60405180910390f35b610b226004803603810190610b1d919061368c565b612bb2565b604051610b2f9190613c5c565b60405180910390f35b610b40612bd4565b604051610b4d9190613c26565b60405180910390f35b610b5e612c8c565b604051610b6b9190613f6c565b60405180910390f35b610b7c612ca3565b604051610b899190613c26565b60405180910390f35b610b9a612d5b565b604051610ba79190613c26565b60405180910390f35b610bb8612e13565b604051610bc59190613c26565b60405180910390f35b610bd6612e39565b604051610be39190613f6c565b60405180910390f35b600060026000837bffffffffffffffffffffffffffffffffffffffffffffffffffffffff19167bffffffffffffffffffffffffffffffffffffffffffffffffffffffff19168152602001908152602001600020600001549050919050565b60003073ffffffffffffffffffffffffffffffffffffffff163373ffffffffffffffffffffffffffffffffffffffff161415610cbb576040517f08c379a0000000000000000000000000000000000000000000000000000000008152600401610cb290613f2c565b60405180910390fd5b610cfd60016006811115610cf8577f4e487b7100000000000000000000000000000000000000000000000000000000600052602160045260246000fd5b612e50565b905090565b60065481565b6000610d1a63153b362b60e01b610bec565b905090565b6000610d29612c8c565b610d3161144b565b73ffffffffffffffffffffffffffffffffffffffff1663d217838c846040518263ffffffff1660e01b8152600401610d699190613c26565b60206040518083038186803b158015610d8157600080fd5b505afa158015610d95573d6000803e3d6000fd5b505050506040513d601f19601f82011682018060405250810190610db991906138d7565b119050919050565b60003073ffffffffffffffffffffffffffffffffffffffff163373ffffffffffffffffffffffffffffffffffffffff161415610e32576040517f08c379a0000000000000000000000000000000000000000000000000000000008152600401610e2990613f2c565b60405180910390fd5b610e7460046006811115610e6f577f4e487b7100000000000000000000000000000000000000000000000000000000600052602160045260246000fd5b612e50565b905090565b6000610e8b63184a0ae960e01b610bec565b905090565b600060606000610ea7610ea2856122d8565b611bd8565b9250925092509193909250565b606060026000837bffffffffffffffffffffffffffffffffffffffffffffffffffffffff19167bffffffffffffffffffffffffffffffffffffffffffffffffffffffff191681526020019081526020016000206001018054610f1590614207565b80601f0160208091040260200160405190810160405280929190818152602001828054610f4190614207565b8015610f8e5780601f10610f6357610100808354040283529160200191610f8e565b820191906000526020600020905b815481529060010190602001808311610f7157829003601f168201915b50505050509050919050565b6000610fad610fa8836122d8565b610bec565b9050919050565b6000633b9aca00610fcb636330d59d60e01b610bec565b610fd59190614109565b905090565b6000610fe4612a4e565b610fec61144b565b73ffffffffffffffffffffffffffffffffffffffff166370a08231846040518263ffffffff1660e01b81526004016110249190613c26565b60206040518083038186803b15801561103c57600080fd5b505afa158015611050573d6000803e3d6000fd5b505050506040513d601f19601f8201168201806040525081019061107491906138d7565b119050919050565b600061108e633955e65360e01b610bec565b905090565b6060806000806110a161342d565b6000806000600560008a81526020019081526020016000206040518060e00160405290816000820180546110d490614207565b80601f016020809104026020016040519081016040528092919081815260200182805461110090614207565b801561114d5780601f106111225761010080835404028352916020019161114d565b820191906000526020600020905b81548152906001019060200180831161113057829003601f168201915b5050505050815260200160018201805461116690614207565b80601f016020809104026020016040519081016040528092919081815260200182805461119290614207565b80156111df5780601f106111b4576101008083540402835291602001916111df565b820191906000526020600020905b8154815290600101906020018083116111c257829003601f168201915b50505050508152602001600282015481526020016003820154815260200160048201600380602002604051908101604052809291908260038015611238576020028201915b815481526020019060010190808311611224575b505050505081526020016007820160009054906101000a900460ff16600281111561128c577f4e487b7100000000000000000000000000000000000000000000000000000000600052602160045260246000fd5b60028111156112c4577f4e487b7100000000000000000000000000000000000000000000000000000000600052602160045260246000fd5b81526020016007820160019054906101000a900460ff166003811115611313577f4e487b7100000000000000000000000000000000000000000000000000000000600052602160045260246000fd5b600381111561134b577f4e487b7100000000000000000000000000000000000000000000000000000000600052602160045260246000fd5b815250509050806000015181602001518260400151836060015184608001518560a0015160028111156113a7577f4e487b7100000000000000000000000000000000000000000000000000000000600052602160045260246000fd5b8660c0015160038111156113e4577f4e487b7100000000000000000000000000000000000000000000000000000000600052602160045260246000fd5b975097509750975097509750975050919395979092949650565b60003082604051602001611413929190613bd8565b604051602081830303815290604052805190602001209050919050565b60008061143b6123e2565b611443611adc565b915091509091565b60003073ffffffffffffffffffffffffffffffffffffffff163373ffffffffffffffffffffffffffffffffffffffff1614156114bc576040517f08c379a00000000000000000000000000000000000000000000000000000000081526004016114b390613f2c565b60405180910390fd5b6114fe600560068111156114f9577f4e487b7100000000000000000000000000000000000000000000000000000000600052602160045260246000fd5b612e50565b905090565b61150c33612410565b61154b576040517f08c379a000000000000000000000000000000000000000000000000000000000815260040161154290613f0c565b60405180910390fd5b60006005600083815260200190815260200160002090506000806000428460030154106115ad576040517f08c379a00000000000000000000000000000000000000000000000000000000081526004016115a490613eac565b60405180910390fd5b600160028111156115e7577f4e487b7100000000000000000000000000000000000000000000000000000000600052602160045260246000fd5b8460070160009054906101000a900460ff166002811115611631577f4e487b7100000000000000000000000000000000000000000000000000000000600052602160045260246000fd5b1461163b57600080fd5b60028460070160006101000a81548160ff02191690836002811115611689577f4e487b7100000000000000000000000000000000000000000000000000000000600052602160045260246000fd5b021790555060005b60038110156117b8578460040181600381106116d6577f4e487b7100000000000000000000000000000000000000000000000000000000600052603260045260246000fd5b0154826116e391906140b3565b915082856004018260038110611722577f4e487b7100000000000000000000000000000000000000000000000000000000600052603260045260246000fd5b0154106117a557846004018160038110611765577f4e487b7100000000000000000000000000000000000000000000000000000000600052603260045260246000fd5b015492508060038111156117a2577f4e487b7100000000000000000000000000000000000000000000000000000000600052602160045260246000fd5b93505b80806117b09061426a565b915050611691565b50828460070160016101000a81548160ff02191690836003811115611806577f4e487b7100000000000000000000000000000000000000000000000000000000600052602160045260246000fd5b021790555060006118a285600101805461181f90614207565b80601f016020809104026020016040519081016040528092919081815260200182805461184b90614207565b80156118985780601f1061186d57610100808354040283529160200191611898565b820191906000526020600020905b81548152906001019060200180831161187b57829003601f168201915b50505050506122d8565b9050600160038111156118de577f4e487b7100000000000000000000000000000000000000000000000000000000600052602160045260246000fd5b846003811115611917577f4e487b7100000000000000000000000000000000000000000000000000000000600052602160045260246000fd5b148015611929575061192881611a72565b5b156119425761193c818660020154612fa5565b506119e0565b6119de85600101805461195490614207565b80601f016020809104026020016040519081016040528092919081815260200182805461198090614207565b80156119cd5780601f106119a2576101008083540402835291602001916119cd565b820191906000526020600020905b8154815290600101906020018083116119b057829003601f168201915b505050505086600201546000613165565b505b3073ffffffffffffffffffffffffffffffffffffffff167f3ef6e858845d9baa790ccd5489a023dcffcf6c8aa921c9e7077f78b631bac7e087866003811115611a52577f4e487b7100000000000000000000000000000000000000000000000000000000600052602160045260246000fd5b85604051611a6293929190613cbb565b60405180910390a2505050505050565b60008060026000847bffffffffffffffffffffffffffffffffffffffffffffffffffffffff19167bffffffffffffffffffffffffffffffffffffffffffffffffffffffff191681526020019081526020016000206002015414159050919050565b60008054905090565b6000611aee63552532d360e01b610bec565b905090565b60003073ffffffffffffffffffffffffffffffffffffffff163373ffffffffffffffffffffffffffffffffffffffff161415611b64576040517f08c379a0000000000000000000000000000000000000000000000000000000008152600401611b5b90613f2c565b60405180910390fd5b611ba5600680811115611ba0577f4e487b7100000000000000000000000000000000000000000000000000000000600052602160045260246000fd5b612e50565b905090565b6000611bbc636330d59d60e01b610bec565b905090565b6000611bd363656e97fd60e01b610bec565b905090565b6000606060008060026000867bffffffffffffffffffffffffffffffffffffffffffffffffffffffff19167bffffffffffffffffffffffffffffffffffffffffffffffffffffffff1916815260200190815260200160002060405180606001604052908160008201548152602001600182018054611c5590614207565b80601f0160208091040260200160405190810160405280929190818152602001828054611c8190614207565b8015611cce5780601f10611ca357610100808354040283529160200191611cce565b820191906000526020600020905b815481529060010190602001808311611cb157829003601f168201915b505050505081526020016002820154815250509050806000015193508060200151925080604001519150509193909250565b6000611d0c838361336b565b6003811115611d44577f4e487b7100000000000000000000000000000000000000000000000000000000600052602160045260246000fd5b905092915050565b600060036000837bffffffffffffffffffffffffffffffffffffffffffffffffffffffff19167bffffffffffffffffffffffffffffffffffffffffffffffffffffffff19168152602001908152602001600020549050919050565b611db033612410565b611def576040517f08c379a0000000000000000000000000000000000000000000000000000000008152600401611de690613f0c565b60405180910390fd5b8160006003811115611e2a577f4e487b7100000000000000000000000000000000000000000000000000000000600052602160045260246000fd5b611e34823361336b565b6003811115611e6c577f4e487b7100000000000000000000000000000000000000000000000000000000600052602160045260246000fd5b14611e7657600080fd5b60008260ff166003811115611eb4577f4e487b7100000000000000000000000000000000000000000000000000000000600052602160045260246000fd5b90506000611ec1856133d3565b9050816004600087815260200190815260200160002060003373ffffffffffffffffffffffffffffffffffffffff1673ffffffffffffffffffffffffffffffffffffffff16815260200190815260200160002060006101000a81548160ff02191690836003811115611f5c577f4e487b7100000000000000000000000000000000000000000000000000000000600052602160045260246000fd5b021790555060016002811115611f9b577f4e487b7100000000000000000000000000000000000000000000000000000000600052602160045260246000fd5b816002811115611fd4577f4e487b7100000000000000000000000000000000000000000000000000000000600052602160045260246000fd5b14612014576040517f08c379a000000000000000000000000000000000000000000000000000000000815260040161200b90613e8c565b60405180910390fd5b6000600381111561204e577f4e487b7100000000000000000000000000000000000000000000000000000000600052602160045260246000fd5b826003811115612087577f4e487b7100000000000000000000000000000000000000000000000000000000600052602160045260246000fd5b11801561210457506003808111156120c8577f4e487b7100000000000000000000000000000000000000000000000000000000600052602160045260246000fd5b826003811115612101577f4e487b7100000000000000000000000000000000000000000000000000000000600052602160045260246000fd5b11155b61210d57600080fd5b61211685612308565b61211f57600080fd5b600160056000878152602001908152602001600020600401836003811115612170577f4e487b7100000000000000000000000000000000000000000000000000000000600052602160045260246000fd5b600381106121a7577f4e487b7100000000000000000000000000000000000000000000000000000000600052603260045260246000fd5b0160008282546121b791906140b3565b925050819055503373ffffffffffffffffffffffffffffffffffffffff163073ffffffffffffffffffffffffffffffffffffffff167f677a563a473bb29f607921e5d92ca1f2f580c08e67c873577f2f4367278e70cd878760405161221d929190613c92565b60405180910390a35050505050565b600061223e63779994f360e01b610bec565b905090565b6000612256612251836122d8565b611d4c565b9050919050565b600061226f638312cd9760e01b610bec565b905090565b600061227f826133d3565b60028111156122b7577f4e487b7100000000000000000000000000000000000000000000000000000000600052602160045260246000fd5b9050919050565b60006122d16122cc836122d8565b611a72565b9050919050565b6000816040516020016122eb9190613c04565b604051602081830303815290604052805190602001209050919050565b6000426005600084815260200190815260200160002060030154119050919050565b600060056000838152602001908152602001600020600301549050919050565b60003073ffffffffffffffffffffffffffffffffffffffff163373ffffffffffffffffffffffffffffffffffffffff1614156123bb576040517f08c379a00000000000000000000000000000000000000000000000000000000081526004016123b290613f2c565b60405180910390fd5b6123c482612e50565b9050919050565b60006123dd63a84dc7c360e01b610bec565b905090565b60006123f463acab144b60e01b610bec565b905090565b600061240b63aeecd3f960e01b610bec565b905090565b600061241b82612b10565b8061242b575061242a82610d1f565b5b8061243b575061243a82610fda565b5b9050919050565b60006001600381111561247e577f4e487b7100000000000000000000000000000000000000000000000000000000600052602160045260246000fd5b8260038111156124b7577f4e487b7100000000000000000000000000000000000000000000000000000000600052602160045260246000fd5b14156124cd576124c683612b10565b90506125e3565b60026003811115612507577f4e487b7100000000000000000000000000000000000000000000000000000000600052602160045260246000fd5b826003811115612540577f4e487b7100000000000000000000000000000000000000000000000000000000600052602160045260246000fd5b14156125565761254f83610d1f565b90506125e3565b60038081111561258f577f4e487b7100000000000000000000000000000000000000000000000000000000600052602160045260246000fd5b8260038111156125c8577f4e487b7100000000000000000000000000000000000000000000000000000000600052602160045260246000fd5b14156125de576125d783610fda565b90506125e3565b600090505b92915050565b60006125fb63b7f583b760e01b610bec565b905090565b600061260b33612410565b61264a576040517f08c379a000000000000000000000000000000000000000000000000000000000815260040161264190613f0c565b60405180910390fd5b3060065460405160200161265f929190613bd8565b60405160208183030381529060405280519060200120905060006040518060600160405280600081526020016000815260200160008152509050600060028111156126d3577f4e487b7100000000000000000000000000000000000000000000000000000000600052602160045260246000fd5b6126dc836133d3565b6002811115612714577f4e487b7100000000000000000000000000000000000000000000000000000000600052602160045260246000fd5b14612754576040517f08c379a000000000000000000000000000000000000000000000000000000000815260040161274b90613f4c565b60405180910390fd5b6040518060e0016040528088888080601f016020809104026020016040519081016040528093929190818152602001838380828437600081840152601f19601f82011690508083019250505050505050815260200186868080601f016020809104026020016040519081016040528093929190818152602001838380828437600081840152601f19601f820116905080830192505050505050508152602001848152602001612801610e79565b4261280c91906140b3565b815260200182815260200160016002811115612851577f4e487b7100000000000000000000000000000000000000000000000000000000600052602160045260246000fd5b815260200160006003811115612890577f4e487b7100000000000000000000000000000000000000000000000000000000600052602160045260246000fd5b8152506005600084815260200190815260200160002060008201518160000190805190602001906128c292919061344f565b5060208201518160010190805190602001906128df92919061344f565b50604082015181600201556060820151816003015560808201518160040190600361290b9291906134d5565b5060a08201518160070160006101000a81548160ff0219169083600281111561295d577f4e487b7100000000000000000000000000000000000000000000000000000000600052602160045260246000fd5b021790555060c08201518160070160016101000a81548160ff021916908360038111156129b3577f4e487b7100000000000000000000000000000000000000000000000000000000600052602160045260246000fd5b02179055509050506001600660008282546129ce91906140b3565b925050819055503373ffffffffffffffffffffffffffffffffffffffff163073ffffffffffffffffffffffffffffffffffffffff167fcb9548ff4d7f490f1cca82bdb623f50e1e857236458299ebbd5c0e850968d8b08989868a8a8a604051612a3c96959493929190613d36565b60405180910390a35095945050505050565b6000612a6063ba85964360e01b610bec565b905090565b6000612a7082613400565b6003811115612aa8577f4e487b7100000000000000000000000000000000000000000000000000000000600052602160045260246000fd5b9050919050565b612ab761342d565b60056000838152602001908152602001600020600401600380602002604051908101604052809291908260038015612b04576020028201915b815481526020019060010190808311612af0575b50505050509050919050565b6000612b1a61222c565b612b22612d5b565b73ffffffffffffffffffffffffffffffffffffffff166370a08231846040518263ffffffff1660e01b8152600401612b5a9190613c26565b60206040518083038186803b158015612b7257600080fd5b505afa158015612b86573d6000803e3d6000fd5b505050506040513d601f19601f82011682018060405250810190612baa91906138d7565b119050919050565b6000612bbd82610d1f565b80612bcd5750612bcc82610fda565b5b9050919050565b60003073ffffffffffffffffffffffffffffffffffffffff163373ffffffffffffffffffffffffffffffffffffffff161415612c45576040517f08c379a0000000000000000000000000000000000000000000000000000000008152600401612c3c90613f2c565b60405180910390fd5b612c8760026006811115612c82577f4e487b7100000000000000000000000000000000000000000000000000000000600052602160045260246000fd5b612e50565b905090565b6000612c9e63e3a073e960e01b610bec565b905090565b60003073ffffffffffffffffffffffffffffffffffffffff163373ffffffffffffffffffffffffffffffffffffffff161415612d14576040517f08c379a0000000000000000000000000000000000000000000000000000000008152600401612d0b90613f2c565b60405180910390fd5b612d5660006006811115612d51577f4e487b7100000000000000000000000000000000000000000000000000000000600052602160045260246000fd5b612e50565b905090565b60003073ffffffffffffffffffffffffffffffffffffffff163373ffffffffffffffffffffffffffffffffffffffff161415612dcc576040517f08c379a0000000000000000000000000000000000000000000000000000000008152600401612dc390613f2c565b60405180910390fd5b612e0e60036006811115612e09577f4e487b7100000000000000000000000000000000000000000000000000000000600052602160045260246000fd5b612e50565b905090565b600760009054906101000a900473ffffffffffffffffffffffffffffffffffffffff1681565b6000612e4b63ffe466a760e01b610bec565b905090565b6000600160009054906101000a900473ffffffffffffffffffffffffffffffffffffffff1673ffffffffffffffffffffffffffffffffffffffff1663a74a3685836040518263ffffffff1660e01b8152600401612ead9190613f6c565b60206040518083038186803b158015612ec557600080fd5b505afa925050508015612ef657506040513d601f19601f82011682018060405250810190612ef391906136b5565b60015b612f9b573d8060008114612f26576040519150601f19603f3d011682016040523d82523d6000602084013e612f2b565b606091505b506000831415612f6057600160009054906101000a900473ffffffffffffffffffffffffffffffffffffffff16915050612fa0565b6040517f08c379a0000000000000000000000000000000000000000000000000000000008152600401612f9290613e6c565b60405180910390fd5b809150505b919050565b60008060026000857bffffffffffffffffffffffffffffffffffffffffffffffffffffffff19167bffffffffffffffffffffffffffffffffffffffffffffffffffffffff1916815260200190815260200160002060020154905060018111613042576040517f08c379a000000000000000000000000000000000000000000000000000000000815260040161303990613eec565b60405180910390fd5b428160036000877bffffffffffffffffffffffffffffffffffffffffffffffffffffffff19167bffffffffffffffffffffffffffffffffffffffffffffffffffffffff19168152602001908152602001600020546130a091906140b3565b1015613159578260026000867bffffffffffffffffffffffffffffffffffffffffffffffffffffffff19167bffffffffffffffffffffffffffffffffffffffffffffffffffffffff19168152602001908152602001600020600001819055503073ffffffffffffffffffffffffffffffffffffffff167fdf4e75032689f7eb5aa484fd13afa6a7f26466aa407be01c91153c976100587f8585604051613147929190613d0d565b60405180910390a2600191505061315f565b60009150505b92915050565b6000613170846122d8565b9050600060026000837bffffffffffffffffffffffffffffffffffffffffffffffffffffffff19167bffffffffffffffffffffffffffffffffffffffffffffffffffffffff191681526020019081526020016000206002015414613209576040517f08c379a000000000000000000000000000000000000000000000000000000000815260040161320090613ecc565b60405180910390fd5b60008214613217578161321a565b60015b915060405180606001604052808481526020018581526020018381525060026000837bffffffffffffffffffffffffffffffffffffffffffffffffffffffff19167bffffffffffffffffffffffffffffffffffffffffffffffffffffffff191681526020019081526020016000206000820151816000015560208201518160010190805190602001906132ae92919061344f565b50604082015181600201559050504260036000837bffffffffffffffffffffffffffffffffffffffffffffffffffffffff19167bffffffffffffffffffffffffffffffffffffffffffffffffffffffff19168152602001908152602001600020819055503073ffffffffffffffffffffffffffffffffffffffff167fcc182ad97b7e6767e6f1450d65d318e2dd9183580b6ef05d5d99800ec74602b285858560405161335c93929190613e2e565b60405180910390a29392505050565b60006004600084815260200190815260200160002060008373ffffffffffffffffffffffffffffffffffffffff1673ffffffffffffffffffffffffffffffffffffffff16815260200190815260200160002060009054906101000a900460ff16905092915050565b60006005600083815260200190815260200160002060070160009054906101000a900460ff169050919050565b60006005600083815260200190815260200160002060070160019054906101000a900460ff169050919050565b6040518060600160405280600390602082028036833780820191505090505090565b82805461345b90614207565b90600052602060002090601f01602090048101928261347d57600085556134c4565b82601f1061349657805160ff19168380011785556134c4565b828001600101855582156134c4579182015b828111156134c35782518255916020019190600101906134a8565b5b5090506134d19190613515565b5090565b8260038101928215613504579160200282015b828111156135035782518255916020019190600101906134e8565b5b5090506135119190613515565b5090565b5b8082111561352e576000816000905550600101613516565b5090565b60006135456135408461402e565b614009565b90508281526020810184848401111561355d57600080fd5b6135688482856141c5565b509392505050565b60008135905061357f81614552565b92915050565b60008151905061359481614552565b92915050565b6000813590506135a981614569565b92915050565b6000813590506135be81614580565b92915050565b6000813590506135d381614597565b92915050565b60008083601f8401126135eb57600080fd5b8235905067ffffffffffffffff81111561360457600080fd5b60208301915083600182028301111561361c57600080fd5b9250929050565b600082601f83011261363457600080fd5b8135613644848260208601613532565b91505092915050565b60008135905061365c816145a7565b92915050565b600081519050613671816145a7565b92915050565b600081359050613686816145be565b92915050565b60006020828403121561369e57600080fd5b60006136ac84828501613570565b91505092915050565b6000602082840312156136c757600080fd5b60006136d584828501613585565b91505092915050565b600080604083850312156136f157600080fd5b60006136ff85828601613570565b9250506020613710858286016135c4565b9150509250929050565b60006020828403121561372c57600080fd5b600061373a8482850161359a565b91505092915050565b6000806040838503121561375657600080fd5b60006137648582860161359a565b925050602061377585828601613570565b9150509250929050565b6000806040838503121561379257600080fd5b60006137a08582860161359a565b92505060206137b185828601613677565b9150509250929050565b6000602082840312156137cd57600080fd5b60006137db848285016135af565b91505092915050565b6000806000806000606086880312156137fc57600080fd5b600086013567ffffffffffffffff81111561381657600080fd5b613822888289016135d9565b9550955050602086013567ffffffffffffffff81111561384157600080fd5b61384d888289016135d9565b935093505060406138608882890161364d565b9150509295509295909350565b60006020828403121561387f57600080fd5b600082013567ffffffffffffffff81111561389957600080fd5b6138a584828501613623565b91505092915050565b6000602082840312156138c057600080fd5b60006138ce8482850161364d565b91505092915050565b6000602082840312156138e957600080fd5b60006138f784828501613662565b91505092915050565b600061390c8383613b94565b60208301905092915050565b6139218161413a565b82525050565b6139386139338261413a565b6142b3565b82525050565b61394781614069565b613951818461408c565b925061395c8261405f565b8060005b8381101561398d5781516139748782613900565b965061397f8361407f565b925050600181019050613960565b505050505050565b61399e8161414c565b82525050565b6139ad81614158565b82525050565b6139bc81614162565b82525050565b60006139ce8385614097565b93506139db8385846141c5565b6139e48361439d565b840190509392505050565b60006139fa82614074565b613a048185614097565b9350613a148185602086016141d4565b613a1d8161439d565b840191505092915050565b6000613a3382614074565b613a3d81856140a8565b9350613a4d8185602086016141d4565b80840191505092915050565b6000613a66601d83614097565b9150613a71826143bb565b602082019050919050565b6000613a89600b83614097565b9150613a94826143e4565b602082019050919050565b6000613aac600f83614097565b9150613ab78261440d565b602082019050919050565b6000613acf6002836140a8565b9150613ada82614436565b600282019050919050565b6000613af2601d83614097565b9150613afd8261445f565b602082019050919050565b6000613b15602183614097565b9150613b2082614488565b604082019050919050565b6000613b38600b83614097565b9150613b43826144d7565b602082019050919050565b6000613b5b600e83614097565b9150613b6682614500565b602082019050919050565b6000613b7e601083614097565b9150613b8982614529565b602082019050919050565b613b9d816141ae565b82525050565b613bac816141ae565b82525050565b613bc3613bbe826141ae565b6142d7565b82525050565b613bd2816141b8565b82525050565b6000613be48285613927565b601482019150613bf48284613bb2565b6020820191508190509392505050565b6000613c108284613a28565b9150613c1b82613ac2565b915081905092915050565b6000602082019050613c3b6000830184613918565b92915050565b6000606082019050613c56600083018461393e565b92915050565b6000602082019050613c716000830184613995565b92915050565b6000602082019050613c8c60008301846139a4565b92915050565b6000604082019050613ca760008301856139a4565b613cb46020830184613bc9565b9392505050565b6000606082019050613cd060008301866139a4565b613cdd6020830185613bc9565b613cea6040830184613ba3565b949350505050565b6000602082019050613d0760008301846139b3565b92915050565b6000604082019050613d2260008301856139b3565b613d2f6020830184613ba3565b9392505050565b60006080820190508181036000830152613d5181888a6139c2565b9050613d6060208301876139a4565b8181036040830152613d738185876139c2565b9050613d826060830184613ba3565b979650505050505050565b60006020820190508181036000830152613da781846139ef565b905092915050565b6000610120820190508181036000830152613dca818a6139ef565b90508181036020830152613dde81896139ef565b9050613ded6040830188613ba3565b613dfa6060830187613ba3565b613e07608083018661393e565b613e1460e0830185613bc9565b613e22610100830184613bc9565b98975050505050505050565b60006060820190508181036000830152613e4881866139ef565b9050613e576020830185613ba3565b613e646040830184613ba3565b949350505050565b60006020820190508181036000830152613e8581613a59565b9050919050565b60006020820190508181036000830152613ea581613a7c565b9050919050565b60006020820190508181036000830152613ec581613a9f565b9050919050565b60006020820190508181036000830152613ee581613ae5565b9050919050565b60006020820190508181036000830152613f0581613b08565b9050919050565b60006020820190508181036000830152613f2581613b2b565b9050919050565b60006020820190508181036000830152613f4581613b4e565b9050919050565b60006020820190508181036000830152613f6581613b71565b9050919050565b6000602082019050613f816000830184613ba3565b92915050565b6000606082019050613f9c6000830186613ba3565b8181036020830152613fae81856139ef565b9050613fbd6040830184613ba3565b949350505050565b6000604082019050613fda6000830185613ba3565b613fe76020830184613ba3565b9392505050565b60006020820190506140036000830184613bc9565b92915050565b6000614013614024565b905061401f8282614239565b919050565b6000604051905090565b600067ffffffffffffffff8211156140495761404861436e565b5b6140528261439d565b9050602081019050919050565b6000819050919050565b600060039050919050565b600081519050919050565b6000602082019050919050565b600081905092915050565b600082825260208201905092915050565b600081905092915050565b60006140be826141ae565b91506140c9836141ae565b9250827fffffffffffffffffffffffffffffffffffffffffffffffffffffffffffffffff038211156140fe576140fd6142e1565b5b828201905092915050565b6000614114826141ae565b915061411f836141ae565b92508261412f5761412e614310565b5b828204905092915050565b60006141458261418e565b9050919050565b60008115159050919050565b6000819050919050565b60007fffffffff0000000000000000000000000000000000000000000000000000000082169050919050565b600073ffffffffffffffffffffffffffffffffffffffff82169050919050565b6000819050919050565b600060ff82169050919050565b82818337600083830152505050565b60005b838110156141f25780820151818401526020810190506141d7565b83811115614201576000848401525b50505050565b6000600282049050600182168061421f57607f821691505b602082108114156142335761423261433f565b5b50919050565b6142428261439d565b810181811067ffffffffffffffff821117156142615761426061436e565b5b80604052505050565b6000614275826141ae565b91507fffffffffffffffffffffffffffffffffffffffffffffffffffffffffffffffff8214156142a8576142a76142e1565b5b600182019050919050565b60006142be826142c5565b9050919050565b60006142d0826143ae565b9050919050565b6000819050919050565b7f4e487b7100000000000000000000000000000000000000000000000000000000600052601160045260246000fd5b7f4e487b7100000000000000000000000000000000000000000000000000000000600052601260045260246000fd5b7f4e487b7100000000000000000000000000000000000000000000000000000000600052602260045260246000fd5b7f4e487b7100000000000000000000000000000000000000000000000000000000600052604160045260246000fd5b6000601f19601f8301169050919050565b60008160601b9050919050565b7f41657468657220436f6e7472616374204944204e6f7420526f75746564000000600082015250565b7f43616e6e6f7420766f7465000000000000000000000000000000000000000000600082015250565b7f50726f706f73616c204163746976650000000000000000000000000000000000600082015250565b7f2829000000000000000000000000000000000000000000000000000000000000600082015250565b7f54686973207661726961626c6520726566206973206f63637570696564000000600082015250565b7f54686973207661726961626c6520726566206973206e6f74206f63637570696560008201527f6400000000000000000000000000000000000000000000000000000000000000602082015250565b7f4f6e6c794d656d62657273000000000000000000000000000000000000000000600082015250565b7f726563757373696f6e2076696577000000000000000000000000000000000000600082015250565b7f5265666572656e63652065786973747300000000000000000000000000000000600082015250565b61455b8161413a565b811461456657600080fd5b50565b61457281614158565b811461457d57600080fd5b50565b61458981614162565b811461459457600080fd5b50565b600481106145a457600080fd5b50565b6145b0816141ae565b81146145bb57600080fd5b50565b6145c7816141b8565b81146145d257600080fd5b5056fea264697066735822122088b68fd7a93f0d1f77211e88136245f410e6918f9d11d6f6155cd8088c295bcb64736f6c63430008040033608060405234801561001057600080fd5b506136f0806100206000396000f3fe608060405234801561001057600080fd5b50600436106101e45760003560e01c80636d75b9ee1161010f578063a9059cbb116100a2578063dc60135211610071578063dc601352146105e3578063dd62ed3e14610601578063ec23823814610631578063eccda8df1461064f576101e4565b8063a9059cbb14610535578063b5cb22cf14610565578063c91f200b14610595578063d5abeb01146105c5576101e4565b806397fe8faf116100de57806397fe8faf14610475578063a240b9a8146104a5578063a457c2d7146104d5578063a74a368514610505576101e4565b80636d75b9ee146103ef57806370a082311461040b578063876467f81461043b57806395d89b4114610457576101e4565b806323b872dd1161018757806346f733f81161015657806346f733f8146103655780634a1eedf91461038357806350ef7d20146103b35780635fd1cf26146103d1576101e4565b806323b872dd146102cb578063313ce567146102fb578063395093511461031957806340c10f1914610349576101e4565b8063095ea7b3116101c3578063095ea7b31461022f5780630d40853e1461025f578063177a6ce51461028f57806318160ddd146102ad576101e4565b8062032235146101e957806306fdde03146101f3578063081dd5ff14610211575b600080fd5b6101f161066d565b005b6101fb610731565b6040516102089190612d22565b60405180910390f35b61021961076e565b6040516102269190612cec565b60405180910390f35b61024960048036038101906102449190612937565b610826565b6040516102569190612d07565b60405180910390f35b61027960048036038101906102749190612937565b61083d565b6040516102869190612d07565b60405180910390f35b6102976108c8565b6040516102a49190612cec565b60405180910390f35b6102b5610980565b6040516102c29190612f84565b60405180910390f35b6102e560048036038101906102e091906128e8565b61098a565b6040516102f29190612d07565b60405180910390f35b610303610a74565b6040516103109190612f9f565b60405180910390f35b610333600480360381019061032e9190612937565b610a7d565b6040516103409190612d07565b60405180910390f35b610363600480360381019061035e9190612937565b610b1b565b005b61036d610b29565b60405161037a9190612cec565b60405180910390f35b61039d60048036038101906103989190612937565b610be1565b6040516103aa9190612d07565b60405180910390f35b6103bb610c2e565b6040516103c89190612f84565b60405180910390f35b6103d9610c37565b6040516103e69190612cec565b60405180910390f35b61040960048036038101906104049190612937565b610cee565b005b6104256004803603810190610420919061285a565b610e94565b6040516104329190612f84565b60405180910390f35b61045560048036038101906104509190612937565b610edd565b005b61045f6111ac565b60405161046c9190612d22565b60405180910390f35b61048f600480360381019061048a919061285a565b6111e9565b60405161049c9190612d07565b60405180910390f35b6104bf60048036038101906104ba9190612937565b611318565b6040516104cc9190612d07565b60405180910390f35b6104ef60048036038101906104ea9190612937565b611421565b6040516104fc9190612d07565b60405180910390f35b61051f600480360381019061051a9190612973565b6114fe565b60405161052c9190612cec565b60405180910390f35b61054f600480360381019061054a9190612937565b61157f565b60405161055c9190612d07565b60405180910390f35b61057f600480360381019061057a91906128ac565b611596565b60405161058c9190612d07565b60405180910390f35b6105af60048036038101906105aa919061285a565b611621565b6040516105bc9190612d07565b60405180910390f35b6105cd6116aa565b6040516105da9190612f84565b60405180910390f35b6105eb6116bd565b6040516105f89190612cec565b60405180910390f35b61061b600480360381019061061691906128ac565b611775565b6040516106289190612f84565b60405180910390f35b6106396117fc565b6040516106469190612cec565b60405180910390f35b6106576118b4565b6040516106649190612cec565b60405180910390f35b610675610b29565b73ffffffffffffffffffffffffffffffffffffffff163373ffffffffffffffffffffffffffffffffffffffff16146106e2576040517f08c379a00000000000000000000000000000000000000000000000000000000081526004016106d990612da4565b60405180910390fd5b60006005546acecb8f27f4200f3a0000006106fd91906130b7565b905060648161070c919061302c565b905060058161071b919061305d565b905061072e610728610b29565b8261196c565b50565b60606040518060400160405280600d81526020017f3078416574686572546f6b656e00000000000000000000000000000000000000815250905090565b60003073ffffffffffffffffffffffffffffffffffffffff163373ffffffffffffffffffffffffffffffffffffffff1614156107df576040517f08c379a00000000000000000000000000000000000000000000000000000000081526004016107d690612f04565b60405180910390fd5b6108216001600681111561081c577f4e487b7100000000000000000000000000000000000000000000000000000000600052602160045260246000fd5b611ab5565b905090565b6000610833338484611c0a565b6001905092915050565b6000610847610b29565b73ffffffffffffffffffffffffffffffffffffffff163373ffffffffffffffffffffffffffffffffffffffff16146108b4576040517f08c379a00000000000000000000000000000000000000000000000000000000081526004016108ab90612da4565b60405180910390fd5b6108be8383611dd5565b6001905092915050565b60003073ffffffffffffffffffffffffffffffffffffffff163373ffffffffffffffffffffffffffffffffffffffff161415610939576040517f08c379a000000000000000000000000000000000000000000000000000000000815260040161093090612f04565b60405180910390fd5b61097b60046006811115610976577f4e487b7100000000000000000000000000000000000000000000000000000000600052602160045260246000fd5b611ab5565b905090565b6000600554905090565b6000610997848484611f68565b6000600360008673ffffffffffffffffffffffffffffffffffffffff1673ffffffffffffffffffffffffffffffffffffffff16815260200190815260200160002060003373ffffffffffffffffffffffffffffffffffffffff1673ffffffffffffffffffffffffffffffffffffffff16815260200190815260200160002054905082811015610a5b576040517f08c379a0000000000000000000000000000000000000000000000000000000008152600401610a5290612d84565b60405180910390fd5b610a688533858403611c0a565b60019150509392505050565b60006012905090565b6000610b11338484600360003373ffffffffffffffffffffffffffffffffffffffff1673ffffffffffffffffffffffffffffffffffffffff16815260200190815260200160002060008873ffffffffffffffffffffffffffffffffffffffff1673ffffffffffffffffffffffffffffffffffffffff16815260200190815260200160002054610b0c9190612fd6565b611c0a565b6001905092915050565b610b25828261196c565b5050565b60003073ffffffffffffffffffffffffffffffffffffffff163373ffffffffffffffffffffffffffffffffffffffff161415610b9a576040517f08c379a0000000000000000000000000000000000000000000000000000000008152600401610b9190612f04565b60405180910390fd5b610bdc60056006811115610bd7577f4e487b7100000000000000000000000000000000000000000000000000000000600052602160045260246000fd5b611ab5565b905090565b600081600260008573ffffffffffffffffffffffffffffffffffffffff1673ffffffffffffffffffffffffffffffffffffffff168152602001908152602001600020541015905092915050565b60008054905090565b60003073ffffffffffffffffffffffffffffffffffffffff163373ffffffffffffffffffffffffffffffffffffffff161415610ca8576040517f08c379a0000000000000000000000000000000000000000000000000000000008152600401610c9f90612f04565b60405180910390fd5b610ce9600680811115610ce4577f4e487b7100000000000000000000000000000000000000000000000000000000600052602160045260246000fd5b611ab5565b905090565b610cf6610b29565b73ffffffffffffffffffffffffffffffffffffffff163373ffffffffffffffffffffffffffffffffffffffff1614610d63576040517f08c379a0000000000000000000000000000000000000000000000000000000008152600401610d5a90612da4565b60405180910390fd5b80600260008473ffffffffffffffffffffffffffffffffffffffff1673ffffffffffffffffffffffffffffffffffffffff1681526020019081526020016000205411610de4576040517f08c379a0000000000000000000000000000000000000000000000000000000008152600401610ddb90612f24565b60405180910390fd5b80600260008473ffffffffffffffffffffffffffffffffffffffff1673ffffffffffffffffffffffffffffffffffffffff1681526020019081526020016000206000828254610e3391906130b7565b9250508190555080600460008473ffffffffffffffffffffffffffffffffffffffff1673ffffffffffffffffffffffffffffffffffffffff1681526020019081526020016000206000828254610e899190612fd6565b925050819055505050565b6000600260008373ffffffffffffffffffffffffffffffffffffffff1673ffffffffffffffffffffffffffffffffffffffff168152602001908152602001600020549050919050565b610ee5610b29565b73ffffffffffffffffffffffffffffffffffffffff163373ffffffffffffffffffffffffffffffffffffffff1614610f52576040517f08c379a0000000000000000000000000000000000000000000000000000000008152600401610f4990612da4565b60405180910390fd5b80600460008473ffffffffffffffffffffffffffffffffffffffff1673ffffffffffffffffffffffffffffffffffffffff1681526020019081526020016000205411610fd3576040517f08c379a0000000000000000000000000000000000000000000000000000000008152600401610fca90612e44565b60405180910390fd5b80600260008473ffffffffffffffffffffffffffffffffffffffff1673ffffffffffffffffffffffffffffffffffffffff16815260200190815260200160002060008282546110229190612fd6565b9250508190555080600460008473ffffffffffffffffffffffffffffffffffffffff1673ffffffffffffffffffffffffffffffffffffffff168152602001908152602001600020600082825461107891906130b7565b925050819055506000600460008473ffffffffffffffffffffffffffffffffffffffff1673ffffffffffffffffffffffffffffffffffffffff168152602001908152602001600020541461116357600460008373ffffffffffffffffffffffffffffffffffffffff1673ffffffffffffffffffffffffffffffffffffffff1681526020019081526020016000205460026000611112610b29565b73ffffffffffffffffffffffffffffffffffffffff1673ffffffffffffffffffffffffffffffffffffffff168152602001908152602001600020600082825461115b9190612fd6565b925050819055505b6000600460008473ffffffffffffffffffffffffffffffffffffffff1673ffffffffffffffffffffffffffffffffffffffff168152602001908152602001600020819055505050565b60606040518060400160405280600381526020017f3078410000000000000000000000000000000000000000000000000000000000815250905090565b60006111f3610b29565b73ffffffffffffffffffffffffffffffffffffffff163373ffffffffffffffffffffffffffffffffffffffff1614611260576040517f08c379a000000000000000000000000000000000000000000000000000000000815260040161125790612da4565b60405180910390fd5b60008061126b6116bd565b73ffffffffffffffffffffffffffffffffffffffff1663440e31986040518163ffffffff1660e01b8152600401604080518083038186803b1580156112af57600080fd5b505afa1580156112c3573d6000803e3d6000fd5b505050506040513d601f19601f820116820180604052508101906112e791906129c5565b9150915060006113006112f986610e94565b84846121d6565b905061130c858261223a565b60019350505050919050565b60006113226108c8565b73ffffffffffffffffffffffffffffffffffffffff163373ffffffffffffffffffffffffffffffffffffffff161461138f576040517f08c379a000000000000000000000000000000000000000000000000000000000815260040161138690612e64565b60405180910390fd5b611417838473ffffffffffffffffffffffffffffffffffffffff16638da5cb5b6040518163ffffffff1660e01b815260040160206040518083038186803b1580156113d957600080fd5b505afa1580156113ed573d6000803e3d6000fd5b505050506040513d601f19601f820116820180604052508101906114119190612883565b84611f68565b6001905092915050565b600080600360003373ffffffffffffffffffffffffffffffffffffffff1673ffffffffffffffffffffffffffffffffffffffff16815260200190815260200160002060008573ffffffffffffffffffffffffffffffffffffffff1673ffffffffffffffffffffffffffffffffffffffff168152602001908152602001600020549050828110156114e6576040517f08c379a00000000000000000000000000000000000000000000000000000000081526004016114dd90612dc4565b60405180910390fd5b6114f33385858403611c0a565b600191505092915050565b60003073ffffffffffffffffffffffffffffffffffffffff163373ffffffffffffffffffffffffffffffffffffffff16141561156f576040517f08c379a000000000000000000000000000000000000000000000000000000000815260040161156690612f04565b60405180910390fd5b61157882611ab5565b9050919050565b600061158c338484611f68565b6001905092915050565b60006115a06108c8565b73ffffffffffffffffffffffffffffffffffffffff163373ffffffffffffffffffffffffffffffffffffffff161461160d576040517f08c379a000000000000000000000000000000000000000000000000000000000815260040161160490612e64565b60405180910390fd5b611617838361233f565b6001905092915050565b600061162b6108c8565b73ffffffffffffffffffffffffffffffffffffffff163373ffffffffffffffffffffffffffffffffffffffff1614611698576040517f08c379a000000000000000000000000000000000000000000000000000000000815260040161168f90612e64565b60405180910390fd5b6116a182612565565b60019050919050565b60006acecb8f27f4200f3a000000905090565b60003073ffffffffffffffffffffffffffffffffffffffff163373ffffffffffffffffffffffffffffffffffffffff16141561172e576040517f08c379a000000000000000000000000000000000000000000000000000000000815260040161172590612f04565b60405180910390fd5b6117706002600681111561176b577f4e487b7100000000000000000000000000000000000000000000000000000000600052602160045260246000fd5b611ab5565b905090565b6000600360008473ffffffffffffffffffffffffffffffffffffffff1673ffffffffffffffffffffffffffffffffffffffff16815260200190815260200160002060008373ffffffffffffffffffffffffffffffffffffffff1673ffffffffffffffffffffffffffffffffffffffff16815260200190815260200160002054905092915050565b60003073ffffffffffffffffffffffffffffffffffffffff163373ffffffffffffffffffffffffffffffffffffffff16141561186d576040517f08c379a000000000000000000000000000000000000000000000000000000000815260040161186490612f04565b60405180910390fd5b6118af600060068111156118aa577f4e487b7100000000000000000000000000000000000000000000000000000000600052602160045260246000fd5b611ab5565b905090565b60003073ffffffffffffffffffffffffffffffffffffffff163373ffffffffffffffffffffffffffffffffffffffff161415611925576040517f08c379a000000000000000000000000000000000000000000000000000000000815260040161191c90612f04565b60405180910390fd5b61196760036006811115611962577f4e487b7100000000000000000000000000000000000000000000000000000000600052602160045260246000fd5b611ab5565b905090565b600073ffffffffffffffffffffffffffffffffffffffff168273ffffffffffffffffffffffffffffffffffffffff1614156119dc576040517f08c379a00000000000000000000000000000000000000000000000000000000081526004016119d390612d44565b60405180910390fd5b80600560008282546119ee9190612fd6565b9250508190555080600260008473ffffffffffffffffffffffffffffffffffffffff1673ffffffffffffffffffffffffffffffffffffffff1681526020019081526020016000206000828254611a449190612fd6565b925050819055508173ffffffffffffffffffffffffffffffffffffffff16600073ffffffffffffffffffffffffffffffffffffffff167fddf252ad1be2c89b69c2b068fc378daa952ba7f163c4a11628f55a4df523b3ef83604051611aa99190612f84565b60405180910390a35050565b6000600160009054906101000a900473ffffffffffffffffffffffffffffffffffffffff1673ffffffffffffffffffffffffffffffffffffffff1663a74a3685836040518263ffffffff1660e01b8152600401611b129190612f84565b60206040518083038186803b158015611b2a57600080fd5b505afa925050508015611b5b57506040513d601f19601f82011682018060405250810190611b589190612883565b60015b611c00573d8060008114611b8b576040519150601f19603f3d011682016040523d82523d6000602084013e611b90565b606091505b506000831415611bc557600160009054906101000a900473ffffffffffffffffffffffffffffffffffffffff16915050611c05565b6040517f08c379a0000000000000000000000000000000000000000000000000000000008152600401611bf790612d64565b60405180910390fd5b809150505b919050565b600073ffffffffffffffffffffffffffffffffffffffff168373ffffffffffffffffffffffffffffffffffffffff161415611c7a576040517f08c379a0000000000000000000000000000000000000000000000000000000008152600401611c7190612ec4565b60405180910390fd5b600073ffffffffffffffffffffffffffffffffffffffff168273ffffffffffffffffffffffffffffffffffffffff161415611cea576040517f08c379a0000000000000000000000000000000000000000000000000000000008152600401611ce190612f44565b60405180910390fd5b80600360008573ffffffffffffffffffffffffffffffffffffffff1673ffffffffffffffffffffffffffffffffffffffff16815260200190815260200160002060008473ffffffffffffffffffffffffffffffffffffffff1673ffffffffffffffffffffffffffffffffffffffff168152602001908152602001600020819055508173ffffffffffffffffffffffffffffffffffffffff168373ffffffffffffffffffffffffffffffffffffffff167f8c5be1e5ebec7d5bd14f71427d1e84f3dd0314c0f7b2291e5b200ac8c7c3b92583604051611dc89190612f84565b60405180910390a3505050565b600060026000611de3610b29565b73ffffffffffffffffffffffffffffffffffffffff1673ffffffffffffffffffffffffffffffffffffffff168152602001908152602001600020549050818111611e62576040517f08c379a0000000000000000000000000000000000000000000000000000000008152600401611e5990612de4565b60405180910390fd5b8160026000611e6f610b29565b73ffffffffffffffffffffffffffffffffffffffff1673ffffffffffffffffffffffffffffffffffffffff1681526020019081526020016000206000828254611eb891906130b7565b9250508190555081600260008573ffffffffffffffffffffffffffffffffffffffff1673ffffffffffffffffffffffffffffffffffffffff1681526020019081526020016000206000828254611f0e9190612fd6565b925050819055508273ffffffffffffffffffffffffffffffffffffffff167f4ea3e03797614006774acce32832fbaa20d9d69de554df367f4bb8a98b92e74283604051611f5b9190612f84565b60405180910390a2505050565b600073ffffffffffffffffffffffffffffffffffffffff168373ffffffffffffffffffffffffffffffffffffffff161415611fd8576040517f08c379a0000000000000000000000000000000000000000000000000000000008152600401611fcf90612f64565b60405180910390fd5b600073ffffffffffffffffffffffffffffffffffffffff168273ffffffffffffffffffffffffffffffffffffffff161415612048576040517f08c379a000000000000000000000000000000000000000000000000000000000815260040161203f90612e84565b60405180910390fd5b6000600260008573ffffffffffffffffffffffffffffffffffffffff1673ffffffffffffffffffffffffffffffffffffffff168152602001908152602001600020549050818110156120cf576040517f08c379a00000000000000000000000000000000000000000000000000000000081526004016120c690612e24565b60405180910390fd5b818103600260008673ffffffffffffffffffffffffffffffffffffffff1673ffffffffffffffffffffffffffffffffffffffff1681526020019081526020016000208190555081600260008573ffffffffffffffffffffffffffffffffffffffff1673ffffffffffffffffffffffffffffffffffffffff16815260200190815260200160002060008282546121649190612fd6565b925050819055508273ffffffffffffffffffffffffffffffffffffffff168473ffffffffffffffffffffffffffffffffffffffff167fddf252ad1be2c89b69c2b068fc378daa952ba7f163c4a11628f55a4df523b3ef846040516121c89190612f84565b60405180910390a350505050565b600082821161221a576040517f08c379a000000000000000000000000000000000000000000000000000000000815260040161221190612ea4565b60405180910390fd5b818385612227919061305d565b612231919061302c565b90509392505050565b80600260008473ffffffffffffffffffffffffffffffffffffffff1673ffffffffffffffffffffffffffffffffffffffff168152602001908152602001600020600082825461228991906130b7565b92505081905550806002600061229d610b29565b73ffffffffffffffffffffffffffffffffffffffff1673ffffffffffffffffffffffffffffffffffffffff16815260200190815260200160002060008282546122e69190612fd6565b925050819055508173ffffffffffffffffffffffffffffffffffffffff167faf983080775161b36d3a2fcc6e1584f8d8c5d63ba8870dd1009caeedf8d01c22826040516123339190612f84565b60405180910390a25050565b6000600260008473ffffffffffffffffffffffffffffffffffffffff1673ffffffffffffffffffffffffffffffffffffffff168152602001908152602001600020549050600061238d6116bd565b73ffffffffffffffffffffffffffffffffffffffff1663e3a073e96040518163ffffffff1660e01b815260040160206040518083038186803b1580156123d257600080fd5b505afa1580156123e6573d6000803e3d6000fd5b505050506040513d601f19601f8201168201806040525081019061240a919061299c565b905080821161244e576040517f08c379a000000000000000000000000000000000000000000000000000000000815260040161244590612e04565b60405180910390fd5b80600260008673ffffffffffffffffffffffffffffffffffffffff1673ffffffffffffffffffffffffffffffffffffffff168152602001908152602001600020600082825461249d91906130b7565b9250508190555080600260008573ffffffffffffffffffffffffffffffffffffffff1673ffffffffffffffffffffffffffffffffffffffff16815260200190815260200160002060008282546124f39190612fd6565b925050819055508273ffffffffffffffffffffffffffffffffffffffff168473ffffffffffffffffffffffffffffffffffffffff167f66ba56be8a4ac344c4d5b7deb75182bfb16ee83143d3ecf03354be7ac7225f2a836040516125579190612f84565b60405180910390a350505050565b60008173ffffffffffffffffffffffffffffffffffffffff16638da5cb5b6040518163ffffffff1660e01b815260040160206040518083038186803b1580156125ad57600080fd5b505afa1580156125c1573d6000803e3d6000fd5b505050506040513d601f19601f820116820180604052508101906125e59190612883565b905060008273ffffffffffffffffffffffffffffffffffffffff1663373d61326040518163ffffffff1660e01b815260040160206040518083038186803b15801561262f57600080fd5b505afa158015612643573d6000803e3d6000fd5b505050506040513d601f19601f82011682018060405250810190612667919061299c565b90506000600260008573ffffffffffffffffffffffffffffffffffffffff1673ffffffffffffffffffffffffffffffffffffffff1681526020019081526020016000205490508181116126ef576040517f08c379a00000000000000000000000000000000000000000000000000000000081526004016126e690612ee4565b60405180910390fd5b81600260008573ffffffffffffffffffffffffffffffffffffffff1673ffffffffffffffffffffffffffffffffffffffff168152602001908152602001600020600082825461273e9190612fd6565b9250508190555081600260008673ffffffffffffffffffffffffffffffffffffffff1673ffffffffffffffffffffffffffffffffffffffff168152602001908152602001600020600082825461279491906130b7565b925050819055508373ffffffffffffffffffffffffffffffffffffffff168373ffffffffffffffffffffffffffffffffffffffff167f8384127d408bcb598b8c2482d045f1eaf575c52d3332bd9f2a08c9b19b40de73846040516127f89190612f84565b60405180910390a350505050565b6000813590506128158161368c565b92915050565b60008151905061282a8161368c565b92915050565b60008135905061283f816136a3565b92915050565b600081519050612854816136a3565b92915050565b60006020828403121561286c57600080fd5b600061287a84828501612806565b91505092915050565b60006020828403121561289557600080fd5b60006128a38482850161281b565b91505092915050565b600080604083850312156128bf57600080fd5b60006128cd85828601612806565b92505060206128de85828601612806565b9150509250929050565b6000806000606084860312156128fd57600080fd5b600061290b86828701612806565b935050602061291c86828701612806565b925050604061292d86828701612830565b9150509250925092565b6000806040838503121561294a57600080fd5b600061295885828601612806565b925050602061296985828601612830565b9150509250929050565b60006020828403121561298557600080fd5b600061299384828501612830565b91505092915050565b6000602082840312156129ae57600080fd5b60006129bc84828501612845565b91505092915050565b600080604083850312156129d857600080fd5b60006129e685828601612845565b92505060206129f785828601612845565b9150509250929050565b612a0a816130eb565b82525050565b612a19816130fd565b82525050565b6000612a2a82612fba565b612a348185612fc5565b9350612a44818560208601613140565b612a4d816131d1565b840191505092915050565b6000612a65602583612fc5565b9150612a70826131e2565b604082019050919050565b6000612a88601d83612fc5565b9150612a9382613231565b602082019050919050565b6000612aab602e83612fc5565b9150612ab68261325a565b604082019050919050565b6000612ace600a83612fc5565b9150612ad9826132a9565b602082019050919050565b6000612af1602b83612fc5565b9150612afc826132d2565b604082019050919050565b6000612b14602d83612fc5565b9150612b1f82613321565b604082019050919050565b6000612b37603283612fc5565b9150612b4282613370565b604082019050919050565b6000612b5a602c83612fc5565b9150612b65826133bf565b604082019050919050565b6000612b7d601983612fc5565b9150612b888261340e565b602082019050919050565b6000612ba0600783612fc5565b9150612bab82613437565b602082019050919050565b6000612bc3602983612fc5565b9150612bce82613460565b604082019050919050565b6000612be6603383612fc5565b9150612bf1826134af565b604082019050919050565b6000612c09602a83612fc5565b9150612c14826134fe565b604082019050919050565b6000612c2c603683612fc5565b9150612c378261354d565b604082019050919050565b6000612c4f600e83612fc5565b9150612c5a8261359c565b602082019050919050565b6000612c72601583612fc5565b9150612c7d826135c5565b602082019050919050565b6000612c95602883612fc5565b9150612ca0826135ee565b604082019050919050565b6000612cb8602b83612fc5565b9150612cc38261363d565b604082019050919050565b612cd781613129565b82525050565b612ce681613133565b82525050565b6000602082019050612d016000830184612a01565b92915050565b6000602082019050612d1c6000830184612a10565b92915050565b60006020820190508181036000830152612d3c8184612a1f565b905092915050565b60006020820190508181036000830152612d5d81612a58565b9050919050565b60006020820190508181036000830152612d7d81612a7b565b9050919050565b60006020820190508181036000830152612d9d81612a9e565b9050919050565b60006020820190508181036000830152612dbd81612ac1565b9050919050565b60006020820190508181036000830152612ddd81612ae4565b9050919050565b60006020820190508181036000830152612dfd81612b07565b9050919050565b60006020820190508181036000830152612e1d81612b2a565b9050919050565b60006020820190508181036000830152612e3d81612b4d565b9050919050565b60006020820190508181036000830152612e5d81612b70565b9050919050565b60006020820190508181036000830152612e7d81612b93565b9050919050565b60006020820190508181036000830152612e9d81612bb6565b9050919050565b60006020820190508181036000830152612ebd81612bd9565b9050919050565b60006020820190508181036000830152612edd81612bfc565b9050919050565b60006020820190508181036000830152612efd81612c1f565b9050919050565b60006020820190508181036000830152612f1d81612c42565b9050919050565b60006020820190508181036000830152612f3d81612c65565b9050919050565b60006020820190508181036000830152612f5d81612c88565b9050919050565b60006020820190508181036000830152612f7d81612cab565b9050919050565b6000602082019050612f996000830184612cce565b92915050565b6000602082019050612fb46000830184612cdd565b92915050565b600081519050919050565b600082825260208201905092915050565b6000612fe182613129565b9150612fec83613129565b9250827fffffffffffffffffffffffffffffffffffffffffffffffffffffffffffffffff0382111561302157613020613173565b5b828201905092915050565b600061303782613129565b915061304283613129565b925082613052576130516131a2565b5b828204905092915050565b600061306882613129565b915061307383613129565b9250817fffffffffffffffffffffffffffffffffffffffffffffffffffffffffffffffff04831182151516156130ac576130ab613173565b5b828202905092915050565b60006130c282613129565b91506130cd83613129565b9250828210156130e0576130df613173565b5b828203905092915050565b60006130f682613109565b9050919050565b60008115159050919050565b600073ffffffffffffffffffffffffffffffffffffffff82169050919050565b6000819050919050565b600060ff82169050919050565b60005b8381101561315e578082015181840152602081019050613143565b8381111561316d576000848401525b50505050565b7f4e487b7100000000000000000000000000000000000000000000000000000000600052601160045260246000fd5b7f4e487b7100000000000000000000000000000000000000000000000000000000600052601260045260246000fd5b6000601f19601f8301169050919050565b7f416574686572546f6b656e3a206d696e7420746f20746865207a65726f20616460008201527f6472657373000000000000000000000000000000000000000000000000000000602082015250565b7f41657468657220436f6e7472616374204944204e6f7420526f75746564000000600082015250565b7f416574686572546f6b656e3a207472616e7366657220616d6f756e742065786360008201527f6565647320616c6c6f77616e6365000000000000000000000000000000000000602082015250565b7f4f6e6c794b656570657200000000000000000000000000000000000000000000600082015250565b7f416574686572546f6b656e3a2064656372656173656420616c6c6f77616e636560008201527f2062656c6f77207a65726f000000000000000000000000000000000000000000602082015250565b7f416574686572546f6b656e3a2054726561737572792063616e6e6f742072657760008201527f6172642063757272656e746c7900000000000000000000000000000000000000602082015250565b7f416574686572546f6b656e3a204e6f7420656e6f7567682062616c616e63652060008201527f746f20737570706f72742061207374616b650000000000000000000000000000602082015250565b7f416574686572546f6b656e3a207472616e7366657220616d6f756e742065786360008201527f656564732062616c616e63650000000000000000000000000000000000000000602082015250565b7f6c65737320636f6c6c61746572616c20617661696c61626c6500000000000000600082015250565b7f4f6e6c7948554200000000000000000000000000000000000000000000000000600082015250565b7f416574686572546f6b656e3a207472616e7366657220746f20746865207a657260008201527f6f20616464726573730000000000000000000000000000000000000000000000602082015250565b7f416574686572546f6b656e3a204465706c6574696f6e2064697669736f72206960008201527f73206e6f742073657420636f72726563746c7900000000000000000000000000602082015250565b7f416574686572546f6b656e3a20617070726f76652066726f6d20746865207a6560008201527f726f206164647265737300000000000000000000000000000000000000000000602082015250565b7f416574686572546f6b656e3a204e6f7420656e6f7567682062616c616e63652060008201527f696e20746865206e6f646520746f2072656c6561736500000000000000000000602082015250565b7f726563757373696f6e2076696577000000000000000000000000000000000000600082015250565b7f4e6f7420656e6f75676820636f6c6c61746572616c0000000000000000000000600082015250565b7f416574686572546f6b656e3a20617070726f766520746f20746865207a65726f60008201527f2061646472657373000000000000000000000000000000000000000000000000602082015250565b7f416574686572546f6b656e3a207472616e736665722066726f6d20746865207a60008201527f65726f2061646472657373000000000000000000000000000000000000000000602082015250565b613695816130eb565b81146136a057600080fd5b50565b6136ac81613129565b81146136b757600080fd5b5056fea26469706673582212209d9a05990a8a50c5beff139efbf4cbc5b6b9d927882c259e017354b5a81dd41464736f6c63430008040033",
  "linkReferences": {},
  "deployedLinkReferences": {}
}