{
  "_format": "hh-sol-artifact-1",
  "contractName": "Proposals",
  "sourceName": "contracts/DAO/Proposals/Proposals.sol",
  "abi": [
    {
      "anonymous": false,
      "inputs": [
        {
          "indexed": true,
          "internalType": "address",
          "name": "AetherDAO",
          "type": "address"
        },
        {
          "indexed": false,
          "internalType": "bytes32",
          "name": "ProposalReference",
          "type": "bytes32"
        },
        {
          "indexed": false,
          "internalType": "uint8",
          "name": "ProposalResolution",
          "type": "uint8"
        },
        {
          "indexed": false,
          "internalType": "uint256",
          "name": "ProposalVotes",
          "type": "uint256"
        }
      ],
      "name": "ConcludeProposal",
      "type": "event"
    },
    {
      "anonymous": false,
      "inputs": [
        {
          "indexed": true,
          "internalType": "address",
          "name": "AetherDAO",
          "type": "address"
        },
        {
          "indexed": true,
          "internalType": "address",
          "name": "Composer",
          "type": "address"
        },
        {
          "indexed": false,
          "internalType": "string",
          "name": "ProposalLink",
          "type": "string"
        },
        {
          "indexed": false,
          "internalType": "bytes32",
          "name": "ProposalReference",
          "type": "bytes32"
        },
        {
          "indexed": false,
          "internalType": "string",
          "name": "ProposalVariable",
          "type": "string"
        },
        {
          "indexed": false,
          "internalType": "uint256",
          "name": "ProposalValue",
          "type": "uint256"
        }
      ],
      "name": "InitiateProposal",
      "type": "event"
    },
    {
      "anonymous": false,
      "inputs": [
        {
          "indexed": true,
          "internalType": "address",
          "name": "AetherDAO",
          "type": "address"
        },
        {
          "indexed": false,
          "internalType": "string",
          "name": "VariableName",
          "type": "string"
        },
        {
          "indexed": false,
          "internalType": "uint256",
          "name": "VariableValue",
          "type": "uint256"
        },
        {
          "indexed": false,
          "internalType": "uint256",
          "name": "VariableOscillation",
          "type": "uint256"
        }
      ],
      "name": "VariableAdded",
      "type": "event"
    },
    {
      "anonymous": false,
      "inputs": [
        {
          "indexed": true,
          "internalType": "address",
          "name": "AetherDAO",
          "type": "address"
        },
        {
          "indexed": false,
          "internalType": "bytes4",
          "name": "VariableReference",
          "type": "bytes4"
        },
        {
          "indexed": false,
          "internalType": "uint256",
          "name": "VariableValue",
          "type": "uint256"
        }
      ],
      "name": "VariableChange",
      "type": "event"
    },
    {
      "anonymous": false,
      "inputs": [
        {
          "indexed": true,
          "internalType": "address",
          "name": "AetherDAO",
          "type": "address"
        },
        {
          "indexed": true,
          "internalType": "address",
          "name": "DAOMember",
          "type": "address"
        },
        {
          "indexed": false,
          "internalType": "bytes32",
          "name": "ProposalReference",
          "type": "bytes32"
        },
        {
          "indexed": false,
          "internalType": "uint8",
          "name": "voteType",
          "type": "uint8"
        }
      ],
      "name": "Vote",
      "type": "event"
    },
    {
      "inputs": [],
      "name": "aetherBonds",
      "outputs": [
        {
          "internalType": "address",
          "name": "",
          "type": "address"
        }
      ],
      "stateMutability": "view",
      "type": "function"
    },
    {
      "inputs": [],
      "name": "aetherDAO",
      "outputs": [
        {
          "internalType": "address",
          "name": "",
          "type": "address"
        }
      ],
      "stateMutability": "view",
      "type": "function"
    },
    {
      "inputs": [],
      "name": "aetherFactory",
      "outputs": [
        {
          "internalType": "address",
          "name": "",
          "type": "address"
        }
      ],
      "stateMutability": "view",
      "type": "function"
    },
    {
      "inputs": [],
      "name": "aetherHUB",
      "outputs": [
        {
          "internalType": "address",
          "name": "",
          "type": "address"
        }
      ],
      "stateMutability": "view",
      "type": "function"
    },
    {
      "inputs": [],
      "name": "aetherID",
      "outputs": [
        {
          "internalType": "uint256",
          "name": "",
          "type": "uint256"
        }
      ],
      "stateMutability": "view",
      "type": "function"
    },
    {
      "inputs": [],
      "name": "aetherKeeper",
      "outputs": [
        {
          "internalType": "address",
          "name": "",
          "type": "address"
        }
      ],
      "stateMutability": "view",
      "type": "function"
    },
    {
      "inputs": [],
      "name": "aetherRouter",
      "outputs": [
        {
          "internalType": "address",
          "name": "",
          "type": "address"
        }
      ],
      "stateMutability": "view",
      "type": "function"
    },
    {
      "inputs": [],
      "name": "aetherToken",
      "outputs": [
        {
          "internalType": "address",
          "name": "",
          "type": "address"
        }
      ],
      "stateMutability": "view",
      "type": "function"
    },
    {
      "inputs": [
        {
          "internalType": "bytes32",
          "name": "proposalReference",
          "type": "bytes32"
        }
      ],
      "name": "finalizeProposal",
      "outputs": [],
      "stateMutability": "nonpayable",
      "type": "function"
    },
    {
      "inputs": [
        {
          "internalType": "uint256",
          "name": "contractId",
          "type": "uint256"
        }
      ],
      "name": "getAetherAddress",
      "outputs": [
        {
          "internalType": "address",
          "name": "contractAddress",
          "type": "address"
        }
      ],
      "stateMutability": "view",
      "type": "function"
    },
    {
      "inputs": [
        {
          "internalType": "bytes4",
          "name": "varRef",
          "type": "bytes4"
        }
      ],
      "name": "getLastEdit",
      "outputs": [
        {
          "internalType": "uint256",
          "name": "",
          "type": "uint256"
        }
      ],
      "stateMutability": "view",
      "type": "function"
    },
    {
      "inputs": [
        {
          "internalType": "string",
          "name": "varName",
          "type": "string"
        }
      ],
      "name": "getLastEdit",
      "outputs": [
        {
          "internalType": "uint256",
          "name": "",
          "type": "uint256"
        }
      ],
      "stateMutability": "view",
      "type": "function"
    },
    {
      "inputs": [
        {
          "internalType": "bytes32",
          "name": "proposalReference",
          "type": "bytes32"
        }
      ],
      "name": "getProposal",
      "outputs": [
        {
          "internalType": "string",
          "name": "proposalLink",
          "type": "string"
        },
        {
          "internalType": "string",
          "name": "proposalVarName",
          "type": "string"
        },
        {
          "internalType": "uint256",
          "name": "proposalVarVal",
          "type": "uint256"
        },
        {
          "internalType": "uint256",
          "name": "proposalExpiry",
          "type": "uint256"
        },
        {
          "internalType": "uint256[3]",
          "name": "proposalVotes",
          "type": "uint256[3]"
        },
        {
          "internalType": "uint8",
          "name": "proposalStatus",
          "type": "uint8"
        },
        {
          "internalType": "uint8",
          "name": "ProposalResolution",
          "type": "uint8"
        }
      ],
      "stateMutability": "view",
      "type": "function"
    },
    {
      "inputs": [
        {
          "internalType": "bytes32",
          "name": "proposalReference",
          "type": "bytes32"
        }
      ],
      "name": "getProposalExpiry",
      "outputs": [
        {
          "internalType": "uint256",
          "name": "",
          "type": "uint256"
        }
      ],
      "stateMutability": "view",
      "type": "function"
    },
    {
      "inputs": [
        {
          "internalType": "uint256",
          "name": "proposalIndex",
          "type": "uint256"
        }
      ],
      "name": "getProposalReference",
      "outputs": [
        {
          "internalType": "bytes32",
          "name": "",
          "type": "bytes32"
        }
      ],
      "stateMutability": "view",
      "type": "function"
    },
    {
      "inputs": [
        {
          "internalType": "bytes32",
          "name": "proposalReference",
          "type": "bytes32"
        }
      ],
      "name": "getProposalResolution",
      "outputs": [
        {
          "internalType": "uint8",
          "name": "",
          "type": "uint8"
        }
      ],
      "stateMutability": "view",
      "type": "function"
    },
    {
      "inputs": [
        {
          "internalType": "bytes32",
          "name": "proposalReference",
          "type": "bytes32"
        }
      ],
      "name": "getProposalStatus",
      "outputs": [
        {
          "internalType": "uint8",
          "name": "",
          "type": "uint8"
        }
      ],
      "stateMutability": "view",
      "type": "function"
    },
    {
      "inputs": [
        {
          "internalType": "bytes32",
          "name": "proposalReference",
          "type": "bytes32"
        }
      ],
      "name": "getProposalVotes",
      "outputs": [
        {
          "internalType": "uint256[3]",
          "name": "",
          "type": "uint256[3]"
        }
      ],
      "stateMutability": "view",
      "type": "function"
    },
    {
      "inputs": [
        {
          "internalType": "string",
          "name": "varName",
          "type": "string"
        }
      ],
      "name": "getVar",
      "outputs": [
        {
          "internalType": "uint256",
          "name": "variableValue",
          "type": "uint256"
        },
        {
          "internalType": "string",
          "name": "variableName",
          "type": "string"
        },
        {
          "internalType": "uint256",
          "name": "variableOsc",
          "type": "uint256"
        }
      ],
      "stateMutability": "view",
      "type": "function"
    },
    {
      "inputs": [
        {
          "internalType": "bytes4",
          "name": "varRef",
          "type": "bytes4"
        }
      ],
      "name": "getVar",
      "outputs": [
        {
          "internalType": "uint256",
          "name": "variableValue",
          "type": "uint256"
        },
        {
          "internalType": "string",
          "name": "variableName",
          "type": "string"
        },
        {
          "internalType": "uint256",
          "name": "variableOsc",
          "type": "uint256"
        }
      ],
      "stateMutability": "view",
      "type": "function"
    },
    {
      "inputs": [
        {
          "internalType": "bytes4",
          "name": "varRef",
          "type": "bytes4"
        }
      ],
      "name": "getVarName",
      "outputs": [
        {
          "internalType": "string",
          "name": "",
          "type": "string"
        }
      ],
      "stateMutability": "view",
      "type": "function"
    },
    {
      "inputs": [
        {
          "internalType": "string",
          "name": "varName",
          "type": "string"
        }
      ],
      "name": "getVarRef",
      "outputs": [
        {
          "internalType": "bytes4",
          "name": "",
          "type": "bytes4"
        }
      ],
      "stateMutability": "pure",
      "type": "function"
    },
    {
      "inputs": [
        {
          "internalType": "string",
          "name": "varName",
          "type": "string"
        }
      ],
      "name": "getVarVal",
      "outputs": [
        {
          "internalType": "uint256",
          "name": "",
          "type": "uint256"
        }
      ],
      "stateMutability": "view",
      "type": "function"
    },
    {
      "inputs": [
        {
          "internalType": "bytes4",
          "name": "varRef",
          "type": "bytes4"
        }
      ],
      "name": "getVarVal",
      "outputs": [
        {
          "internalType": "uint256",
          "name": "",
          "type": "uint256"
        }
      ],
      "stateMutability": "view",
      "type": "function"
    },
    {
      "inputs": [],
      "name": "holderThreshold",
      "outputs": [
        {
          "internalType": "uint256",
          "name": "",
          "type": "uint256"
        }
      ],
      "stateMutability": "view",
      "type": "function"
    },
    {
      "inputs": [
        {
          "internalType": "address",
          "name": "_addr",
          "type": "address"
        }
      ],
      "name": "isDAOMember",
      "outputs": [
        {
          "internalType": "bool",
          "name": "",
          "type": "bool"
        }
      ],
      "stateMutability": "view",
      "type": "function"
    },
    {
      "inputs": [
        {
          "internalType": "address",
          "name": "_addr",
          "type": "address"
        }
      ],
      "name": "isDAOPartner",
      "outputs": [
        {
          "internalType": "bool",
          "name": "",
          "type": "bool"
        }
      ],
      "stateMutability": "view",
      "type": "function"
    },
    {
      "inputs": [
        {
          "internalType": "address",
          "name": "_addr",
          "type": "address"
        }
      ],
      "name": "isHolder",
      "outputs": [
        {
          "internalType": "bool",
          "name": "",
          "type": "bool"
        }
      ],
      "stateMutability": "view",
      "type": "function"
    },
    {
      "inputs": [
        {
          "internalType": "address",
          "name": "_addr",
          "type": "address"
        }
      ],
      "name": "isNodeOwner",
      "outputs": [
        {
          "internalType": "bool",
          "name": "",
          "type": "bool"
        }
      ],
      "stateMutability": "view",
      "type": "function"
    },
    {
      "inputs": [
        {
          "internalType": "bytes32",
          "name": "proposalReference",
          "type": "bytes32"
        }
      ],
      "name": "isProposalActive",
      "outputs": [
        {
          "internalType": "bool",
          "name": "",
          "type": "bool"
        }
      ],
      "stateMutability": "view",
      "type": "function"
    },
    {
      "inputs": [
        {
          "internalType": "address",
          "name": "_addr",
          "type": "address"
        }
      ],
      "name": "isTreasuryPartner",
      "outputs": [
        {
          "internalType": "bool",
          "name": "",
          "type": "bool"
        }
      ],
      "stateMutability": "view",
      "type": "function"
    },
    {
      "inputs": [
        {
          "internalType": "bytes32",
          "name": "proposalReference",
          "type": "bytes32"
        },
        {
          "internalType": "address",
          "name": "voter",
          "type": "address"
        }
      ],
      "name": "memberVote",
      "outputs": [
        {
          "internalType": "uint8",
          "name": "",
          "type": "uint8"
        }
      ],
      "stateMutability": "view",
      "type": "function"
    },
    {
      "inputs": [
        {
          "internalType": "address",
          "name": "_addr",
          "type": "address"
        },
        {
          "internalType": "enum IMemberships.Membership",
          "name": "_membership",
          "type": "uint8"
        }
      ],
      "name": "membershipFor",
      "outputs": [
        {
          "internalType": "bool",
          "name": "",
          "type": "bool"
        }
      ],
      "stateMutability": "view",
      "type": "function"
    },
    {
      "inputs": [],
      "name": "nodeThreshold",
      "outputs": [
        {
          "internalType": "uint256",
          "name": "",
          "type": "uint256"
        }
      ],
      "stateMutability": "view",
      "type": "function"
    },
    {
      "inputs": [],
      "name": "proposalTime",
      "outputs": [
        {
          "internalType": "uint256",
          "name": "",
          "type": "uint256"
        }
      ],
      "stateMutability": "view",
      "type": "function"
    },
    {
      "inputs": [],
      "name": "proposalsCount",
      "outputs": [
        {
          "internalType": "uint256",
          "name": "",
          "type": "uint256"
        }
      ],
      "stateMutability": "view",
      "type": "function"
    },
    {
      "inputs": [
        {
          "internalType": "string",
          "name": "proposalLink",
          "type": "string"
        },
        {
          "internalType": "string",
          "name": "proposalVarName",
          "type": "string"
        },
        {
          "internalType": "uint256",
          "name": "proposalVal",
          "type": "uint256"
        }
      ],
      "name": "submitProposal",
      "outputs": [
        {
          "internalType": "bytes32",
          "name": "proposalReference",
          "type": "bytes32"
        }
      ],
      "stateMutability": "nonpayable",
      "type": "function"
    },
    {
      "inputs": [],
      "name": "treasuryThreshold",
      "outputs": [
        {
          "internalType": "uint256",
          "name": "",
          "type": "uint256"
        }
      ],
      "stateMutability": "view",
      "type": "function"
    },
    {
      "inputs": [
        {
          "internalType": "bytes4",
          "name": "varRef",
          "type": "bytes4"
        }
      ],
      "name": "varExists",
      "outputs": [
        {
          "internalType": "bool",
          "name": "",
          "type": "bool"
        }
      ],
      "stateMutability": "view",
      "type": "function"
    },
    {
      "inputs": [
        {
          "internalType": "string",
          "name": "varName",
          "type": "string"
        }
      ],
      "name": "varExists",
      "outputs": [
        {
          "internalType": "bool",
          "name": "",
          "type": "bool"
        }
      ],
      "stateMutability": "view",
      "type": "function"
    },
    {
      "inputs": [
        {
          "internalType": "bytes32",
          "name": "proposalReference",
          "type": "bytes32"
        },
        {
          "internalType": "uint8",
          "name": "proposalVote",
          "type": "uint8"
        }
      ],
      "name": "voteOnProposal",
      "outputs": [],
      "stateMutability": "nonpayable",
      "type": "function"
    }
  ],
  "bytecode": "0x60806040523480156200001157600080fd5b50620000606040518060400160405280600c81526020017f70726f706f73616c54696d650000000000000000000000000000000000000000815250620a0668622819a06200055060201b60201c565b50620000ad6040518060400160405280601081526020017f7369676e6572735468726573686f6c6400000000000000000000000000000000815250600262140cd06200055060201b60201c565b50620001046040518060400160405280600d81526020017f6e6f64655468726573686f6c64000000000000000000000000000000000000008152506a084595161401484a00000062784ce06200055060201b60201c565b50620001546040518060400160405280600f81526020017f6e6f64655374616b696e6754696d6500000000000000000000000000000000008152506301e1338062784ce06200055060201b60201c565b50620001a36040518060400160405280601081526020017f626f6e644d6174757269747954696d6500000000000000000000000000000000815250626ebe0062784ce06200055060201b60201c565b50620001ed6040518060400160405280601481526020017f7472616e73616374696f6e5468726573686f6c640000000000000000000000008152504560006200055060201b60201c565b50620002416040518060400160405280600f81526020017f686f6c6465725468726573686f6c64000000000000000000000000000000000081525069d3c21bcecceda100000060006200055060201b60201c565b506200028e6040518060400160405280600f81526020017f7265776172647354726561737572790000000000000000000000000000000000815250603c62140cd06200055060201b60201c565b50620002db6040518060400160405280601181526020017f74726561737572795468726573686f6c64000000000000000000000000000000815250600162784ce06200055060201b60201c565b50620003266040518060400160405280601381526020017f6465706c6574696f6e4d756c7469706c69657200000000000000000000000000815250603260006200055060201b60201c565b50620003716040518060400160405280601081526020017f6465706c6574696f6e44697669736f7200000000000000000000000000000000815250606460006200055060201b60201c565b50620003be6040518060400160405280600c81526020017f7265776172644c6564676572000000000000000000000000000000000000000081525060056203f4806200055060201b60201c565b506200040b6040518060400160405280600881526020017f67617350726963650000000000000000000000000000000000000000000000008152506023620151806200055060201b60201c565b50620004626040518060400160405280600981526020017f74617267657447617300000000000000000000000000000000000000000000008152506c0c9f2c9cd04674edea4000000060006200055060201b60201c565b50620004af6040518060400160405280601281526020017f7461726765745472616e73616374696f6e7300000000000000000000000000008152506298968060006200055060201b60201c565b50620004fc6040518060400160405280600681526020017f4d61784250420000000000000000000000000000000000000000000000000000815250600a620151806200055060201b60201c565b50620005496040518060400160405280600681526020017f4d617854504200000000000000000000000000000000000000000000000000008152506003620151806200055060201b60201c565b5062000adb565b600062000563846200076760201b60201c565b9050600060026000837bffffffffffffffffffffffffffffffffffffffffffffffffffffffff19167bffffffffffffffffffffffffffffffffffffffffffffffffffffffff191681526020019081526020016000206002015414620005ff576040517f08c379a0000000000000000000000000000000000000000000000000000000008152600401620005f6906200098a565b60405180910390fd5b600082146200060f578162000612565b60015b915060405180606001604052808481526020018581526020018381525060026000837bffffffffffffffffffffffffffffffffffffffffffffffffffffffff19167bffffffffffffffffffffffffffffffffffffffffffffffffffffffff19168152602001908152602001600020600082015181600001556020820151816001019080519060200190620006a892919062000799565b50604082015181600201559050504260036000837bffffffffffffffffffffffffffffffffffffffffffffffffffffffff19167bffffffffffffffffffffffffffffffffffffffffffffffffffffffff19168152602001908152602001600020819055503073ffffffffffffffffffffffffffffffffffffffff167fcc182ad97b7e6767e6f1450d65d318e2dd9183580b6ef05d5d99800ec74602b2858585604051620007589392919062000946565b60405180910390a29392505050565b6000816040516020016200077c919062000920565b604051602081830303815290604052805190602001209050919050565b828054620007a79062000a13565b90600052602060002090601f016020900481019282620007cb576000855562000817565b82601f10620007e657805160ff191683800117855562000817565b8280016001018555821562000817579182015b8281111562000816578251825591602001919060010190620007f9565b5b5090506200082691906200082a565b5090565b5b80821115620008455760008160009055506001016200082b565b5090565b60006200085682620009ac565b620008628185620009b7565b935062000874818560208601620009dd565b6200087f8162000a78565b840191505092915050565b60006200089782620009ac565b620008a38185620009c8565b9350620008b5818560208601620009dd565b80840191505092915050565b6000620008d0600283620009c8565b9150620008dd8262000a89565b600282019050919050565b6000620008f7601d83620009b7565b9150620009048262000ab2565b602082019050919050565b6200091a81620009d3565b82525050565b60006200092e82846200088a565b91506200093b82620008c1565b915081905092915050565b6000606082019050818103600083015262000962818662000849565b90506200097360208301856200090f565b6200098260408301846200090f565b949350505050565b60006020820190508181036000830152620009a581620008e8565b9050919050565b600081519050919050565b600082825260208201905092915050565b600081905092915050565b6000819050919050565b60005b83811015620009fd578082015181840152602081019050620009e0565b8381111562000a0d576000848401525b50505050565b6000600282049050600182168062000a2c57607f821691505b6020821081141562000a435762000a4262000a49565b5b50919050565b7f4e487b7100000000000000000000000000000000000000000000000000000000600052602260045260246000fd5b6000601f19601f8301169050919050565b7f2829000000000000000000000000000000000000000000000000000000000000600082015250565b7f54686973207661726961626c6520726566206973206f63637570696564000000600082015250565b6141328062000aeb6000396000f3fe608060405234801561001057600080fd5b50600436106102535760003560e01c806376aa7e6f11610146578063b3b005de116100c3578063d4d7b19a11610087578063d4d7b19a14610828578063da7095f514610858578063dc60135214610888578063e3a073e9146108a6578063ec238238146108c4578063eccda8df146108e257610253565b8063b3b005de1461074a578063ba8554c71461077a578063ba859643146107aa578063bfdb74f0146107c8578063bff28ea8146107f857610253565b80639fa59f001161010a5780639fa59f001461065a578063a29671841461068a578063a41a32e4146106ba578063a74a3685146106ea578063b1e44d8f1461071a57610253565b806376aa7e6f14610590578063779994f3146105ac5780637bf45933146105ca57806393dfd045146105fa5780639ddd6c831461062a57610253565b806343d9d564116101d4578063513404291161019857806351340429146104b05780635fd1cf26146104e0578063689051f2146104fe5780636a0db437146105305780636ebd065a1461056057610253565b806343d9d564146103f857806346f733f81461042857806347d0da14146104465780635096c4391461046257806350ef7d201461049257610253565b80631e4433c41161021b5780631e4433c4146103005780631ecc918614610332578063206dffa014610362578063388c5a9614610392578063430694cf146103c257610253565b8063081dd5ff146102585780630a9f46ad1461027657806315f7aaab14610294578063177a6ce5146102c4578063184a0ae9146102e2575b600080fd5b610260610900565b60405161026d91906137d6565b60405180910390f35b61027e6109b8565b60405161028b9190613b1c565b60405180910390f35b6102ae60048036038101906102a9919061323c565b6109be565b6040516102bb919061380c565b60405180910390f35b6102cc610a60565b6040516102d991906137d6565b60405180910390f35b6102ea610b18565b6040516102f79190613b1c565b60405180910390f35b61031a6004803603810190610315919061341d565b610b2f565b60405161032993929190613b37565b60405180910390f35b61034c6004803603810190610347919061336b565b610b53565b604051610359919061393d565b60405180910390f35b61037c6004803603810190610377919061341d565b610c39565b6040516103899190613b1c565b60405180910390f35b6103ac60048036038101906103a7919061323c565b610c53565b6040516103b9919061380c565b60405180910390f35b6103dc60048036038101906103d791906132ca565b610cf5565b6040516103ef979695949392919061395f565b60405180910390f35b610412600480360381019061040d919061345e565b611060565b60405161041f9190613827565b60405180910390f35b610430611092565b60405161043d91906137d6565b60405180910390f35b610460600480360381019061045b91906132ca565b61114a565b005b61047c6004803603810190610477919061336b565b6116b9565b604051610489919061380c565b60405180910390f35b61049a61171a565b6040516104a79190613b1c565b60405180910390f35b6104ca60048036038101906104c5919061336b565b611723565b6040516104d79190613b1c565b60405180910390f35b6104e8611781565b6040516104f591906137d6565b60405180910390f35b6105186004803603810190610513919061336b565b611838565b60405161052793929190613b37565b60405180910390f35b61054a600480360381019061054591906132f3565b611960565b6040516105579190613b75565b60405180910390f35b61057a6004803603810190610575919061336b565b6119ac565b6040516105879190613b1c565b60405180910390f35b6105aa60048036038101906105a5919061332f565b611a07565b005b6105b4611e8c565b6040516105c19190613b1c565b60405180910390f35b6105e460048036038101906105df919061341d565b611ea3565b6040516105f19190613b1c565b60405180910390f35b610614600480360381019061060f91906132ca565b611ebd565b6040516106219190613b75565b60405180910390f35b610644600480360381019061063f919061341d565b611f07565b604051610651919061380c565b60405180910390f35b610674600480360381019061066f919061341d565b611f21565b60405161068191906138a2565b60405180910390f35b6106a4600480360381019061069f91906132ca565b611f51565b6040516106b1919061380c565b60405180910390f35b6106d460048036038101906106cf91906132ca565b611f73565b6040516106e19190613b1c565b60405180910390f35b61070460048036038101906106ff919061345e565b611f93565b60405161071191906137d6565b60405180910390f35b610734600480360381019061072f919061323c565b612014565b604051610741919061380c565b60405180910390f35b610764600480360381019061075f919061328e565b612046565b604051610771919061380c565b60405180910390f35b610794600480360381019061078f9190613394565b6121ed565b6040516107a19190613827565b60405180910390f35b6107b261263b565b6040516107bf9190613b1c565b60405180910390f35b6107e260048036038101906107dd91906132ca565b612652565b6040516107ef9190613b75565b60405180910390f35b610812600480360381019061080d91906132ca565b61269c565b60405161081f91906137f1565b60405180910390f35b610842600480360381019061083d919061323c565b6126fd565b60405161084f919061380c565b60405180910390f35b610872600480360381019061086d919061323c565b61279f565b60405161087f919061380c565b60405180910390f35b6108906127c1565b60405161089d91906137d6565b60405180910390f35b6108ae612879565b6040516108bb9190613b1c565b60405180910390f35b6108cc612890565b6040516108d991906137d6565b60405180910390f35b6108ea612948565b6040516108f791906137d6565b60405180910390f35b60003073ffffffffffffffffffffffffffffffffffffffff163373ffffffffffffffffffffffffffffffffffffffff161415610971576040517f08c379a000000000000000000000000000000000000000000000000000000000815260040161096890613adc565b60405180910390fd5b6109b3600160068111156109ae577f4e487b7100000000000000000000000000000000000000000000000000000000600052602160045260246000fd5b612a00565b905090565b60065481565b60006109c8612879565b6109d0611092565b73ffffffffffffffffffffffffffffffffffffffff1663d217838c846040518263ffffffff1660e01b8152600401610a0891906137d6565b60206040518083038186803b158015610a2057600080fd5b505afa158015610a34573d6000803e3d6000fd5b505050506040513d601f19601f82011682018060405250810190610a589190613487565b119050919050565b60003073ffffffffffffffffffffffffffffffffffffffff163373ffffffffffffffffffffffffffffffffffffffff161415610ad1576040517f08c379a0000000000000000000000000000000000000000000000000000000008152600401610ac890613adc565b60405180910390fd5b610b1360046006811115610b0e577f4e487b7100000000000000000000000000000000000000000000000000000000600052602160045260246000fd5b612a00565b905090565b6000610b2a63184a0ae960e01b611723565b905090565b600060606000610b46610b4185611f21565b611838565b9250925092509193909250565b606060026000837bffffffffffffffffffffffffffffffffffffffffffffffffffffffff19167bffffffffffffffffffffffffffffffffffffffffffffffffffffffff191681526020019081526020016000206001018054610bb490613d5d565b80601f0160208091040260200160405190810160405280929190818152602001828054610be090613d5d565b8015610c2d5780601f10610c0257610100808354040283529160200191610c2d565b820191906000526020600020905b815481529060010190602001808311610c1057829003601f168201915b50505050509050919050565b6000610c4c610c4783611f21565b611723565b9050919050565b6000610c5d61263b565b610c65611092565b73ffffffffffffffffffffffffffffffffffffffff166370a08231846040518263ffffffff1660e01b8152600401610c9d91906137d6565b60206040518083038186803b158015610cb557600080fd5b505afa158015610cc9573d6000803e3d6000fd5b505050506040513d601f19601f82011682018060405250810190610ced9190613487565b119050919050565b606080600080610d03612fdd565b6000806000600560008a81526020019081526020016000206040518060e0016040529081600082018054610d3690613d5d565b80601f0160208091040260200160405190810160405280929190818152602001828054610d6290613d5d565b8015610daf5780601f10610d8457610100808354040283529160200191610daf565b820191906000526020600020905b815481529060010190602001808311610d9257829003601f168201915b50505050508152602001600182018054610dc890613d5d565b80601f0160208091040260200160405190810160405280929190818152602001828054610df490613d5d565b8015610e415780601f10610e1657610100808354040283529160200191610e41565b820191906000526020600020905b815481529060010190602001808311610e2457829003601f168201915b50505050508152602001600282015481526020016003820154815260200160048201600380602002604051908101604052809291908260038015610e9a576020028201915b815481526020019060010190808311610e86575b505050505081526020016007820160009054906101000a900460ff166002811115610eee577f4e487b7100000000000000000000000000000000000000000000000000000000600052602160045260246000fd5b6002811115610f26577f4e487b7100000000000000000000000000000000000000000000000000000000600052602160045260246000fd5b81526020016007820160019054906101000a900460ff166003811115610f75577f4e487b7100000000000000000000000000000000000000000000000000000000600052602160045260246000fd5b6003811115610fad577f4e487b7100000000000000000000000000000000000000000000000000000000600052602160045260246000fd5b815250509050806000015181602001518260400151836060015184608001518560a001516002811115611009577f4e487b7100000000000000000000000000000000000000000000000000000000600052602160045260246000fd5b8660c001516003811115611046577f4e487b7100000000000000000000000000000000000000000000000000000000600052602160045260246000fd5b975097509750975097509750975050919395979092949650565b60003082604051602001611075929190613788565b604051602081830303815290604052805190602001209050919050565b60003073ffffffffffffffffffffffffffffffffffffffff163373ffffffffffffffffffffffffffffffffffffffff161415611103576040517f08c379a00000000000000000000000000000000000000000000000000000000081526004016110fa90613adc565b60405180910390fd5b61114560056006811115611140577f4e487b7100000000000000000000000000000000000000000000000000000000600052602160045260246000fd5b612a00565b905090565b61115333612014565b611192576040517f08c379a000000000000000000000000000000000000000000000000000000000815260040161118990613abc565b60405180910390fd5b60006005600083815260200190815260200160002090506000806000428460030154106111f4576040517f08c379a00000000000000000000000000000000000000000000000000000000081526004016111eb90613a5c565b60405180910390fd5b6001600281111561122e577f4e487b7100000000000000000000000000000000000000000000000000000000600052602160045260246000fd5b8460070160009054906101000a900460ff166002811115611278577f4e487b7100000000000000000000000000000000000000000000000000000000600052602160045260246000fd5b1461128257600080fd5b60028460070160006101000a81548160ff021916908360028111156112d0577f4e487b7100000000000000000000000000000000000000000000000000000000600052602160045260246000fd5b021790555060005b60038110156113ff5784600401816003811061131d577f4e487b7100000000000000000000000000000000000000000000000000000000600052603260045260246000fd5b01548261132a9190613c3a565b915082856004018260038110611369577f4e487b7100000000000000000000000000000000000000000000000000000000600052603260045260246000fd5b0154106113ec578460040181600381106113ac577f4e487b7100000000000000000000000000000000000000000000000000000000600052603260045260246000fd5b015492508060038111156113e9577f4e487b7100000000000000000000000000000000000000000000000000000000600052602160045260246000fd5b93505b80806113f790613dc0565b9150506112d8565b50828460070160016101000a81548160ff0219169083600381111561144d577f4e487b7100000000000000000000000000000000000000000000000000000000600052602160045260246000fd5b021790555060006114e985600101805461146690613d5d565b80601f016020809104026020016040519081016040528092919081815260200182805461149290613d5d565b80156114df5780601f106114b4576101008083540402835291602001916114df565b820191906000526020600020905b8154815290600101906020018083116114c257829003601f168201915b5050505050611f21565b905060016003811115611525577f4e487b7100000000000000000000000000000000000000000000000000000000600052602160045260246000fd5b84600381111561155e577f4e487b7100000000000000000000000000000000000000000000000000000000600052602160045260246000fd5b148015611570575061156f816116b9565b5b1561158957611583818660020154612b55565b50611627565b61162585600101805461159b90613d5d565b80601f01602080910402602001604051908101604052809291908181526020018280546115c790613d5d565b80156116145780601f106115e957610100808354040283529160200191611614565b820191906000526020600020905b8154815290600101906020018083116115f757829003601f168201915b505050505086600201546000612d15565b505b3073ffffffffffffffffffffffffffffffffffffffff167f3ef6e858845d9baa790ccd5489a023dcffcf6c8aa921c9e7077f78b631bac7e087866003811115611699577f4e487b7100000000000000000000000000000000000000000000000000000000600052602160045260246000fd5b856040516116a99392919061386b565b60405180910390a2505050505050565b60008060026000847bffffffffffffffffffffffffffffffffffffffffffffffffffffffff19167bffffffffffffffffffffffffffffffffffffffffffffffffffffffff191681526020019081526020016000206002015414159050919050565b60008054905090565b600060026000837bffffffffffffffffffffffffffffffffffffffffffffffffffffffff19167bffffffffffffffffffffffffffffffffffffffffffffffffffffffff19168152602001908152602001600020600001549050919050565b60003073ffffffffffffffffffffffffffffffffffffffff163373ffffffffffffffffffffffffffffffffffffffff1614156117f2576040517f08c379a00000000000000000000000000000000000000000000000000000000081526004016117e990613adc565b60405180910390fd5b61183360068081111561182e577f4e487b7100000000000000000000000000000000000000000000000000000000600052602160045260246000fd5b612a00565b905090565b6000606060008060026000867bffffffffffffffffffffffffffffffffffffffffffffffffffffffff19167bffffffffffffffffffffffffffffffffffffffffffffffffffffffff19168152602001908152602001600020604051806060016040529081600082015481526020016001820180546118b590613d5d565b80601f01602080910402602001604051908101604052809291908181526020018280546118e190613d5d565b801561192e5780601f106119035761010080835404028352916020019161192e565b820191906000526020600020905b81548152906001019060200180831161191157829003601f168201915b505050505081526020016002820154815250509050806000015193508060200151925080604001519150509193909250565b600061196c8383612f1b565b60038111156119a4577f4e487b7100000000000000000000000000000000000000000000000000000000600052602160045260246000fd5b905092915050565b600060036000837bffffffffffffffffffffffffffffffffffffffffffffffffffffffff19167bffffffffffffffffffffffffffffffffffffffffffffffffffffffff19168152602001908152602001600020549050919050565b611a1033612014565b611a4f576040517f08c379a0000000000000000000000000000000000000000000000000000000008152600401611a4690613abc565b60405180910390fd5b8160006003811115611a8a577f4e487b7100000000000000000000000000000000000000000000000000000000600052602160045260246000fd5b611a948233612f1b565b6003811115611acc577f4e487b7100000000000000000000000000000000000000000000000000000000600052602160045260246000fd5b14611ad657600080fd5b60008260ff166003811115611b14577f4e487b7100000000000000000000000000000000000000000000000000000000600052602160045260246000fd5b90506000611b2185612f83565b9050816004600087815260200190815260200160002060003373ffffffffffffffffffffffffffffffffffffffff1673ffffffffffffffffffffffffffffffffffffffff16815260200190815260200160002060006101000a81548160ff02191690836003811115611bbc577f4e487b7100000000000000000000000000000000000000000000000000000000600052602160045260246000fd5b021790555060016002811115611bfb577f4e487b7100000000000000000000000000000000000000000000000000000000600052602160045260246000fd5b816002811115611c34577f4e487b7100000000000000000000000000000000000000000000000000000000600052602160045260246000fd5b14611c74576040517f08c379a0000000000000000000000000000000000000000000000000000000008152600401611c6b90613a3c565b60405180910390fd5b60006003811115611cae577f4e487b7100000000000000000000000000000000000000000000000000000000600052602160045260246000fd5b826003811115611ce7577f4e487b7100000000000000000000000000000000000000000000000000000000600052602160045260246000fd5b118015611d645750600380811115611d28577f4e487b7100000000000000000000000000000000000000000000000000000000600052602160045260246000fd5b826003811115611d61577f4e487b7100000000000000000000000000000000000000000000000000000000600052602160045260246000fd5b11155b611d6d57600080fd5b611d7685611f51565b611d7f57600080fd5b600160056000878152602001908152602001600020600401836003811115611dd0577f4e487b7100000000000000000000000000000000000000000000000000000000600052602160045260246000fd5b60038110611e07577f4e487b7100000000000000000000000000000000000000000000000000000000600052603260045260246000fd5b016000828254611e179190613c3a565b925050819055503373ffffffffffffffffffffffffffffffffffffffff163073ffffffffffffffffffffffffffffffffffffffff167f677a563a473bb29f607921e5d92ca1f2f580c08e67c873577f2f4367278e70cd8787604051611e7d929190613842565b60405180910390a35050505050565b6000611e9e63779994f360e01b611723565b905090565b6000611eb6611eb183611f21565b6119ac565b9050919050565b6000611ec882612f83565b6002811115611f00577f4e487b7100000000000000000000000000000000000000000000000000000000600052602160045260246000fd5b9050919050565b6000611f1a611f1583611f21565b6116b9565b9050919050565b600081604051602001611f3491906137b4565b604051602081830303815290604052805190602001209050919050565b6000426005600084815260200190815260200160002060030154119050919050565b600060056000838152602001908152602001600020600301549050919050565b60003073ffffffffffffffffffffffffffffffffffffffff163373ffffffffffffffffffffffffffffffffffffffff161415612004576040517f08c379a0000000000000000000000000000000000000000000000000000000008152600401611ffb90613adc565b60405180910390fd5b61200d82612a00565b9050919050565b600061201f826126fd565b8061202f575061202e826109be565b5b8061203f575061203e82610c53565b5b9050919050565b600060016003811115612082577f4e487b7100000000000000000000000000000000000000000000000000000000600052602160045260246000fd5b8260038111156120bb577f4e487b7100000000000000000000000000000000000000000000000000000000600052602160045260246000fd5b14156120d1576120ca836126fd565b90506121e7565b6002600381111561210b577f4e487b7100000000000000000000000000000000000000000000000000000000600052602160045260246000fd5b826003811115612144577f4e487b7100000000000000000000000000000000000000000000000000000000600052602160045260246000fd5b141561215a57612153836109be565b90506121e7565b600380811115612193577f4e487b7100000000000000000000000000000000000000000000000000000000600052602160045260246000fd5b8260038111156121cc577f4e487b7100000000000000000000000000000000000000000000000000000000600052602160045260246000fd5b14156121e2576121db83610c53565b90506121e7565b600090505b92915050565b60006121f833612014565b612237576040517f08c379a000000000000000000000000000000000000000000000000000000000815260040161222e90613abc565b60405180910390fd5b3060065460405160200161224c929190613788565b60405160208183030381529060405280519060200120905060006040518060600160405280600081526020016000815260200160008152509050600060028111156122c0577f4e487b7100000000000000000000000000000000000000000000000000000000600052602160045260246000fd5b6122c983612f83565b6002811115612301577f4e487b7100000000000000000000000000000000000000000000000000000000600052602160045260246000fd5b14612341576040517f08c379a000000000000000000000000000000000000000000000000000000000815260040161233890613afc565b60405180910390fd5b6040518060e0016040528088888080601f016020809104026020016040519081016040528093929190818152602001838380828437600081840152601f19601f82011690508083019250505050505050815260200186868080601f016020809104026020016040519081016040528093929190818152602001838380828437600081840152601f19601f8201169050808301925050505050505081526020018481526020016123ee610b18565b426123f99190613c3a565b81526020018281526020016001600281111561243e577f4e487b7100000000000000000000000000000000000000000000000000000000600052602160045260246000fd5b81526020016000600381111561247d577f4e487b7100000000000000000000000000000000000000000000000000000000600052602160045260246000fd5b8152506005600084815260200190815260200160002060008201518160000190805190602001906124af929190612fff565b5060208201518160010190805190602001906124cc929190612fff565b5060408201518160020155606082015181600301556080820151816004019060036124f8929190613085565b5060a08201518160070160006101000a81548160ff0219169083600281111561254a577f4e487b7100000000000000000000000000000000000000000000000000000000600052602160045260246000fd5b021790555060c08201518160070160016101000a81548160ff021916908360038111156125a0577f4e487b7100000000000000000000000000000000000000000000000000000000600052602160045260246000fd5b02179055509050506001600660008282546125bb9190613c3a565b925050819055503373ffffffffffffffffffffffffffffffffffffffff163073ffffffffffffffffffffffffffffffffffffffff167fcb9548ff4d7f490f1cca82bdb623f50e1e857236458299ebbd5c0e850968d8b08989868a8a8a604051612629969594939291906138e6565b60405180910390a35095945050505050565b600061264d63ba85964360e01b611723565b905090565b600061265d82612fb0565b6003811115612695577f4e487b7100000000000000000000000000000000000000000000000000000000600052602160045260246000fd5b9050919050565b6126a4612fdd565b600560008381526020019081526020016000206004016003806020026040519081016040528092919082600380156126f1576020028201915b8154815260200190600101908083116126dd575b50505050509050919050565b6000612707611e8c565b61270f612948565b73ffffffffffffffffffffffffffffffffffffffff166370a08231846040518263ffffffff1660e01b815260040161274791906137d6565b60206040518083038186803b15801561275f57600080fd5b505afa158015612773573d6000803e3d6000fd5b505050506040513d601f19601f820116820180604052508101906127979190613487565b119050919050565b60006127aa826109be565b806127ba57506127b982610c53565b5b9050919050565b60003073ffffffffffffffffffffffffffffffffffffffff163373ffffffffffffffffffffffffffffffffffffffff161415612832576040517f08c379a000000000000000000000000000000000000000000000000000000000815260040161282990613adc565b60405180910390fd5b6128746002600681111561286f577f4e487b7100000000000000000000000000000000000000000000000000000000600052602160045260246000fd5b612a00565b905090565b600061288b63e3a073e960e01b611723565b905090565b60003073ffffffffffffffffffffffffffffffffffffffff163373ffffffffffffffffffffffffffffffffffffffff161415612901576040517f08c379a00000000000000000000000000000000000000000000000000000000081526004016128f890613adc565b60405180910390fd5b6129436000600681111561293e577f4e487b7100000000000000000000000000000000000000000000000000000000600052602160045260246000fd5b612a00565b905090565b60003073ffffffffffffffffffffffffffffffffffffffff163373ffffffffffffffffffffffffffffffffffffffff1614156129b9576040517f08c379a00000000000000000000000000000000000000000000000000000000081526004016129b090613adc565b60405180910390fd5b6129fb600360068111156129f6577f4e487b7100000000000000000000000000000000000000000000000000000000600052602160045260246000fd5b612a00565b905090565b6000600160009054906101000a900473ffffffffffffffffffffffffffffffffffffffff1673ffffffffffffffffffffffffffffffffffffffff1663a74a3685836040518263ffffffff1660e01b8152600401612a5d9190613b1c565b60206040518083038186803b158015612a7557600080fd5b505afa925050508015612aa657506040513d601f19601f82011682018060405250810190612aa39190613265565b60015b612b4b573d8060008114612ad6576040519150601f19603f3d011682016040523d82523d6000602084013e612adb565b606091505b506000831415612b1057600160009054906101000a900473ffffffffffffffffffffffffffffffffffffffff16915050612b50565b6040517f08c379a0000000000000000000000000000000000000000000000000000000008152600401612b4290613a1c565b60405180910390fd5b809150505b919050565b60008060026000857bffffffffffffffffffffffffffffffffffffffffffffffffffffffff19167bffffffffffffffffffffffffffffffffffffffffffffffffffffffff1916815260200190815260200160002060020154905060018111612bf2576040517f08c379a0000000000000000000000000000000000000000000000000000000008152600401612be990613a9c565b60405180910390fd5b428160036000877bffffffffffffffffffffffffffffffffffffffffffffffffffffffff19167bffffffffffffffffffffffffffffffffffffffffffffffffffffffff1916815260200190815260200160002054612c509190613c3a565b1015612d09578260026000867bffffffffffffffffffffffffffffffffffffffffffffffffffffffff19167bffffffffffffffffffffffffffffffffffffffffffffffffffffffff19168152602001908152602001600020600001819055503073ffffffffffffffffffffffffffffffffffffffff167fdf4e75032689f7eb5aa484fd13afa6a7f26466aa407be01c91153c976100587f8585604051612cf79291906138bd565b60405180910390a26001915050612d0f565b60009150505b92915050565b6000612d2084611f21565b9050600060026000837bffffffffffffffffffffffffffffffffffffffffffffffffffffffff19167bffffffffffffffffffffffffffffffffffffffffffffffffffffffff191681526020019081526020016000206002015414612db9576040517f08c379a0000000000000000000000000000000000000000000000000000000008152600401612db090613a7c565b60405180910390fd5b60008214612dc75781612dca565b60015b915060405180606001604052808481526020018581526020018381525060026000837bffffffffffffffffffffffffffffffffffffffffffffffffffffffff19167bffffffffffffffffffffffffffffffffffffffffffffffffffffffff19168152602001908152602001600020600082015181600001556020820151816001019080519060200190612e5e929190612fff565b50604082015181600201559050504260036000837bffffffffffffffffffffffffffffffffffffffffffffffffffffffff19167bffffffffffffffffffffffffffffffffffffffffffffffffffffffff19168152602001908152602001600020819055503073ffffffffffffffffffffffffffffffffffffffff167fcc182ad97b7e6767e6f1450d65d318e2dd9183580b6ef05d5d99800ec74602b2858585604051612f0c939291906139de565b60405180910390a29392505050565b60006004600084815260200190815260200160002060008373ffffffffffffffffffffffffffffffffffffffff1673ffffffffffffffffffffffffffffffffffffffff16815260200190815260200160002060009054906101000a900460ff16905092915050565b60006005600083815260200190815260200160002060070160009054906101000a900460ff169050919050565b60006005600083815260200190815260200160002060070160019054906101000a900460ff169050919050565b6040518060600160405280600390602082028036833780820191505090505090565b82805461300b90613d5d565b90600052602060002090601f01602090048101928261302d5760008555613074565b82601f1061304657805160ff1916838001178555613074565b82800160010185558215613074579182015b82811115613073578251825591602001919060010190613058565b5b50905061308191906130c5565b5090565b82600381019282156130b4579160200282015b828111156130b3578251825591602001919060010190613098565b5b5090506130c191906130c5565b5090565b5b808211156130de5760008160009055506001016130c6565b5090565b60006130f56130f084613bb5565b613b90565b90508281526020810184848401111561310d57600080fd5b613118848285613d1b565b509392505050565b60008135905061312f81614079565b92915050565b60008151905061314481614079565b92915050565b60008135905061315981614090565b92915050565b60008135905061316e816140a7565b92915050565b600081359050613183816140be565b92915050565b60008083601f84011261319b57600080fd5b8235905067ffffffffffffffff8111156131b457600080fd5b6020830191508360018202830111156131cc57600080fd5b9250929050565b600082601f8301126131e457600080fd5b81356131f48482602086016130e2565b91505092915050565b60008135905061320c816140ce565b92915050565b600081519050613221816140ce565b92915050565b600081359050613236816140e5565b92915050565b60006020828403121561324e57600080fd5b600061325c84828501613120565b91505092915050565b60006020828403121561327757600080fd5b600061328584828501613135565b91505092915050565b600080604083850312156132a157600080fd5b60006132af85828601613120565b92505060206132c085828601613174565b9150509250929050565b6000602082840312156132dc57600080fd5b60006132ea8482850161314a565b91505092915050565b6000806040838503121561330657600080fd5b60006133148582860161314a565b925050602061332585828601613120565b9150509250929050565b6000806040838503121561334257600080fd5b60006133508582860161314a565b925050602061336185828601613227565b9150509250929050565b60006020828403121561337d57600080fd5b600061338b8482850161315f565b91505092915050565b6000806000806000606086880312156133ac57600080fd5b600086013567ffffffffffffffff8111156133c657600080fd5b6133d288828901613189565b9550955050602086013567ffffffffffffffff8111156133f157600080fd5b6133fd88828901613189565b93509350506040613410888289016131fd565b9150509295509295909350565b60006020828403121561342f57600080fd5b600082013567ffffffffffffffff81111561344957600080fd5b613455848285016131d3565b91505092915050565b60006020828403121561347057600080fd5b600061347e848285016131fd565b91505092915050565b60006020828403121561349957600080fd5b60006134a784828501613212565b91505092915050565b60006134bc8383613744565b60208301905092915050565b6134d181613c90565b82525050565b6134e86134e382613c90565b613e09565b82525050565b6134f781613bf0565b6135018184613c13565b925061350c82613be6565b8060005b8381101561353d57815161352487826134b0565b965061352f83613c06565b925050600181019050613510565b505050505050565b61354e81613ca2565b82525050565b61355d81613cae565b82525050565b61356c81613cb8565b82525050565b600061357e8385613c1e565b935061358b838584613d1b565b61359483613ec4565b840190509392505050565b60006135aa82613bfb565b6135b48185613c1e565b93506135c4818560208601613d2a565b6135cd81613ec4565b840191505092915050565b60006135e382613bfb565b6135ed8185613c2f565b93506135fd818560208601613d2a565b80840191505092915050565b6000613616601d83613c1e565b915061362182613ee2565b602082019050919050565b6000613639600b83613c1e565b915061364482613f0b565b602082019050919050565b600061365c600f83613c1e565b915061366782613f34565b602082019050919050565b600061367f600283613c2f565b915061368a82613f5d565b600282019050919050565b60006136a2601d83613c1e565b91506136ad82613f86565b602082019050919050565b60006136c5602183613c1e565b91506136d082613faf565b604082019050919050565b60006136e8600b83613c1e565b91506136f382613ffe565b602082019050919050565b600061370b600e83613c1e565b915061371682614027565b602082019050919050565b600061372e601083613c1e565b915061373982614050565b602082019050919050565b61374d81613d04565b82525050565b61375c81613d04565b82525050565b61377361376e82613d04565b613e2d565b82525050565b61378281613d0e565b82525050565b600061379482856134d7565b6014820191506137a48284613762565b6020820191508190509392505050565b60006137c082846135d8565b91506137cb82613672565b915081905092915050565b60006020820190506137eb60008301846134c8565b92915050565b600060608201905061380660008301846134ee565b92915050565b60006020820190506138216000830184613545565b92915050565b600060208201905061383c6000830184613554565b92915050565b60006040820190506138576000830185613554565b6138646020830184613779565b9392505050565b60006060820190506138806000830186613554565b61388d6020830185613779565b61389a6040830184613753565b949350505050565b60006020820190506138b76000830184613563565b92915050565b60006040820190506138d26000830185613563565b6138df6020830184613753565b9392505050565b6000608082019050818103600083015261390181888a613572565b90506139106020830187613554565b8181036040830152613923818587613572565b90506139326060830184613753565b979650505050505050565b60006020820190508181036000830152613957818461359f565b905092915050565b600061012082019050818103600083015261397a818a61359f565b9050818103602083015261398e818961359f565b905061399d6040830188613753565b6139aa6060830187613753565b6139b760808301866134ee565b6139c460e0830185613779565b6139d2610100830184613779565b98975050505050505050565b600060608201905081810360008301526139f8818661359f565b9050613a076020830185613753565b613a146040830184613753565b949350505050565b60006020820190508181036000830152613a3581613609565b9050919050565b60006020820190508181036000830152613a558161362c565b9050919050565b60006020820190508181036000830152613a758161364f565b9050919050565b60006020820190508181036000830152613a9581613695565b9050919050565b60006020820190508181036000830152613ab5816136b8565b9050919050565b60006020820190508181036000830152613ad5816136db565b9050919050565b60006020820190508181036000830152613af5816136fe565b9050919050565b60006020820190508181036000830152613b1581613721565b9050919050565b6000602082019050613b316000830184613753565b92915050565b6000606082019050613b4c6000830186613753565b8181036020830152613b5e818561359f565b9050613b6d6040830184613753565b949350505050565b6000602082019050613b8a6000830184613779565b92915050565b6000613b9a613bab565b9050613ba68282613d8f565b919050565b6000604051905090565b600067ffffffffffffffff821115613bd057613bcf613e95565b5b613bd982613ec4565b9050602081019050919050565b6000819050919050565b600060039050919050565b600081519050919050565b6000602082019050919050565b600081905092915050565b600082825260208201905092915050565b600081905092915050565b6000613c4582613d04565b9150613c5083613d04565b9250827fffffffffffffffffffffffffffffffffffffffffffffffffffffffffffffffff03821115613c8557613c84613e37565b5b828201905092915050565b6000613c9b82613ce4565b9050919050565b60008115159050919050565b6000819050919050565b60007fffffffff0000000000000000000000000000000000000000000000000000000082169050919050565b600073ffffffffffffffffffffffffffffffffffffffff82169050919050565b6000819050919050565b600060ff82169050919050565b82818337600083830152505050565b60005b83811015613d48578082015181840152602081019050613d2d565b83811115613d57576000848401525b50505050565b60006002820490506001821680613d7557607f821691505b60208210811415613d8957613d88613e66565b5b50919050565b613d9882613ec4565b810181811067ffffffffffffffff82111715613db757613db6613e95565b5b80604052505050565b6000613dcb82613d04565b91507fffffffffffffffffffffffffffffffffffffffffffffffffffffffffffffffff821415613dfe57613dfd613e37565b5b600182019050919050565b6000613e1482613e1b565b9050919050565b6000613e2682613ed5565b9050919050565b6000819050919050565b7f4e487b7100000000000000000000000000000000000000000000000000000000600052601160045260246000fd5b7f4e487b7100000000000000000000000000000000000000000000000000000000600052602260045260246000fd5b7f4e487b7100000000000000000000000000000000000000000000000000000000600052604160045260246000fd5b6000601f19601f8301169050919050565b60008160601b9050919050565b7f41657468657220436f6e7472616374204944204e6f7420526f75746564000000600082015250565b7f43616e6e6f7420766f7465000000000000000000000000000000000000000000600082015250565b7f50726f706f73616c204163746976650000000000000000000000000000000000600082015250565b7f2829000000000000000000000000000000000000000000000000000000000000600082015250565b7f54686973207661726961626c6520726566206973206f63637570696564000000600082015250565b7f54686973207661726961626c6520726566206973206e6f74206f63637570696560008201527f6400000000000000000000000000000000000000000000000000000000000000602082015250565b7f4f6e6c794d656d62657273000000000000000000000000000000000000000000600082015250565b7f726563757373696f6e2076696577000000000000000000000000000000000000600082015250565b7f5265666572656e63652065786973747300000000000000000000000000000000600082015250565b61408281613c90565b811461408d57600080fd5b50565b61409981613cae565b81146140a457600080fd5b50565b6140b081613cb8565b81146140bb57600080fd5b50565b600481106140cb57600080fd5b50565b6140d781613d04565b81146140e257600080fd5b50565b6140ee81613d0e565b81146140f957600080fd5b5056fea2646970667358221220a81759a824edb9d3b848c9a794d2b3ef1310b202b3287098dee2f4fd9324ea0664736f6c63430008040033",
  "linkReferences": {},
  "deployedLinkReferences": {}
}