{
  "_format": "hh-sol-artifact-1",
  "contractName": "Transaction",
  "sourceName": "contracts/Keeper/Transaction/Transaction.sol",
  "abi": [
    {
      "anonymous": false,
      "inputs": [
        {
          "indexed": true,
          "internalType": "address",
          "name": "NodeOwner",
          "type": "address"
        },
        {
          "indexed": true,
          "internalType": "address",
          "name": "Node",
          "type": "address"
        },
        {
          "indexed": false,
          "internalType": "uint256",
          "name": "NodeFIA",
          "type": "uint256"
        },
        {
          "indexed": false,
          "internalType": "uint256",
          "name": "NodeReleaseTime",
          "type": "uint256"
        }
      ],
      "name": "MakeNode",
      "type": "event"
    },
    {
      "anonymous": false,
      "inputs": [
        {
          "indexed": false,
          "internalType": "address",
          "name": "Node",
          "type": "address"
        },
        {
          "indexed": false,
          "internalType": "uint256",
          "name": "NodeInitialStake",
          "type": "uint256"
        },
        {
          "indexed": false,
          "internalType": "uint256",
          "name": "NodeReleaseTime",
          "type": "uint256"
        }
      ],
      "name": "NodeActualized",
      "type": "event"
    },
    {
      "anonymous": false,
      "inputs": [
        {
          "indexed": false,
          "internalType": "address",
          "name": "Node",
          "type": "address"
        },
        {
          "indexed": false,
          "internalType": "uint256",
          "name": "NodeFIA",
          "type": "uint256"
        },
        {
          "indexed": false,
          "internalType": "uint256",
          "name": "NodeReward",
          "type": "uint256"
        },
        {
          "indexed": false,
          "internalType": "uint256",
          "name": "NodeInitialStake",
          "type": "uint256"
        },
        {
          "indexed": false,
          "internalType": "address",
          "name": "NodeOwner",
          "type": "address"
        }
      ],
      "name": "NodeDissolved",
      "type": "event"
    },
    {
      "anonymous": false,
      "inputs": [
        {
          "indexed": false,
          "internalType": "uint256",
          "name": "RRatio",
          "type": "uint256"
        },
        {
          "indexed": false,
          "internalType": "uint256",
          "name": "R0xA",
          "type": "uint256"
        },
        {
          "indexed": false,
          "internalType": "uint256",
          "name": "RNative",
          "type": "uint256"
        },
        {
          "indexed": false,
          "internalType": "uint256",
          "name": "RTarget",
          "type": "uint256"
        }
      ],
      "name": "ReservesAdapted",
      "type": "event"
    },
    {
      "anonymous": false,
      "inputs": [
        {
          "indexed": false,
          "internalType": "uint256",
          "name": "TreasuryTarget",
          "type": "uint256"
        },
        {
          "indexed": false,
          "internalType": "uint256",
          "name": "TargetTransactions",
          "type": "uint256"
        }
      ],
      "name": "TargetUpdated",
      "type": "event"
    },
    {
      "anonymous": false,
      "inputs": [
        {
          "indexed": false,
          "internalType": "bytes32",
          "name": "TransactionReference",
          "type": "bytes32"
        }
      ],
      "name": "TransactionAccepted",
      "type": "event"
    },
    {
      "anonymous": false,
      "inputs": [
        {
          "indexed": false,
          "internalType": "bytes32",
          "name": "TransactionReference",
          "type": "bytes32"
        },
        {
          "indexed": false,
          "internalType": "uint256",
          "name": "ClaimSize",
          "type": "uint256"
        }
      ],
      "name": "TransactionClaimed",
      "type": "event"
    },
    {
      "inputs": [],
      "name": "aetherBonds",
      "outputs": [
        {
          "internalType": "address",
          "name": "",
          "type": "address"
        }
      ],
      "stateMutability": "view",
      "type": "function"
    },
    {
      "inputs": [],
      "name": "aetherDAO",
      "outputs": [
        {
          "internalType": "address",
          "name": "",
          "type": "address"
        }
      ],
      "stateMutability": "view",
      "type": "function"
    },
    {
      "inputs": [],
      "name": "aetherFactory",
      "outputs": [
        {
          "internalType": "address",
          "name": "",
          "type": "address"
        }
      ],
      "stateMutability": "view",
      "type": "function"
    },
    {
      "inputs": [],
      "name": "aetherHUB",
      "outputs": [
        {
          "internalType": "address",
          "name": "",
          "type": "address"
        }
      ],
      "stateMutability": "view",
      "type": "function"
    },
    {
      "inputs": [],
      "name": "aetherID",
      "outputs": [
        {
          "internalType": "uint256",
          "name": "",
          "type": "uint256"
        }
      ],
      "stateMutability": "view",
      "type": "function"
    },
    {
      "inputs": [],
      "name": "aetherKeeper",
      "outputs": [
        {
          "internalType": "address",
          "name": "",
          "type": "address"
        }
      ],
      "stateMutability": "view",
      "type": "function"
    },
    {
      "inputs": [],
      "name": "aetherRouter",
      "outputs": [
        {
          "internalType": "address",
          "name": "",
          "type": "address"
        }
      ],
      "stateMutability": "view",
      "type": "function"
    },
    {
      "inputs": [],
      "name": "aetherToken",
      "outputs": [
        {
          "internalType": "address",
          "name": "",
          "type": "address"
        }
      ],
      "stateMutability": "view",
      "type": "function"
    },
    {
      "inputs": [],
      "name": "baseRatio",
      "outputs": [
        {
          "internalType": "uint256",
          "name": "",
          "type": "uint256"
        }
      ],
      "stateMutability": "view",
      "type": "function"
    },
    {
      "inputs": [],
      "name": "baseReserves",
      "outputs": [
        {
          "internalType": "uint256",
          "name": "",
          "type": "uint256"
        },
        {
          "internalType": "uint256",
          "name": "",
          "type": "uint256"
        }
      ],
      "stateMutability": "view",
      "type": "function"
    },
    {
      "inputs": [],
      "name": "bondsEval",
      "outputs": [
        {
          "internalType": "uint256",
          "name": "",
          "type": "uint256"
        }
      ],
      "stateMutability": "view",
      "type": "function"
    },
    {
      "inputs": [],
      "name": "buybackEval",
      "outputs": [
        {
          "internalType": "uint256",
          "name": "",
          "type": "uint256"
        }
      ],
      "stateMutability": "view",
      "type": "function"
    },
    {
      "inputs": [],
      "name": "chainAllocation",
      "outputs": [
        {
          "internalType": "uint256",
          "name": "",
          "type": "uint256"
        }
      ],
      "stateMutability": "view",
      "type": "function"
    },
    {
      "inputs": [],
      "name": "chainId",
      "outputs": [
        {
          "internalType": "uint256",
          "name": "",
          "type": "uint256"
        }
      ],
      "stateMutability": "view",
      "type": "function"
    },
    {
      "inputs": [
        {
          "internalType": "bytes32",
          "name": "_forRef",
          "type": "bytes32"
        },
        {
          "internalType": "uint256",
          "name": "_magicValue",
          "type": "uint256"
        }
      ],
      "name": "checkSV",
      "outputs": [
        {
          "internalType": "bool",
          "name": "",
          "type": "bool"
        }
      ],
      "stateMutability": "nonpayable",
      "type": "function"
    },
    {
      "inputs": [
        {
          "internalType": "address",
          "name": "_from",
          "type": "address"
        },
        {
          "internalType": "uint256",
          "name": "_amount",
          "type": "uint256"
        },
        {
          "internalType": "bytes32",
          "name": "_forRef",
          "type": "bytes32"
        }
      ],
      "name": "collaterilize",
      "outputs": [
        {
          "internalType": "bool",
          "name": "",
          "type": "bool"
        }
      ],
      "stateMutability": "nonpayable",
      "type": "function"
    },
    {
      "inputs": [],
      "name": "depletionRatio",
      "outputs": [
        {
          "internalType": "uint256",
          "name": "",
          "type": "uint256"
        },
        {
          "internalType": "uint256",
          "name": "",
          "type": "uint256"
        }
      ],
      "stateMutability": "view",
      "type": "function"
    },
    {
      "inputs": [],
      "name": "fullRatio",
      "outputs": [
        {
          "internalType": "uint256",
          "name": "",
          "type": "uint256"
        }
      ],
      "stateMutability": "view",
      "type": "function"
    },
    {
      "inputs": [],
      "name": "fullReserves",
      "outputs": [
        {
          "internalType": "uint256",
          "name": "",
          "type": "uint256"
        },
        {
          "internalType": "uint256",
          "name": "",
          "type": "uint256"
        }
      ],
      "stateMutability": "view",
      "type": "function"
    },
    {
      "inputs": [],
      "name": "gasMarkup",
      "outputs": [
        {
          "internalType": "uint256",
          "name": "",
          "type": "uint256"
        }
      ],
      "stateMutability": "view",
      "type": "function"
    },
    {
      "inputs": [
        {
          "internalType": "uint256",
          "name": "contractId",
          "type": "uint256"
        }
      ],
      "name": "getAetherAddress",
      "outputs": [
        {
          "internalType": "address",
          "name": "contractAddress",
          "type": "address"
        }
      ],
      "stateMutability": "view",
      "type": "function"
    },
    {
      "inputs": [],
      "name": "indexEval",
      "outputs": [
        {
          "internalType": "uint256",
          "name": "",
          "type": "uint256"
        }
      ],
      "stateMutability": "view",
      "type": "function"
    },
    {
      "inputs": [],
      "name": "nodesEval",
      "outputs": [
        {
          "internalType": "uint256",
          "name": "",
          "type": "uint256"
        }
      ],
      "stateMutability": "view",
      "type": "function"
    },
    {
      "inputs": [
        {
          "internalType": "address",
          "name": "node_owner",
          "type": "address"
        }
      ],
      "name": "nodesOfOwner",
      "outputs": [
        {
          "internalType": "uint256",
          "name": "",
          "type": "uint256"
        }
      ],
      "stateMutability": "view",
      "type": "function"
    },
    {
      "inputs": [],
      "name": "registeredNodes",
      "outputs": [
        {
          "internalType": "address[]",
          "name": "_nodes",
          "type": "address[]"
        }
      ],
      "stateMutability": "view",
      "type": "function"
    },
    {
      "inputs": [],
      "name": "spwanNode",
      "outputs": [],
      "stateMutability": "nonpayable",
      "type": "function"
    },
    {
      "inputs": [],
      "name": "targetRatio",
      "outputs": [
        {
          "internalType": "uint256",
          "name": "",
          "type": "uint256"
        }
      ],
      "stateMutability": "view",
      "type": "function"
    },
    {
      "inputs": [],
      "name": "totalNodes",
      "outputs": [
        {
          "internalType": "uint256",
          "name": "",
          "type": "uint256"
        }
      ],
      "stateMutability": "view",
      "type": "function"
    },
    {
      "inputs": [
        {
          "internalType": "bytes32",
          "name": "aReference",
          "type": "bytes32"
        }
      ],
      "name": "txnClaimable",
      "outputs": [
        {
          "internalType": "bool",
          "name": "",
          "type": "bool"
        }
      ],
      "stateMutability": "view",
      "type": "function"
    }
  ],
  "bytecode": "0x608060405234801561001057600080fd5b5046600281905550611e69806100276000396000f3fe608060405234801561001057600080fd5b50600436106101cf5760003560e01c806377f9653e11610104578063b00a98ec116100a2578063dc60135211610071578063dc601352146104f9578063de8da97914610517578063ec23823814610547578063eccda8df14610565576101cf565b8063b00a98ec1461045c578063b192b9661461047a578063b22c7d58146104aa578063d217838c146104c9576101cf565b80639592d424116100de5780639592d424146103d25780639a8a0592146103f0578063a74a36851461040e578063ad008f491461043e576101cf565b806377f9653e14610377578063893b854d146103955780638df92bba146103b3576101cf565b8063440e3198116101715780635a08bd171161014b5780635a08bd17146102ff5780635fd1cf261461031d578063656e97fd1461033b5780636ffac4a714610359576101cf565b8063440e3198146102a457806346f733f8146102c357806350ef7d20146102e1576101cf565b80631f0ec1a0116101ad5780631f0ec1a01461021a57806328f5c2771461023857806336bc9efb146102565780633cc3be6614610286576101cf565b8063081dd5ff146101d45780631629ff00146101f2578063177a6ce5146101fc575b600080fd5b6101dc610583565b6040516101e991906118ea565b60405180910390f35b6101fa61063b565b005b610204610731565b60405161021191906118ea565b60405180910390f35b6102226107e9565b60405161022f91906119cb565b60405180910390f35b610240610811565b60405161024d91906119cb565b60405180910390f35b610270600480360381019061026b9190611741565b610835565b60405161027d9190611950565b60405180910390f35b61028e61090f565b60405161029b91906119cb565b60405180910390f35b6102ac61092a565b6040516102ba9291906119e6565b60405180910390f35b6102cb610938565b6040516102d891906118ea565b60405180910390f35b6102e96109f0565b6040516102f691906119cb565b60405180910390f35b6103076109f9565b60405161031491906119cb565b60405180910390f35b610325610a92565b60405161033291906118ea565b60405180910390f35b610343610b49565b60405161035091906119cb565b60405180910390f35b610361610bd5565b60405161036e91906119cb565b60405180910390f35b61037f610bfd565b60405161038c919061192e565b60405180910390f35b61039d610d6e565b6040516103aa91906119cb565b60405180910390f35b6103bb610d92565b6040516103c99291906119e6565b60405180910390f35b6103da610da3565b6040516103e791906119cb565b60405180910390f35b6103f8610dad565b60405161040591906119cb565b60405180910390f35b6104286004803603810190610423919061177d565b610db7565b60405161043591906118ea565b60405180910390f35b610446610e38565b60405161045391906119cb565b60405180910390f35b610464610e5c565b60405161047191906119cb565b60405180910390f35b610494600480360381019061048f9190611718565b610e61565b6040516104a19190611950565b60405180910390f35b6104b2610ec8565b6040516104c09291906119e6565b60405180910390f35b6104e360048036038101906104de9190611677565b610ee3565b6040516104f091906119cb565b60405180910390f35b610501610eea565b60405161050e91906118ea565b60405180910390f35b610531600480360381019061052c91906116c9565b610fa2565b60405161053e9190611950565b60405180910390f35b61054f611272565b60405161055c91906118ea565b60405180910390f35b61056d61132a565b60405161057a91906118ea565b60405180910390f35b60003073ffffffffffffffffffffffffffffffffffffffff163373ffffffffffffffffffffffffffffffffffffffff1614156105f4576040517f08c379a00000000000000000000000000000000000000000000000000000000081526004016105eb906119ab565b60405180910390fd5b61063660016006811115610631577f4e487b7100000000000000000000000000000000000000000000000000000000600052602160045260246000fd5b6113e2565b905090565b60016008600082825461064e9190611a63565b9250508190555061065d611272565b73ffffffffffffffffffffffffffffffffffffffff166369b4b5846040518163ffffffff1660e01b8152600401602060405180830381600087803b1580156106a457600080fd5b505af11580156106b8573d6000803e3d6000fd5b505050506040513d601f19601f820116820180604052508101906106dc91906116a0565b60076000600854815260200190815260200160002060006101000a81548173ffffffffffffffffffffffffffffffffffffffff021916908373ffffffffffffffffffffffffffffffffffffffff160217905550565b60003073ffffffffffffffffffffffffffffffffffffffff163373ffffffffffffffffffffffffffffffffffffffff1614156107a2576040517f08c379a0000000000000000000000000000000000000000000000000000000008152600401610799906119ab565b60405180910390fd5b6107e4600460068111156107df577f4e487b7100000000000000000000000000000000000000000000000000000000600052602160045260246000fd5b6113e2565b905090565b600060326103e86107f8610d6e565b6108029190611aea565b61080c9190611ab9565b905090565b600080600061081e610ec8565b91509150808261082e9190611ab9565b9250505090565b600061083f610731565b73ffffffffffffffffffffffffffffffffffffffff163373ffffffffffffffffffffffffffffffffffffffff16146108ac576040517f08c379a00000000000000000000000000000000000000000000000000000000081526004016108a39061198b565b60405180910390fd5b6000600d600085815260200190815260200160002060010154146108cf57600080fd5b81600d6000858152602001908152602001600020600101819055506003546108f683611537565b116109045760019050610909565b600090505b92915050565b6000601461091b610d6e565b6109259190611ab9565b905090565b600080600080915091509091565b60003073ffffffffffffffffffffffffffffffffffffffff163373ffffffffffffffffffffffffffffffffffffffff1614156109a9576040517f08c379a00000000000000000000000000000000000000000000000000000000081526004016109a0906119ab565b60405180910390fd5b6109eb600560068111156109e6577f4e487b7100000000000000000000000000000000000000000000000000000000600052602160045260246000fd5b6113e2565b905090565b60008054905090565b6000600354610a06610eea565b73ffffffffffffffffffffffffffffffffffffffff16632cb0e40d6040518163ffffffff1660e01b815260040160206040518083038186803b158015610a4b57600080fd5b505afa158015610a5f573d6000803e3d6000fd5b505050506040513d601f19601f82011682018060405250810190610a8391906117a6565b610a8d9190611ab9565b905090565b60003073ffffffffffffffffffffffffffffffffffffffff163373ffffffffffffffffffffffffffffffffffffffff161415610b03576040517f08c379a0000000000000000000000000000000000000000000000000000000008152600401610afa906119ab565b60405180910390fd5b610b44600680811115610b3f577f4e487b7100000000000000000000000000000000000000000000000000000000600052602160045260246000fd5b6113e2565b905090565b6000610b53610eea565b73ffffffffffffffffffffffffffffffffffffffff1663656e97fd6040518163ffffffff1660e01b815260040160206040518083038186803b158015610b9857600080fd5b505afa158015610bac573d6000803e3d6000fd5b505050506040513d601f19601f82011682018060405250810190610bd091906117a6565b905090565b6000601e6103e8610be4610d6e565b610bee9190611aea565b610bf89190611ab9565b905090565b6060600060085490505b600a811115610c3357600a81610c1d9190611ab9565b9050600181610c2c9190611a63565b9050610c07565b8067ffffffffffffffff811115610c73577f4e487b7100000000000000000000000000000000000000000000000000000000600052604160045260246000fd5b604051908082528060200260200182016040528015610ca15781602001602082028036833780820191505090505b50915060005b81811015610d69576007600082815260200190815260200160002060009054906101000a900473ffffffffffffffffffffffffffffffffffffffff16838281518110610d1c577f4e487b7100000000000000000000000000000000000000000000000000000000600052603260045260246000fd5b602002602001019073ffffffffffffffffffffffffffffffffffffffff16908173ffffffffffffffffffffffffffffffffffffffff16815250508080610d6190611bc7565b915050610ca7565b505090565b6000806000610d7b610ec8565b915091508082610d8b9190611ab9565b9250505090565b600080600354600454915091509091565b6000600854905090565b6000600254905090565b60003073ffffffffffffffffffffffffffffffffffffffff163373ffffffffffffffffffffffffffffffffffffffff161415610e28576040517f08c379a0000000000000000000000000000000000000000000000000000000008152600401610e1f906119ab565b60405180910390fd5b610e31826113e2565b9050919050565b6000806000610e45610d92565b915091508082610e559190611ab9565b9250505090565b600090565b6000600c600083815260200190815260200160002060003073ffffffffffffffffffffffffffffffffffffffff1673ffffffffffffffffffffffffffffffffffffffff16815260200190815260200160002060009054906101000a900460ff169050919050565b600080610ed361156f565b610edb611606565b915091509091565b6000919050565b60003073ffffffffffffffffffffffffffffffffffffffff163373ffffffffffffffffffffffffffffffffffffffff161415610f5b576040517f08c379a0000000000000000000000000000000000000000000000000000000008152600401610f52906119ab565b60405180910390fd5b610f9d60026006811115610f98577f4e487b7100000000000000000000000000000000000000000000000000000000600052602160045260246000fd5b6113e2565b905090565b6000610fac610731565b73ffffffffffffffffffffffffffffffffffffffff163373ffffffffffffffffffffffffffffffffffffffff1614611019576040517f08c379a00000000000000000000000000000000000000000000000000000000081526004016110109061198b565b60405180910390fd5b611021611272565b73ffffffffffffffffffffffffffffffffffffffff168473ffffffffffffffffffffffffffffffffffffffff16141561105d576001905061126b565b6000600d6000848152602001908152602001600020600101541461108057600080fd5b61108861132a565b73ffffffffffffffffffffffffffffffffffffffff16636d75b9ee85856040518363ffffffff1660e01b81526004016110c2929190611905565b600060405180830381600087803b1580156110dc57600080fd5b505af19250505080156110ed575060015b61112f576110f9611c9d565b806308c379a01415611123575061110e611d58565b806111195750611125565b600091505061126b565b505b3d6000803e3d6000fd5b60405180608001604052808573ffffffffffffffffffffffffffffffffffffffff1681526020016000815260200184815260200161116b610eea565b73ffffffffffffffffffffffffffffffffffffffff1663a84dc7c36040518163ffffffff1660e01b815260040160206040518083038186803b1580156111b057600080fd5b505afa1580156111c4573d6000803e3d6000fd5b505050506040513d601f19601f820116820180604052508101906111e891906117a6565b815250600d600084815260200190815260200160002060008201518160000160006101000a81548173ffffffffffffffffffffffffffffffffffffffff021916908373ffffffffffffffffffffffffffffffffffffffff160217905550602082015181600101556040820151816002015560608201518160030155905050600190505b9392505050565b60003073ffffffffffffffffffffffffffffffffffffffff163373ffffffffffffffffffffffffffffffffffffffff1614156112e3576040517f08c379a00000000000000000000000000000000000000000000000000000000081526004016112da906119ab565b60405180910390fd5b61132560006006811115611320577f4e487b7100000000000000000000000000000000000000000000000000000000600052602160045260246000fd5b6113e2565b905090565b60003073ffffffffffffffffffffffffffffffffffffffff163373ffffffffffffffffffffffffffffffffffffffff16141561139b576040517f08c379a0000000000000000000000000000000000000000000000000000000008152600401611392906119ab565b60405180910390fd5b6113dd600360068111156113d8577f4e487b7100000000000000000000000000000000000000000000000000000000600052602160045260246000fd5b6113e2565b905090565b6000600160009054906101000a900473ffffffffffffffffffffffffffffffffffffffff1673ffffffffffffffffffffffffffffffffffffffff1663a74a3685836040518263ffffffff1660e01b815260040161143f91906119cb565b60206040518083038186803b15801561145757600080fd5b505afa92505050801561148857506040513d601f19601f8201168201806040525081019061148591906116a0565b60015b61152d573d80600081146114b8576040519150601f19603f3d011682016040523d82523d6000602084013e6114bd565b606091505b5060008314156114f257600160009054906101000a900473ffffffffffffffffffffffffffffffffffffffff16915050611532565b6040517f08c379a00000000000000000000000000000000000000000000000000000000081526004016115249061196b565b60405180910390fd5b809150505b919050565b600080600454141561154c576000905061156a565b6004546003548361155d9190611aea565b6115679190611ab9565b90505b919050565b600061157961132a565b73ffffffffffffffffffffffffffffffffffffffff166370a08231306040518263ffffffff1660e01b81526004016115b191906118ea565b60206040518083038186803b1580156115c957600080fd5b505afa1580156115dd573d6000803e3d6000fd5b505050506040513d601f19601f8201168201806040525081019061160191906117a6565b905090565b600047905090565b60008135905061161d81611dee565b92915050565b60008151905061163281611dee565b92915050565b60008135905061164781611e05565b92915050565b60008135905061165c81611e1c565b92915050565b60008151905061167181611e1c565b92915050565b60006020828403121561168957600080fd5b60006116978482850161160e565b91505092915050565b6000602082840312156116b257600080fd5b60006116c084828501611623565b91505092915050565b6000806000606084860312156116de57600080fd5b60006116ec8682870161160e565b93505060206116fd8682870161164d565b925050604061170e86828701611638565b9150509250925092565b60006020828403121561172a57600080fd5b600061173884828501611638565b91505092915050565b6000806040838503121561175457600080fd5b600061176285828601611638565b92505060206117738582860161164d565b9150509250929050565b60006020828403121561178f57600080fd5b600061179d8482850161164d565b91505092915050565b6000602082840312156117b857600080fd5b60006117c684828501611662565b91505092915050565b60006117db83836117e7565b60208301905092915050565b6117f081611b44565b82525050565b6117ff81611b44565b82525050565b600061181082611a29565b61181a8185611a41565b935061182583611a19565b8060005b8381101561185657815161183d88826117cf565b975061184883611a34565b925050600181019050611829565b5085935050505092915050565b61186c81611b56565b82525050565b600061187f601d83611a52565b915061188a82611cdd565b602082019050919050565b60006118a2600783611a52565b91506118ad82611d06565b602082019050919050565b60006118c5600e83611a52565b91506118d082611d2f565b602082019050919050565b6118e481611b8c565b82525050565b60006020820190506118ff60008301846117f6565b92915050565b600060408201905061191a60008301856117f6565b61192760208301846118db565b9392505050565b600060208201905081810360008301526119488184611805565b905092915050565b60006020820190506119656000830184611863565b92915050565b6000602082019050818103600083015261198481611872565b9050919050565b600060208201905081810360008301526119a481611895565b9050919050565b600060208201905081810360008301526119c4816118b8565b9050919050565b60006020820190506119e060008301846118db565b92915050565b60006040820190506119fb60008301856118db565b611a0860208301846118db565b9392505050565b6000604051905090565b6000819050602082019050919050565b600081519050919050565b6000602082019050919050565b600082825260208201905092915050565b600082825260208201905092915050565b6000611a6e82611b8c565b9150611a7983611b8c565b9250827fffffffffffffffffffffffffffffffffffffffffffffffffffffffffffffffff03821115611aae57611aad611c10565b5b828201905092915050565b6000611ac482611b8c565b9150611acf83611b8c565b925082611adf57611ade611c3f565b5b828204905092915050565b6000611af582611b8c565b9150611b0083611b8c565b9250817fffffffffffffffffffffffffffffffffffffffffffffffffffffffffffffffff0483118215151615611b3957611b38611c10565b5b828202905092915050565b6000611b4f82611b6c565b9050919050565b60008115159050919050565b6000819050919050565b600073ffffffffffffffffffffffffffffffffffffffff82169050919050565b6000819050919050565b611b9f82611cbf565b810181811067ffffffffffffffff82111715611bbe57611bbd611c6e565b5b80604052505050565b6000611bd282611b8c565b91507fffffffffffffffffffffffffffffffffffffffffffffffffffffffffffffffff821415611c0557611c04611c10565b5b600182019050919050565b7f4e487b7100000000000000000000000000000000000000000000000000000000600052601160045260246000fd5b7f4e487b7100000000000000000000000000000000000000000000000000000000600052601260045260246000fd5b7f4e487b7100000000000000000000000000000000000000000000000000000000600052604160045260246000fd5b600060033d1115611cbc5760046000803e611cb9600051611cd0565b90505b90565b6000601f19601f8301169050919050565b60008160e01c9050919050565b7f41657468657220436f6e7472616374204944204e6f7420526f75746564000000600082015250565b7f4f6e6c7948554200000000000000000000000000000000000000000000000000600082015250565b7f726563757373696f6e2076696577000000000000000000000000000000000000600082015250565b600060443d1015611d6857611deb565b611d70611a0f565b60043d036004823e80513d602482011167ffffffffffffffff82111715611d98575050611deb565b808201805167ffffffffffffffff811115611db65750505050611deb565b80602083010160043d038501811115611dd3575050505050611deb565b611de282602001850186611b96565b82955050505050505b90565b611df781611b44565b8114611e0257600080fd5b50565b611e0e81611b62565b8114611e1957600080fd5b50565b611e2581611b8c565b8114611e3057600080fd5b5056fea26469706673582212207f3d0b019edbe8dfdee2703272570617014916301061dbe6c72b0c1ad756ea3a64736f6c63430008040033",
  "linkReferences": {},
  "deployedLinkReferences": {}
}