{
  "_format": "hh-sol-artifact-1",
  "contractName": "AetherBonds",
  "sourceName": "contracts/Bond/AetherBonds.sol",
  "abi": [
    {
      "anonymous": false,
      "inputs": [
        {
          "indexed": true,
          "internalType": "address",
          "name": "owner",
          "type": "address"
        },
        {
          "indexed": true,
          "internalType": "address",
          "name": "approved",
          "type": "address"
        },
        {
          "indexed": true,
          "internalType": "uint256",
          "name": "bond_id",
          "type": "uint256"
        }
      ],
      "name": "Approval",
      "type": "event"
    },
    {
      "anonymous": false,
      "inputs": [
        {
          "indexed": true,
          "internalType": "address",
          "name": "owner",
          "type": "address"
        },
        {
          "indexed": true,
          "internalType": "address",
          "name": "operator",
          "type": "address"
        },
        {
          "indexed": false,
          "internalType": "bool",
          "name": "approved",
          "type": "bool"
        }
      ],
      "name": "ApprovalForAll",
      "type": "event"
    },
    {
      "anonymous": false,
      "inputs": [
        {
          "indexed": true,
          "internalType": "address",
          "name": "BondOwner",
          "type": "address"
        },
        {
          "indexed": false,
          "internalType": "uint256",
          "name": "BondId",
          "type": "uint256"
        },
        {
          "indexed": false,
          "internalType": "uint256",
          "name": "BondMintedAt",
          "type": "uint256"
        }
      ],
      "name": "BondIssued",
      "type": "event"
    },
    {
      "anonymous": false,
      "inputs": [
        {
          "indexed": true,
          "internalType": "address",
          "name": "from",
          "type": "address"
        },
        {
          "indexed": true,
          "internalType": "address",
          "name": "to",
          "type": "address"
        },
        {
          "indexed": true,
          "internalType": "uint256",
          "name": "bond_id",
          "type": "uint256"
        }
      ],
      "name": "Transfer",
      "type": "event"
    },
    {
      "inputs": [],
      "name": "aetherBonds",
      "outputs": [
        {
          "internalType": "address",
          "name": "",
          "type": "address"
        }
      ],
      "stateMutability": "view",
      "type": "function"
    },
    {
      "inputs": [],
      "name": "aetherDAO",
      "outputs": [
        {
          "internalType": "address",
          "name": "",
          "type": "address"
        }
      ],
      "stateMutability": "view",
      "type": "function"
    },
    {
      "inputs": [],
      "name": "aetherFactory",
      "outputs": [
        {
          "internalType": "address",
          "name": "",
          "type": "address"
        }
      ],
      "stateMutability": "view",
      "type": "function"
    },
    {
      "inputs": [],
      "name": "aetherHUB",
      "outputs": [
        {
          "internalType": "address",
          "name": "",
          "type": "address"
        }
      ],
      "stateMutability": "view",
      "type": "function"
    },
    {
      "inputs": [],
      "name": "aetherID",
      "outputs": [
        {
          "internalType": "uint256",
          "name": "",
          "type": "uint256"
        }
      ],
      "stateMutability": "view",
      "type": "function"
    },
    {
      "inputs": [],
      "name": "aetherKeeper",
      "outputs": [
        {
          "internalType": "address",
          "name": "",
          "type": "address"
        }
      ],
      "stateMutability": "view",
      "type": "function"
    },
    {
      "inputs": [],
      "name": "aetherRouter",
      "outputs": [
        {
          "internalType": "address",
          "name": "",
          "type": "address"
        }
      ],
      "stateMutability": "view",
      "type": "function"
    },
    {
      "inputs": [],
      "name": "aetherToken",
      "outputs": [
        {
          "internalType": "address",
          "name": "",
          "type": "address"
        }
      ],
      "stateMutability": "view",
      "type": "function"
    },
    {
      "inputs": [
        {
          "internalType": "address",
          "name": "to",
          "type": "address"
        },
        {
          "internalType": "uint256",
          "name": "bond_id",
          "type": "uint256"
        }
      ],
      "name": "approve",
      "outputs": [],
      "stateMutability": "nonpayable",
      "type": "function"
    },
    {
      "inputs": [
        {
          "internalType": "address",
          "name": "owner",
          "type": "address"
        }
      ],
      "name": "balanceOf",
      "outputs": [
        {
          "internalType": "uint256",
          "name": "",
          "type": "uint256"
        }
      ],
      "stateMutability": "view",
      "type": "function"
    },
    {
      "inputs": [
        {
          "internalType": "string",
          "name": "_nBaseUrl",
          "type": "string"
        }
      ],
      "name": "changeBaseURL",
      "outputs": [],
      "stateMutability": "nonpayable",
      "type": "function"
    },
    {
      "inputs": [
        {
          "internalType": "uint256[]",
          "name": "bond_ids",
          "type": "uint256[]"
        }
      ],
      "name": "combineBonds",
      "outputs": [
        {
          "internalType": "bool",
          "name": "",
          "type": "bool"
        }
      ],
      "stateMutability": "nonpayable",
      "type": "function"
    },
    {
      "inputs": [
        {
          "internalType": "address",
          "name": "bond_owner",
          "type": "address"
        },
        {
          "internalType": "uint256",
          "name": "bond_id",
          "type": "uint256"
        }
      ],
      "name": "defaultBond",
      "outputs": [
        {
          "internalType": "bool",
          "name": "",
          "type": "bool"
        }
      ],
      "stateMutability": "nonpayable",
      "type": "function"
    },
    {
      "inputs": [
        {
          "internalType": "uint256",
          "name": "contractId",
          "type": "uint256"
        }
      ],
      "name": "getAetherAddress",
      "outputs": [
        {
          "internalType": "address",
          "name": "contractAddress",
          "type": "address"
        }
      ],
      "stateMutability": "view",
      "type": "function"
    },
    {
      "inputs": [
        {
          "internalType": "uint256",
          "name": "bond_id",
          "type": "uint256"
        }
      ],
      "name": "getApproved",
      "outputs": [
        {
          "internalType": "address",
          "name": "",
          "type": "address"
        }
      ],
      "stateMutability": "view",
      "type": "function"
    },
    {
      "inputs": [
        {
          "internalType": "uint256",
          "name": "bond_id",
          "type": "uint256"
        }
      ],
      "name": "idsOfBond",
      "outputs": [
        {
          "internalType": "uint256[]",
          "name": "_bondIds",
          "type": "uint256[]"
        }
      ],
      "stateMutability": "view",
      "type": "function"
    },
    {
      "inputs": [
        {
          "internalType": "address",
          "name": "owner",
          "type": "address"
        },
        {
          "internalType": "address",
          "name": "operator",
          "type": "address"
        }
      ],
      "name": "isApprovedForAll",
      "outputs": [
        {
          "internalType": "bool",
          "name": "",
          "type": "bool"
        }
      ],
      "stateMutability": "view",
      "type": "function"
    },
    {
      "inputs": [
        {
          "internalType": "address",
          "name": "to",
          "type": "address"
        }
      ],
      "name": "issueBond",
      "outputs": [
        {
          "internalType": "uint256",
          "name": "",
          "type": "uint256"
        }
      ],
      "stateMutability": "nonpayable",
      "type": "function"
    },
    {
      "inputs": [],
      "name": "maxSupply",
      "outputs": [
        {
          "internalType": "uint256",
          "name": "",
          "type": "uint256"
        }
      ],
      "stateMutability": "pure",
      "type": "function"
    },
    {
      "inputs": [],
      "name": "name",
      "outputs": [
        {
          "internalType": "string",
          "name": "",
          "type": "string"
        }
      ],
      "stateMutability": "pure",
      "type": "function"
    },
    {
      "inputs": [
        {
          "internalType": "uint256",
          "name": "bond_id",
          "type": "uint256"
        }
      ],
      "name": "ownerOf",
      "outputs": [
        {
          "internalType": "address",
          "name": "",
          "type": "address"
        }
      ],
      "stateMutability": "view",
      "type": "function"
    },
    {
      "inputs": [
        {
          "internalType": "address",
          "name": "from",
          "type": "address"
        },
        {
          "internalType": "address",
          "name": "to",
          "type": "address"
        },
        {
          "internalType": "uint256",
          "name": "bond_id",
          "type": "uint256"
        }
      ],
      "name": "safeTransferFrom",
      "outputs": [],
      "stateMutability": "nonpayable",
      "type": "function"
    },
    {
      "inputs": [
        {
          "internalType": "address",
          "name": "from",
          "type": "address"
        },
        {
          "internalType": "address",
          "name": "to",
          "type": "address"
        },
        {
          "internalType": "uint256",
          "name": "bond_id",
          "type": "uint256"
        },
        {
          "internalType": "bytes",
          "name": "_data",
          "type": "bytes"
        }
      ],
      "name": "safeTransferFrom",
      "outputs": [],
      "stateMutability": "nonpayable",
      "type": "function"
    },
    {
      "inputs": [
        {
          "internalType": "address",
          "name": "operator",
          "type": "address"
        },
        {
          "internalType": "bool",
          "name": "approved",
          "type": "bool"
        }
      ],
      "name": "setApprovalForAll",
      "outputs": [],
      "stateMutability": "nonpayable",
      "type": "function"
    },
    {
      "inputs": [
        {
          "internalType": "uint256",
          "name": "_in",
          "type": "uint256"
        }
      ],
      "name": "singular256Array",
      "outputs": [
        {
          "internalType": "uint256[]",
          "name": "_out",
          "type": "uint256[]"
        }
      ],
      "stateMutability": "pure",
      "type": "function"
    },
    {
      "inputs": [
        {
          "internalType": "uint256",
          "name": "bond_id",
          "type": "uint256"
        }
      ],
      "name": "splitBonds",
      "outputs": [
        {
          "internalType": "bool",
          "name": "",
          "type": "bool"
        }
      ],
      "stateMutability": "nonpayable",
      "type": "function"
    },
    {
      "inputs": [
        {
          "internalType": "bytes4",
          "name": "interfaceId",
          "type": "bytes4"
        }
      ],
      "name": "supportsInterface",
      "outputs": [
        {
          "internalType": "bool",
          "name": "",
          "type": "bool"
        }
      ],
      "stateMutability": "pure",
      "type": "function"
    },
    {
      "inputs": [],
      "name": "symbol",
      "outputs": [
        {
          "internalType": "string",
          "name": "",
          "type": "string"
        }
      ],
      "stateMutability": "pure",
      "type": "function"
    },
    {
      "inputs": [
        {
          "internalType": "uint256",
          "name": "bond_id",
          "type": "uint256"
        }
      ],
      "name": "tokenURI",
      "outputs": [
        {
          "internalType": "string",
          "name": "",
          "type": "string"
        }
      ],
      "stateMutability": "view",
      "type": "function"
    },
    {
      "inputs": [],
      "name": "totalSupply",
      "outputs": [
        {
          "internalType": "uint256",
          "name": "",
          "type": "uint256"
        }
      ],
      "stateMutability": "view",
      "type": "function"
    },
    {
      "inputs": [
        {
          "internalType": "address",
          "name": "from",
          "type": "address"
        },
        {
          "internalType": "address",
          "name": "to",
          "type": "address"
        },
        {
          "internalType": "uint256",
          "name": "bond_id",
          "type": "uint256"
        }
      ],
      "name": "transferFrom",
      "outputs": [],
      "stateMutability": "nonpayable",
      "type": "function"
    }
  ],
  "bytecode": "0x608060405260016002556040518060400160405280601a81526020017f68747470733a2f2f6165746865722e677572752f626f6e64732f00000000000081525060039080519060200190620000569291906200006b565b503480156200006457600080fd5b5062000180565b82805462000079906200011b565b90600052602060002090601f0160209004810192826200009d5760008555620000e9565b82601f10620000b857805160ff1916838001178555620000e9565b82800160010185558215620000e9579182015b82811115620000e8578251825591602001919060010190620000cb565b5b509050620000f89190620000fc565b5090565b5b8082111562000117576000816000905550600101620000fd565b5090565b600060028204905060018216806200013457607f821691505b602082108114156200014b576200014a62000151565b5b50919050565b7f4e487b7100000000000000000000000000000000000000000000000000000000600052602260045260246000fd5b61404b80620001906000396000f3fe608060405234801561001057600080fd5b50600436106101e55760003560e01c80635fd1cf261161010f578063c735e600116100a2578063e985e9c511610071578063e985e9c5146105ce578063ec238238146105fe578063eccda8df1461061c578063fdd5bca11461063a576101e5565b8063c735e60014610532578063c87b56dd14610562578063d5abeb0114610592578063dc601352146105b0576101e5565b806395d89b41116100de57806395d89b41146104ac578063a22cb465146104ca578063a74a3685146104e6578063b88d4fde14610516576101e5565b80635fd1cf26146103fe5780636352211e1461041c57806363f6de3e1461044c57806370a082311461047c576101e5565b806318160ddd1161018757806342842e0e1161015657806342842e0e1461037657806346f733f8146103925780634addb6a5146103b057806350ef7d20146103e0576101e5565b806318160ddd146102f057806323b872dd1461030e5780632fe24d361461032a578063404476d814610346576101e5565b8063081dd5ff116101c3578063081dd5ff14610268578063095ea7b3146102865780630c8ddd43146102a2578063177a6ce5146102d2576101e5565b806301ffc9a7146101ea57806306fdde031461021a578063081812fc14610238575b600080fd5b61020460048036038101906101ff9190612e65565b61066a565b6040516102119190613418565b60405180910390f35b6102226106d4565b60405161022f9190613433565b60405180910390f35b610252600480360381019061024d9190612ef8565b610711565b60405161025f919061338f565b60405180910390f35b610270610796565b60405161027d919061338f565b60405180910390f35b6102a0600480360381019061029b9190612de8565b61084e565b005b6102bc60048036038101906102b79190612c54565b610958565b6040516102c99190613695565b60405180910390f35b6102da6109f2565b6040516102e7919061338f565b60405180910390f35b6102f8610aaa565b6040516103059190613695565b60405180910390f35b61032860048036038101906103239190612ce2565b610ab4565b005b610344600480360381019061033f9190612eb7565b610b0d565b005b610360600480360381019061035b9190612e24565b610b9c565b60405161036d9190613418565b60405180910390f35b610390600480360381019061038b9190612ce2565b610ee2565b005b61039a610f02565b6040516103a7919061338f565b60405180910390f35b6103ca60048036038101906103c59190612de8565b610fba565b6040516103d79190613418565b60405180910390f35b6103e86111c9565b6040516103f59190613695565b60405180910390f35b6104066111d2565b604051610413919061338f565b60405180910390f35b61043660048036038101906104319190612ef8565b611289565b604051610443919061338f565b60405180910390f35b61046660048036038101906104619190612ef8565b61133b565b6040516104739190613418565b60405180910390f35b61049660048036038101906104919190612c54565b61161e565b6040516104a39190613695565b60405180910390f35b6104b46116d6565b6040516104c19190613433565b60405180910390f35b6104e460048036038101906104df9190612dac565b611713565b005b61050060048036038101906104fb9190612ef8565b61187f565b60405161050d919061338f565b60405180910390f35b610530600480360381019061052b9190612d31565b611900565b005b61054c60048036038101906105479190612ef8565b61195b565b60405161055991906133f6565b60405180910390f35b61057c60048036038101906105779190612ef8565b6119c6565b6040516105899190613433565b60405180910390f35b61059a611a42565b6040516105a79190613695565b60405180910390f35b6105b8611a4b565b6040516105c5919061338f565b60405180910390f35b6105e860048036038101906105e39190612ca6565b611b03565b6040516105f59190613418565b60405180910390f35b610606611b97565b604051610613919061338f565b60405180910390f35b610624611c4f565b604051610631919061338f565b60405180910390f35b610654600480360381019061064f9190612ef8565b611d07565b60405161066191906133f6565b60405180910390f35b60007fdc085f6a000000000000000000000000000000000000000000000000000000007bffffffffffffffffffffffffffffffffffffffffffffffffffffffff1916827bffffffffffffffffffffffffffffffffffffffffffffffffffffffff1916149050919050565b60606040518060400160405280600d81526020017f3078416574686572426f6e647300000000000000000000000000000000000000815250905090565b600061071c82611dc7565b61075b576040517f08c379a000000000000000000000000000000000000000000000000000000000815260040161075290613595565b60405180910390fd5b6006600083815260200190815260200160002060009054906101000a900473ffffffffffffffffffffffffffffffffffffffff169050919050565b60003073ffffffffffffffffffffffffffffffffffffffff163373ffffffffffffffffffffffffffffffffffffffff161415610807576040517f08c379a00000000000000000000000000000000000000000000000000000000081526004016107fe90613635565b60405180910390fd5b61084960016006811115610844577f4e487b7100000000000000000000000000000000000000000000000000000000600052602160045260246000fd5b611e33565b905090565b600061085982611289565b90508073ffffffffffffffffffffffffffffffffffffffff168373ffffffffffffffffffffffffffffffffffffffff1614156108ca576040517f08c379a00000000000000000000000000000000000000000000000000000000081526004016108c1906135f5565b60405180910390fd5b8073ffffffffffffffffffffffffffffffffffffffff163373ffffffffffffffffffffffffffffffffffffffff16148061090a57506109098133611b03565b5b610949576040517f08c379a000000000000000000000000000000000000000000000000000000000815260040161094090613535565b60405180910390fd5b6109538383611f88565b505050565b6000610962610f02565b73ffffffffffffffffffffffffffffffffffffffff163373ffffffffffffffffffffffffffffffffffffffff16146109cf576040517f08c379a00000000000000000000000000000000000000000000000000000000081526004016109c690613495565b60405180910390fd5b606460025411156109df57600080fd5b6109e882612041565b6002549050919050565b60003073ffffffffffffffffffffffffffffffffffffffff163373ffffffffffffffffffffffffffffffffffffffff161415610a63576040517f08c379a0000000000000000000000000000000000000000000000000000000008152600401610a5a90613635565b60405180910390fd5b610aa560046006811115610aa0577f4e487b7100000000000000000000000000000000000000000000000000000000600052602160045260246000fd5b611e33565b905090565b6000600254905090565b610abe338261229a565b610afd576040517f08c379a0000000000000000000000000000000000000000000000000000000008152600401610af490613615565b60405180910390fd5b610b08838383612378565b505050565b610b15611a4b565b73ffffffffffffffffffffffffffffffffffffffff163373ffffffffffffffffffffffffffffffffffffffff1614610b82576040517f08c379a0000000000000000000000000000000000000000000000000000000008152600401610b7990613655565b60405180910390fd5b8060039080519060200190610b9892919061295f565b5050565b6000610ba6610f02565b73ffffffffffffffffffffffffffffffffffffffff163373ffffffffffffffffffffffffffffffffffffffff1614610c13576040517f08c379a0000000000000000000000000000000000000000000000000000000008152600401610c0a90613495565b60405180910390fd5b60008251905060018111610c2657600080fd5b600083600081518110610c62577f4e487b7100000000000000000000000000000000000000000000000000000000600052603260045260246000fd5b602002602001015190506000610cb885600081518110610cab577f4e487b7100000000000000000000000000000000000000000000000000000000600052603260045260246000fd5b6020026020010151611289565b905060005b8551811015610e4b578173ffffffffffffffffffffffffffffffffffffffff16610d26878381518110610d19577f4e487b7100000000000000000000000000000000000000000000000000000000600052603260045260246000fd5b6020026020010151611289565b73ffffffffffffffffffffffffffffffffffffffff1614610d4657600080fd5b600060046000888481518110610d85577f4e487b7100000000000000000000000000000000000000000000000000000000600052603260045260246000fd5b6020026020010151815260200190815260200160002060006101000a81548173ffffffffffffffffffffffffffffffffffffffff021916908373ffffffffffffffffffffffffffffffffffffffff16021790555060076000878381518110610e16577f4e487b7100000000000000000000000000000000000000000000000000000000600052603260045260246000fd5b602002602001015181526020019081526020016000206000610e3891906129e5565b8080610e43906139c8565b915050610cbd565b50600183610e59919061387b565b600560008373ffffffffffffffffffffffffffffffffffffffff1673ffffffffffffffffffffffffffffffffffffffff1681526020019081526020016000206000828254610ea7919061387b565b9250508190555084600760008481526020019081526020016000209080519060200190610ed5929190612a06565b5060019350505050919050565b610efd83838360405180602001604052806000815250611900565b505050565b60003073ffffffffffffffffffffffffffffffffffffffff163373ffffffffffffffffffffffffffffffffffffffff161415610f73576040517f08c379a0000000000000000000000000000000000000000000000000000000008152600401610f6a90613635565b60405180910390fd5b610fb560056006811115610fb0577f4e487b7100000000000000000000000000000000000000000000000000000000600052602160045260246000fd5b611e33565b905090565b6000610fc4610f02565b73ffffffffffffffffffffffffffffffffffffffff163373ffffffffffffffffffffffffffffffffffffffff1614611031576040517f08c379a000000000000000000000000000000000000000000000000000000000815260040161102890613495565b60405180910390fd5b8273ffffffffffffffffffffffffffffffffffffffff1661105183611289565b73ffffffffffffffffffffffffffffffffffffffff16146110a7576040517f08c379a000000000000000000000000000000000000000000000000000000000815260040161109e90613675565b60405180910390fd5b6110b2600083611f88565b60006110bc610f02565b90506001600560008673ffffffffffffffffffffffffffffffffffffffff1673ffffffffffffffffffffffffffffffffffffffff168152602001908152602001600020600082825461110e919061387b565b925050819055506001600560008373ffffffffffffffffffffffffffffffffffffffff1673ffffffffffffffffffffffffffffffffffffffff168152602001908152602001600020600082825461116591906137f4565b92505081905550806004600085815260200190815260200160002060006101000a81548173ffffffffffffffffffffffffffffffffffffffff021916908373ffffffffffffffffffffffffffffffffffffffff160217905550600191505092915050565b60008054905090565b60003073ffffffffffffffffffffffffffffffffffffffff163373ffffffffffffffffffffffffffffffffffffffff161415611243576040517f08c379a000000000000000000000000000000000000000000000000000000000815260040161123a90613635565b60405180910390fd5b61128460068081111561127f577f4e487b7100000000000000000000000000000000000000000000000000000000600052602160045260246000fd5b611e33565b905090565b6000806004600084815260200190815260200160002060009054906101000a900473ffffffffffffffffffffffffffffffffffffffff169050600073ffffffffffffffffffffffffffffffffffffffff168173ffffffffffffffffffffffffffffffffffffffff161415611332576040517f08c379a000000000000000000000000000000000000000000000000000000000815260040161132990613575565b60405180910390fd5b80915050919050565b6000611345610f02565b73ffffffffffffffffffffffffffffffffffffffff163373ffffffffffffffffffffffffffffffffffffffff16146113b2576040517f08c379a00000000000000000000000000000000000000000000000000000000081526004016113a990613495565b60405180910390fd5b60006007600084815260200190815260200160002080548060200260200160405190810160405280929190818152602001828054801561141157602002820191906000526020600020905b8154815260200190600101908083116113fd575b50505050509050600081519050600061142985611289565b905060005b8281101561158b578160046000868481518110611474577f4e487b7100000000000000000000000000000000000000000000000000000000600052603260045260246000fd5b6020026020010151815260200190815260200160002060006101000a81548173ffffffffffffffffffffffffffffffffffffffff021916908373ffffffffffffffffffffffffffffffffffffffff160217905550611511848281518110611504577f4e487b7100000000000000000000000000000000000000000000000000000000600052603260045260246000fd5b6020026020010151611d07565b6007600086848151811061154e577f4e487b7100000000000000000000000000000000000000000000000000000000600052603260045260246000fd5b602002602001015181526020019081526020016000209080519060200190611577929190612a06565b508080611583906139c8565b91505061142e565b5081600560008373ffffffffffffffffffffffffffffffffffffffff1673ffffffffffffffffffffffffffffffffffffffff16815260200190815260200160002060008282546115db91906137f4565b925050819055506115eb85611d07565b600760008781526020019081526020016000209080519060200190611611929190612a06565b5060019350505050919050565b60008073ffffffffffffffffffffffffffffffffffffffff168273ffffffffffffffffffffffffffffffffffffffff16141561168f576040517f08c379a000000000000000000000000000000000000000000000000000000000815260040161168690613555565b60405180910390fd5b600560008373ffffffffffffffffffffffffffffffffffffffff1673ffffffffffffffffffffffffffffffffffffffff168152602001908152602001600020549050919050565b60606040518060400160405280600881526020017f307841426f6e6473000000000000000000000000000000000000000000000000815250905090565b3373ffffffffffffffffffffffffffffffffffffffff168273ffffffffffffffffffffffffffffffffffffffff161415611782576040517f08c379a0000000000000000000000000000000000000000000000000000000008152600401611779906134f5565b60405180910390fd5b80600860003373ffffffffffffffffffffffffffffffffffffffff1673ffffffffffffffffffffffffffffffffffffffff16815260200190815260200160002060008473ffffffffffffffffffffffffffffffffffffffff1673ffffffffffffffffffffffffffffffffffffffff16815260200190815260200160002060006101000a81548160ff0219169083151502179055508173ffffffffffffffffffffffffffffffffffffffff163373ffffffffffffffffffffffffffffffffffffffff167f17307eab39ab6107e8899845ad3d59bd9653f200f220920489ca2b5937696c31836040516118739190613418565b60405180910390a35050565b60003073ffffffffffffffffffffffffffffffffffffffff163373ffffffffffffffffffffffffffffffffffffffff1614156118f0576040517f08c379a00000000000000000000000000000000000000000000000000000000081526004016118e790613635565b60405180910390fd5b6118f982611e33565b9050919050565b61190a338361229a565b611949576040517f08c379a000000000000000000000000000000000000000000000000000000000815260040161194090613615565b60405180910390fd5b611955848484846125c9565b50505050565b6060600760008381526020019081526020016000208054806020026020016040519081016040528092919081815260200182805480156119ba57602002820191906000526020600020905b8154815260200190600101908083116119a6575b50505050509050919050565b60606119d182611dc7565b611a10576040517f08c379a0000000000000000000000000000000000000000000000000000000008152600401611a07906135d5565b60405180910390fd5b6003611a1b83612625565b604051602001611a2c92919061336b565b6040516020818303038152906040529050919050565b60006064905090565b60003073ffffffffffffffffffffffffffffffffffffffff163373ffffffffffffffffffffffffffffffffffffffff161415611abc576040517f08c379a0000000000000000000000000000000000000000000000000000000008152600401611ab390613635565b60405180910390fd5b611afe60026006811115611af9577f4e487b7100000000000000000000000000000000000000000000000000000000600052602160045260246000fd5b611e33565b905090565b6000600860008473ffffffffffffffffffffffffffffffffffffffff1673ffffffffffffffffffffffffffffffffffffffff16815260200190815260200160002060008373ffffffffffffffffffffffffffffffffffffffff1673ffffffffffffffffffffffffffffffffffffffff16815260200190815260200160002060009054906101000a900460ff16905092915050565b60003073ffffffffffffffffffffffffffffffffffffffff163373ffffffffffffffffffffffffffffffffffffffff161415611c08576040517f08c379a0000000000000000000000000000000000000000000000000000000008152600401611bff90613635565b60405180910390fd5b611c4a60006006811115611c45577f4e487b7100000000000000000000000000000000000000000000000000000000600052602160045260246000fd5b611e33565b905090565b60003073ffffffffffffffffffffffffffffffffffffffff163373ffffffffffffffffffffffffffffffffffffffff161415611cc0576040517f08c379a0000000000000000000000000000000000000000000000000000000008152600401611cb790613635565b60405180910390fd5b611d0260036006811115611cfd577f4e487b7100000000000000000000000000000000000000000000000000000000600052602160045260246000fd5b611e33565b905090565b6060600167ffffffffffffffff811115611d4a577f4e487b7100000000000000000000000000000000000000000000000000000000600052604160045260246000fd5b604051908082528060200260200182016040528015611d785781602001602082028036833780820191505090505b5090508181600081518110611db6577f4e487b7100000000000000000000000000000000000000000000000000000000600052603260045260246000fd5b602002602001018181525050919050565b60008073ffffffffffffffffffffffffffffffffffffffff166004600084815260200190815260200160002060009054906101000a900473ffffffffffffffffffffffffffffffffffffffff1673ffffffffffffffffffffffffffffffffffffffff1614159050919050565b6000600160009054906101000a900473ffffffffffffffffffffffffffffffffffffffff1673ffffffffffffffffffffffffffffffffffffffff1663a74a3685836040518263ffffffff1660e01b8152600401611e909190613695565b60206040518083038186803b158015611ea857600080fd5b505afa925050508015611ed957506040513d601f19601f82011682018060405250810190611ed69190612c7d565b60015b611f7e573d8060008114611f09576040519150601f19603f3d011682016040523d82523d6000602084013e611f0e565b606091505b506000831415611f4357600160009054906101000a900473ffffffffffffffffffffffffffffffffffffffff16915050611f83565b6040517f08c379a0000000000000000000000000000000000000000000000000000000008152600401611f7590613455565b60405180910390fd5b809150505b919050565b816006600083815260200190815260200160002060006101000a81548173ffffffffffffffffffffffffffffffffffffffff021916908373ffffffffffffffffffffffffffffffffffffffff160217905550808273ffffffffffffffffffffffffffffffffffffffff16611ffb83611289565b73ffffffffffffffffffffffffffffffffffffffff167f8c5be1e5ebec7d5bd14f71427d1e84f3dd0314c0f7b2291e5b200ac8c7c3b92560405160405180910390a45050565b61204c600254611dc7565b1561208c576040517f08c379a0000000000000000000000000000000000000000000000000000000008152600401612083906134b5565b60405180910390fd5b6001600560008373ffffffffffffffffffffffffffffffffffffffff1673ffffffffffffffffffffffffffffffffffffffff16815260200190815260200160002060008282546120dc91906137f4565b925050819055508060046000600254815260200190815260200160002060006101000a81548173ffffffffffffffffffffffffffffffffffffffff021916908373ffffffffffffffffffffffffffffffffffffffff1602179055506000600167ffffffffffffffff81111561217a577f4e487b7100000000000000000000000000000000000000000000000000000000600052604160045260246000fd5b6040519080825280602002602001820160405280156121a85781602001602082028036833780820191505090505b509050600254816000815181106121e8577f4e487b7100000000000000000000000000000000000000000000000000000000600052603260045260246000fd5b60200260200101818152505080600760006002548152602001908152602001600020908051906020019061221d929190612a06565b5060016002600082825461223191906137f4565b925050819055506002548273ffffffffffffffffffffffffffffffffffffffff16600073ffffffffffffffffffffffffffffffffffffffff167fddf252ad1be2c89b69c2b068fc378daa952ba7f163c4a11628f55a4df523b3ef60405160405180910390a45050565b60006122a582611dc7565b6122e4576040517f08c379a00000000000000000000000000000000000000000000000000000000081526004016122db90613515565b60405180910390fd5b60006122ef83611289565b90508073ffffffffffffffffffffffffffffffffffffffff168473ffffffffffffffffffffffffffffffffffffffff16148061235e57508373ffffffffffffffffffffffffffffffffffffffff1661234684610711565b73ffffffffffffffffffffffffffffffffffffffff16145b8061236f575061236e8185611b03565b5b91505092915050565b8273ffffffffffffffffffffffffffffffffffffffff1661239882611289565b73ffffffffffffffffffffffffffffffffffffffff16146123ee576040517f08c379a00000000000000000000000000000000000000000000000000000000081526004016123e5906135b5565b60405180910390fd5b600073ffffffffffffffffffffffffffffffffffffffff168273ffffffffffffffffffffffffffffffffffffffff16141561245e576040517f08c379a0000000000000000000000000000000000000000000000000000000008152600401612455906134d5565b60405180910390fd5b612469600082611f88565b6001600560008573ffffffffffffffffffffffffffffffffffffffff1673ffffffffffffffffffffffffffffffffffffffff16815260200190815260200160002060008282546124b9919061387b565b925050819055506001600560008473ffffffffffffffffffffffffffffffffffffffff1673ffffffffffffffffffffffffffffffffffffffff168152602001908152602001600020600082825461251091906137f4565b92505081905550816004600083815260200190815260200160002060006101000a81548173ffffffffffffffffffffffffffffffffffffffff021916908373ffffffffffffffffffffffffffffffffffffffff160217905550808273ffffffffffffffffffffffffffffffffffffffff168473ffffffffffffffffffffffffffffffffffffffff167fddf252ad1be2c89b69c2b068fc378daa952ba7f163c4a11628f55a4df523b3ef60405160405180910390a4505050565b6125d4848484612378565b6125e0848484846127d2565b61261f576040517f08c379a000000000000000000000000000000000000000000000000000000000815260040161261690613475565b60405180910390fd5b50505050565b6060600082141561266d576040518060400160405280600181526020017f300000000000000000000000000000000000000000000000000000000000000081525090506127cd565b600082905060005b6000821461269f578080612688906139c8565b915050600a82612698919061384a565b9150612675565b60008167ffffffffffffffff8111156126e1577f4e487b7100000000000000000000000000000000000000000000000000000000600052604160045260246000fd5b6040519080825280601f01601f1916602001820160405280156127135781602001600182028036833780820191505090505b5090505b600085146127c65760018261272c919061387b565b9150600a8561273b9190613a11565b603061274791906137f4565b60f81b818381518110612783577f4e487b7100000000000000000000000000000000000000000000000000000000600052603260045260246000fd5b60200101907effffffffffffffffffffffffffffffffffffffffffffffffffffffffffffff1916908160001a905350600a856127bf919061384a565b9450612717565b8093505050505b919050565b60006127dd8461294c565b1561293f578373ffffffffffffffffffffffffffffffffffffffff1663150b7a02338786866040518563ffffffff1660e01b815260040161282194939291906133aa565b602060405180830381600087803b15801561283b57600080fd5b505af192505050801561286c57506040513d601f19601f820116820180604052508101906128699190612e8e565b60015b6128ef573d806000811461289c576040519150601f19603f3d011682016040523d82523d6000602084013e6128a1565b606091505b506000815114156128e7576040517f08c379a00000000000000000000000000000000000000000000000000000000081526004016128de90613475565b60405180910390fd5b805181602001fd5b63150b7a0260e01b7bffffffffffffffffffffffffffffffffffffffffffffffffffffffff1916817bffffffffffffffffffffffffffffffffffffffffffffffffffffffff191614915050612944565b600190505b949350505050565b600080823b905060008111915050919050565b82805461296b90613965565b90600052602060002090601f01602090048101928261298d57600085556129d4565b82601f106129a657805160ff19168380011785556129d4565b828001600101855582156129d4579182015b828111156129d35782518255916020019190600101906129b8565b5b5090506129e19190612a53565b5090565b5080546000825590600052602060002090810190612a039190612a53565b50565b828054828255906000526020600020908101928215612a42579160200282015b82811115612a41578251825591602001919060010190612a26565b5b509050612a4f9190612a53565b5090565b5b80821115612a6c576000816000905550600101612a54565b5090565b6000612a83612a7e846136d5565b6136b0565b90508083825260208201905082856020860282011115612aa257600080fd5b60005b85811015612ad25781612ab88882612c3f565b845260208401935060208301925050600181019050612aa5565b5050509392505050565b6000612aef612aea84613701565b6136b0565b905082815260208101848484011115612b0757600080fd5b612b12848285613923565b509392505050565b6000612b2d612b2884613732565b6136b0565b905082815260208101848484011115612b4557600080fd5b612b50848285613923565b509392505050565b600081359050612b6781613fb9565b92915050565b600081519050612b7c81613fb9565b92915050565b600082601f830112612b9357600080fd5b8135612ba3848260208601612a70565b91505092915050565b600081359050612bbb81613fd0565b92915050565b600081359050612bd081613fe7565b92915050565b600081519050612be581613fe7565b92915050565b600082601f830112612bfc57600080fd5b8135612c0c848260208601612adc565b91505092915050565b600082601f830112612c2657600080fd5b8135612c36848260208601612b1a565b91505092915050565b600081359050612c4e81613ffe565b92915050565b600060208284031215612c6657600080fd5b6000612c7484828501612b58565b91505092915050565b600060208284031215612c8f57600080fd5b6000612c9d84828501612b6d565b91505092915050565b60008060408385031215612cb957600080fd5b6000612cc785828601612b58565b9250506020612cd885828601612b58565b9150509250929050565b600080600060608486031215612cf757600080fd5b6000612d0586828701612b58565b9350506020612d1686828701612b58565b9250506040612d2786828701612c3f565b9150509250925092565b60008060008060808587031215612d4757600080fd5b6000612d5587828801612b58565b9450506020612d6687828801612b58565b9350506040612d7787828801612c3f565b925050606085013567ffffffffffffffff811115612d9457600080fd5b612da087828801612beb565b91505092959194509250565b60008060408385031215612dbf57600080fd5b6000612dcd85828601612b58565b9250506020612dde85828601612bac565b9150509250929050565b60008060408385031215612dfb57600080fd5b6000612e0985828601612b58565b9250506020612e1a85828601612c3f565b9150509250929050565b600060208284031215612e3657600080fd5b600082013567ffffffffffffffff811115612e5057600080fd5b612e5c84828501612b82565b91505092915050565b600060208284031215612e7757600080fd5b6000612e8584828501612bc1565b91505092915050565b600060208284031215612ea057600080fd5b6000612eae84828501612bd6565b91505092915050565b600060208284031215612ec957600080fd5b600082013567ffffffffffffffff811115612ee357600080fd5b612eef84828501612c15565b91505092915050565b600060208284031215612f0a57600080fd5b6000612f1884828501612c3f565b91505092915050565b6000612f2d838361334d565b60208301905092915050565b612f42816138af565b82525050565b6000612f5382613788565b612f5d81856137b6565b9350612f6883613763565b8060005b83811015612f99578151612f808882612f21565b9750612f8b836137a9565b925050600181019050612f6c565b5085935050505092915050565b612faf816138c1565b82525050565b6000612fc082613793565b612fca81856137c7565b9350612fda818560208601613932565b612fe381613afe565b840191505092915050565b6000612ff98261379e565b61300381856137d8565b9350613013818560208601613932565b61301c81613afe565b840191505092915050565b60006130328261379e565b61303c81856137e9565b935061304c818560208601613932565b80840191505092915050565b6000815461306581613965565b61306f81866137e9565b9450600182166000811461308a576001811461309b576130ce565b60ff198316865281860193506130ce565b6130a485613773565b60005b838110156130c6578154818901526001820191506020810190506130a7565b838801955050505b50505092915050565b60006130e4601d836137d8565b91506130ef82613b0f565b602082019050919050565b60006131076032836137d8565b915061311282613b38565b604082019050919050565b600061312a600a836137d8565b915061313582613b87565b602082019050919050565b600061314d601c836137d8565b915061315882613bb0565b602082019050919050565b60006131706024836137d8565b915061317b82613bd9565b604082019050919050565b60006131936019836137d8565b915061319e82613c28565b602082019050919050565b60006131b6602c836137d8565b91506131c182613c51565b604082019050919050565b60006131d96038836137d8565b91506131e482613ca0565b604082019050919050565b60006131fc602a836137d8565b915061320782613cef565b604082019050919050565b600061321f6029836137d8565b915061322a82613d3e565b604082019050919050565b6000613242602c836137d8565b915061324d82613d8d565b604082019050919050565b60006132656029836137d8565b915061327082613ddc565b604082019050919050565b6000613288602f836137d8565b915061329382613e2b565b604082019050919050565b60006132ab6021836137d8565b91506132b682613e7a565b604082019050919050565b60006132ce6031836137d8565b91506132d982613ec9565b604082019050919050565b60006132f1600e836137d8565b91506132fc82613f18565b602082019050919050565b60006133146007836137d8565b915061331f82613f41565b602082019050919050565b6000613337602b836137d8565b915061334282613f6a565b604082019050919050565b61335681613919565b82525050565b61336581613919565b82525050565b60006133778285613058565b91506133838284613027565b91508190509392505050565b60006020820190506133a46000830184612f39565b92915050565b60006080820190506133bf6000830187612f39565b6133cc6020830186612f39565b6133d9604083018561335c565b81810360608301526133eb8184612fb5565b905095945050505050565b600060208201905081810360008301526134108184612f48565b905092915050565b600060208201905061342d6000830184612fa6565b92915050565b6000602082019050818103600083015261344d8184612fee565b905092915050565b6000602082019050818103600083015261346e816130d7565b9050919050565b6000602082019050818103600083015261348e816130fa565b9050919050565b600060208201905081810360008301526134ae8161311d565b9050919050565b600060208201905081810360008301526134ce81613140565b9050919050565b600060208201905081810360008301526134ee81613163565b9050919050565b6000602082019050818103600083015261350e81613186565b9050919050565b6000602082019050818103600083015261352e816131a9565b9050919050565b6000602082019050818103600083015261354e816131cc565b9050919050565b6000602082019050818103600083015261356e816131ef565b9050919050565b6000602082019050818103600083015261358e81613212565b9050919050565b600060208201905081810360008301526135ae81613235565b9050919050565b600060208201905081810360008301526135ce81613258565b9050919050565b600060208201905081810360008301526135ee8161327b565b9050919050565b6000602082019050818103600083015261360e8161329e565b9050919050565b6000602082019050818103600083015261362e816132c1565b9050919050565b6000602082019050818103600083015261364e816132e4565b9050919050565b6000602082019050818103600083015261366e81613307565b9050919050565b6000602082019050818103600083015261368e8161332a565b9050919050565b60006020820190506136aa600083018461335c565b92915050565b60006136ba6136cb565b90506136c68282613997565b919050565b6000604051905090565b600067ffffffffffffffff8211156136f0576136ef613acf565b5b602082029050602081019050919050565b600067ffffffffffffffff82111561371c5761371b613acf565b5b61372582613afe565b9050602081019050919050565b600067ffffffffffffffff82111561374d5761374c613acf565b5b61375682613afe565b9050602081019050919050565b6000819050602082019050919050565b60008190508160005260206000209050919050565b600081519050919050565b600081519050919050565b600081519050919050565b6000602082019050919050565b600082825260208201905092915050565b600082825260208201905092915050565b600082825260208201905092915050565b600081905092915050565b60006137ff82613919565b915061380a83613919565b9250827fffffffffffffffffffffffffffffffffffffffffffffffffffffffffffffffff0382111561383f5761383e613a42565b5b828201905092915050565b600061385582613919565b915061386083613919565b9250826138705761386f613a71565b5b828204905092915050565b600061388682613919565b915061389183613919565b9250828210156138a4576138a3613a42565b5b828203905092915050565b60006138ba826138f9565b9050919050565b60008115159050919050565b60007fffffffff0000000000000000000000000000000000000000000000000000000082169050919050565b600073ffffffffffffffffffffffffffffffffffffffff82169050919050565b6000819050919050565b82818337600083830152505050565b60005b83811015613950578082015181840152602081019050613935565b8381111561395f576000848401525b50505050565b6000600282049050600182168061397d57607f821691505b6020821081141561399157613990613aa0565b5b50919050565b6139a082613afe565b810181811067ffffffffffffffff821117156139bf576139be613acf565b5b80604052505050565b60006139d382613919565b91507fffffffffffffffffffffffffffffffffffffffffffffffffffffffffffffffff821415613a0657613a05613a42565b5b600182019050919050565b6000613a1c82613919565b9150613a2783613919565b925082613a3757613a36613a71565b5b828206905092915050565b7f4e487b7100000000000000000000000000000000000000000000000000000000600052601160045260246000fd5b7f4e487b7100000000000000000000000000000000000000000000000000000000600052601260045260246000fd5b7f4e487b7100000000000000000000000000000000000000000000000000000000600052602260045260246000fd5b7f4e487b7100000000000000000000000000000000000000000000000000000000600052604160045260246000fd5b6000601f19601f8301169050919050565b7f41657468657220436f6e7472616374204944204e6f7420526f75746564000000600082015250565b7f4552433732313a207472616e7366657220746f206e6f6e20455243373231526560008201527f63656976657220696d706c656d656e7465720000000000000000000000000000602082015250565b7f4f6e6c794b656570657200000000000000000000000000000000000000000000600082015250565b7f4552433732313a20746f6b656e20616c7265616479206d696e74656400000000600082015250565b7f4552433732313a207472616e7366657220746f20746865207a65726f2061646460008201527f7265737300000000000000000000000000000000000000000000000000000000602082015250565b7f4552433732313a20617070726f766520746f2063616c6c657200000000000000600082015250565b7f4552433732313a206f70657261746f7220717565727920666f72206e6f6e657860008201527f697374656e7420746f6b656e0000000000000000000000000000000000000000602082015250565b7f4552433732313a20617070726f76652063616c6c6572206973206e6f74206f7760008201527f6e6572206e6f7220617070726f76656420666f7220616c6c0000000000000000602082015250565b7f4552433732313a2062616c616e636520717565727920666f7220746865207a6560008201527f726f206164647265737300000000000000000000000000000000000000000000602082015250565b7f4552433732313a206f776e657220717565727920666f72206e6f6e657869737460008201527f656e7420746f6b656e0000000000000000000000000000000000000000000000602082015250565b7f4552433732313a20617070726f76656420717565727920666f72206e6f6e657860008201527f697374656e7420746f6b656e0000000000000000000000000000000000000000602082015250565b7f4552433732313a207472616e73666572206f6620746f6b656e2074686174206960008201527f73206e6f74206f776e0000000000000000000000000000000000000000000000602082015250565b7f4552433732314d657461646174613a2055524920717565727920666f72206e6f60008201527f6e6578697374656e7420746f6b656e0000000000000000000000000000000000602082015250565b7f4552433732313a20617070726f76616c20746f2063757272656e74206f776e6560008201527f7200000000000000000000000000000000000000000000000000000000000000602082015250565b7f4552433732313a207472616e736665722063616c6c6572206973206e6f74206f60008201527f776e6572206e6f7220617070726f766564000000000000000000000000000000602082015250565b7f726563757373696f6e2076696577000000000000000000000000000000000000600082015250565b7f4f6e6c7944414f00000000000000000000000000000000000000000000000000600082015250565b7f416574686572426f6e6473203a3a2063616e206f6e6c792064656661756c742060008201527f6f776e656420626f6e6473000000000000000000000000000000000000000000602082015250565b613fc2816138af565b8114613fcd57600080fd5b50565b613fd9816138c1565b8114613fe457600080fd5b50565b613ff0816138cd565b8114613ffb57600080fd5b50565b61400781613919565b811461401257600080fd5b5056fea26469706673582212202616e3fc3fa6c0bf419c1766a906a6ff93262de05ef415eb23c1a5200e6dffd764736f6c63430008040033",
  "linkReferences": {},
  "deployedLinkReferences": {}
}