{
  "contracts/phase.sol": {
    "Phase": {
      "abi": [
        {
          "anonymous": false,
          "inputs": [
            {
              "indexed": false,
              "internalType": "bytes32",
              "name": "AccessPath",
              "type": "bytes32"
            },
            {
              "indexed": false,
              "internalType": "bytes",
              "name": "data",
              "type": "bytes"
            },
            {
              "indexed": true,
              "internalType": "address",
              "name": "Sender",
              "type": "address"
            },
            {
              "indexed": true,
              "internalType": "address",
              "name": "Caller",
              "type": "address"
            },
            {
              "indexed": false,
              "internalType": "bytes32",
              "name": "Exec",
              "type": "bytes32"
            }
          ],
          "name": "Phase",
          "type": "event"
        },
        {
          "inputs": [],
          "name": "_accessPath",
          "outputs": [
            {
              "internalType": "bytes32",
              "name": "",
              "type": "bytes32"
            }
          ],
          "stateMutability": "view",
          "type": "function"
        },
        {
          "inputs": [],
          "name": "_caller",
          "outputs": [
            {
              "internalType": "address",
              "name": "",
              "type": "address"
            }
          ],
          "stateMutability": "view",
          "type": "function"
        },
        {
          "inputs": [],
          "name": "_data",
          "outputs": [
            {
              "internalType": "bytes32",
              "name": "",
              "type": "bytes32"
            }
          ],
          "stateMutability": "view",
          "type": "function"
        },
        {
          "inputs": [],
          "name": "_exec",
          "outputs": [
            {
              "internalType": "string",
              "name": "",
              "type": "string"
            }
          ],
          "stateMutability": "view",
          "type": "function"
        },
        {
          "inputs": [],
          "name": "_sender",
          "outputs": [
            {
              "internalType": "address",
              "name": "",
              "type": "address"
            }
          ],
          "stateMutability": "view",
          "type": "function"
        },
        {
          "inputs": [
            {
              "internalType": "bytes32",
              "name": "aP",
              "type": "bytes32"
            },
            {
              "internalType": "bytes",
              "name": "da",
              "type": "bytes"
            },
            {
              "internalType": "address",
              "name": "se",
              "type": "address"
            },
            {
              "internalType": "address",
              "name": "ca",
              "type": "address"
            },
            {
              "internalType": "bytes32",
              "name": "exec",
              "type": "bytes32"
            }
          ],
          "name": "testPhase",
          "outputs": [
            {
              "internalType": "bool",
              "name": "",
              "type": "bool"
            }
          ],
          "stateMutability": "nonpayable",
          "type": "function"
        }
      ],
      "evm": {
        "bytecode": {
          "linkReferences": {},
          "object": "608060405234801561001057600080fd5b5061076e806100206000396000f3fe608060405234801561001057600080fd5b50600436106100625760003560e01c80630d3333cd146100675780635cb343221461009757806368beab3f146100b5578063955b8ffc146100d3578063a149b2c0146100f1578063cbd494621461010f575b600080fd5b610081600480360381019061007c9190610479565b61012d565b60405161008e919061052b565b60405180910390f35b61009f6101a5565b6040516100ac9190610555565b60405180910390f35b6100bd6101ab565b6040516100ca9190610555565b60405180910390f35b6100db6101b1565b6040516100e891906105f8565b60405180910390f35b6100f961023f565b6040516101069190610629565b60405180910390f35b610117610265565b6040516101249190610629565b60405180910390f35b60008273ffffffffffffffffffffffffffffffffffffffff168473ffffffffffffffffffffffffffffffffffffffff167fa4b9c2c41c3e983dd8e168695f169f9871ef6c7e129297c9964ffebd1d6a2c3a88888660405161019093929190610699565b60405180910390a36001905095945050505050565b60005481565b60015481565b600480546101be90610706565b80601f01602080910402602001604051908101604052809291908181526020018280546101ea90610706565b80156102375780601f1061020c57610100808354040283529160200191610237565b820191906000526020600020905b81548152906001019060200180831161021a57829003601f168201915b505050505081565b600360009054906101000a900473ffffffffffffffffffffffffffffffffffffffff1681565b600260009054906101000a900473ffffffffffffffffffffffffffffffffffffffff1681565b6000604051905090565b600080fd5b600080fd5b6000819050919050565b6102b28161029f565b81146102bd57600080fd5b50565b6000813590506102cf816102a9565b92915050565b600080fd5b600080fd5b6000601f19601f8301169050919050565b7f4e487b7100000000000000000000000000000000000000000000000000000000600052604160045260246000fd5b610328826102df565b810181811067ffffffffffffffff82111715610347576103466102f0565b5b80604052505050565b600061035a61028b565b9050610366828261031f565b919050565b600067ffffffffffffffff821115610386576103856102f0565b5b61038f826102df565b9050602081019050919050565b82818337600083830152505050565b60006103be6103b98461036b565b610350565b9050828152602081018484840111156103da576103d96102da565b5b6103e584828561039c565b509392505050565b600082601f830112610402576104016102d5565b5b81356104128482602086016103ab565b91505092915050565b600073ffffffffffffffffffffffffffffffffffffffff82169050919050565b60006104468261041b565b9050919050565b6104568161043b565b811461046157600080fd5b50565b6000813590506104738161044d565b92915050565b600080600080600060a0868803121561049557610494610295565b5b60006104a3888289016102c0565b955050602086013567ffffffffffffffff8111156104c4576104c361029a565b5b6104d0888289016103ed565b94505060406104e188828901610464565b93505060606104f288828901610464565b9250506080610503888289016102c0565b9150509295509295909350565b60008115159050919050565b61052581610510565b82525050565b6000602082019050610540600083018461051c565b92915050565b61054f8161029f565b82525050565b600060208201905061056a6000830184610546565b92915050565b600081519050919050565b600082825260208201905092915050565b60005b838110156105aa57808201518184015260208101905061058f565b838111156105b9576000848401525b50505050565b60006105ca82610570565b6105d4818561057b565b93506105e481856020860161058c565b6105ed816102df565b840191505092915050565b6000602082019050818103600083015261061281846105bf565b905092915050565b6106238161043b565b82525050565b600060208201905061063e600083018461061a565b92915050565b600081519050919050565b600082825260208201905092915050565b600061066b82610644565b610675818561064f565b935061068581856020860161058c565b61068e816102df565b840191505092915050565b60006060820190506106ae6000830186610546565b81810360208301526106c08185610660565b90506106cf6040830184610546565b949350505050565b7f4e487b7100000000000000000000000000000000000000000000000000000000600052602260045260246000fd5b6000600282049050600182168061071e57607f821691505b60208210811415610732576107316106d7565b5b5091905056fea26469706673582212206eefff7a51395a9641c6a7058a6c5b001abb63cfe02822335b39e5ebf2e6271564736f6c63430008090033",
          "opcodes": "PUSH1 0x80 PUSH1 0x40 MSTORE CALLVALUE DUP1 ISZERO PUSH2 0x10 JUMPI PUSH1 0x0 DUP1 REVERT JUMPDEST POP PUSH2 0x76E DUP1 PUSH2 0x20 PUSH1 0x0 CODECOPY PUSH1 0x0 RETURN INVALID PUSH1 0x80 PUSH1 0x40 MSTORE CALLVALUE DUP1 ISZERO PUSH2 0x10 JUMPI PUSH1 0x0 DUP1 REVERT JUMPDEST POP PUSH1 0x4 CALLDATASIZE LT PUSH2 0x62 JUMPI PUSH1 0x0 CALLDATALOAD PUSH1 0xE0 SHR DUP1 PUSH4 0xD3333CD EQ PUSH2 0x67 JUMPI DUP1 PUSH4 0x5CB34322 EQ PUSH2 0x97 JUMPI DUP1 PUSH4 0x68BEAB3F EQ PUSH2 0xB5 JUMPI DUP1 PUSH4 0x955B8FFC EQ PUSH2 0xD3 JUMPI DUP1 PUSH4 0xA149B2C0 EQ PUSH2 0xF1 JUMPI DUP1 PUSH4 0xCBD49462 EQ PUSH2 0x10F JUMPI JUMPDEST PUSH1 0x0 DUP1 REVERT JUMPDEST PUSH2 0x81 PUSH1 0x4 DUP1 CALLDATASIZE SUB DUP2 ADD SWAP1 PUSH2 0x7C SWAP2 SWAP1 PUSH2 0x479 JUMP JUMPDEST PUSH2 0x12D JUMP JUMPDEST PUSH1 0x40 MLOAD PUSH2 0x8E SWAP2 SWAP1 PUSH2 0x52B JUMP JUMPDEST PUSH1 0x40 MLOAD DUP1 SWAP2 SUB SWAP1 RETURN JUMPDEST PUSH2 0x9F PUSH2 0x1A5 JUMP JUMPDEST PUSH1 0x40 MLOAD PUSH2 0xAC SWAP2 SWAP1 PUSH2 0x555 JUMP JUMPDEST PUSH1 0x40 MLOAD DUP1 SWAP2 SUB SWAP1 RETURN JUMPDEST PUSH2 0xBD PUSH2 0x1AB JUMP JUMPDEST PUSH1 0x40 MLOAD PUSH2 0xCA SWAP2 SWAP1 PUSH2 0x555 JUMP JUMPDEST PUSH1 0x40 MLOAD DUP1 SWAP2 SUB SWAP1 RETURN JUMPDEST PUSH2 0xDB PUSH2 0x1B1 JUMP JUMPDEST PUSH1 0x40 MLOAD PUSH2 0xE8 SWAP2 SWAP1 PUSH2 0x5F8 JUMP JUMPDEST PUSH1 0x40 MLOAD DUP1 SWAP2 SUB SWAP1 RETURN JUMPDEST PUSH2 0xF9 PUSH2 0x23F JUMP JUMPDEST PUSH1 0x40 MLOAD PUSH2 0x106 SWAP2 SWAP1 PUSH2 0x629 JUMP JUMPDEST PUSH1 0x40 MLOAD DUP1 SWAP2 SUB SWAP1 RETURN JUMPDEST PUSH2 0x117 PUSH2 0x265 JUMP JUMPDEST PUSH1 0x40 MLOAD PUSH2 0x124 SWAP2 SWAP1 PUSH2 0x629 JUMP JUMPDEST PUSH1 0x40 MLOAD DUP1 SWAP2 SUB SWAP1 RETURN JUMPDEST PUSH1 0x0 DUP3 PUSH20 0xFFFFFFFFFFFFFFFFFFFFFFFFFFFFFFFFFFFFFFFF AND DUP5 PUSH20 0xFFFFFFFFFFFFFFFFFFFFFFFFFFFFFFFFFFFFFFFF AND PUSH32 0xA4B9C2C41C3E983DD8E168695F169F9871EF6C7E129297C9964FFEBD1D6A2C3A DUP9 DUP9 DUP7 PUSH1 0x40 MLOAD PUSH2 0x190 SWAP4 SWAP3 SWAP2 SWAP1 PUSH2 0x699 JUMP JUMPDEST PUSH1 0x40 MLOAD DUP1 SWAP2 SUB SWAP1 LOG3 PUSH1 0x1 SWAP1 POP SWAP6 SWAP5 POP POP POP POP POP JUMP JUMPDEST PUSH1 0x0 SLOAD DUP2 JUMP JUMPDEST PUSH1 0x1 SLOAD DUP2 JUMP JUMPDEST PUSH1 0x4 DUP1 SLOAD PUSH2 0x1BE SWAP1 PUSH2 0x706 JUMP JUMPDEST DUP1 PUSH1 0x1F ADD PUSH1 0x20 DUP1 SWAP2 DIV MUL PUSH1 0x20 ADD PUSH1 0x40 MLOAD SWAP1 DUP2 ADD PUSH1 0x40 MSTORE DUP1 SWAP3 SWAP2 SWAP1 DUP2 DUP2 MSTORE PUSH1 0x20 ADD DUP3 DUP1 SLOAD PUSH2 0x1EA SWAP1 PUSH2 0x706 JUMP JUMPDEST DUP1 ISZERO PUSH2 0x237 JUMPI DUP1 PUSH1 0x1F LT PUSH2 0x20C JUMPI PUSH2 0x100 DUP1 DUP4 SLOAD DIV MUL DUP4 MSTORE SWAP2 PUSH1 0x20 ADD SWAP2 PUSH2 0x237 JUMP JUMPDEST DUP3 ADD SWAP2 SWAP1 PUSH1 0x0 MSTORE PUSH1 0x20 PUSH1 0x0 KECCAK256 SWAP1 JUMPDEST DUP2 SLOAD DUP2 MSTORE SWAP1 PUSH1 0x1 ADD SWAP1 PUSH1 0x20 ADD DUP1 DUP4 GT PUSH2 0x21A JUMPI DUP3 SWAP1 SUB PUSH1 0x1F AND DUP3 ADD SWAP2 JUMPDEST POP POP POP POP POP DUP2 JUMP JUMPDEST PUSH1 0x3 PUSH1 0x0 SWAP1 SLOAD SWAP1 PUSH2 0x100 EXP SWAP1 DIV PUSH20 0xFFFFFFFFFFFFFFFFFFFFFFFFFFFFFFFFFFFFFFFF AND DUP2 JUMP JUMPDEST PUSH1 0x2 PUSH1 0x0 SWAP1 SLOAD SWAP1 PUSH2 0x100 EXP SWAP1 DIV PUSH20 0xFFFFFFFFFFFFFFFFFFFFFFFFFFFFFFFFFFFFFFFF AND DUP2 JUMP JUMPDEST PUSH1 0x0 PUSH1 0x40 MLOAD SWAP1 POP SWAP1 JUMP JUMPDEST PUSH1 0x0 DUP1 REVERT JUMPDEST PUSH1 0x0 DUP1 REVERT JUMPDEST PUSH1 0x0 DUP2 SWAP1 POP SWAP2 SWAP1 POP JUMP JUMPDEST PUSH2 0x2B2 DUP2 PUSH2 0x29F JUMP JUMPDEST DUP2 EQ PUSH2 0x2BD JUMPI PUSH1 0x0 DUP1 REVERT JUMPDEST POP JUMP JUMPDEST PUSH1 0x0 DUP2 CALLDATALOAD SWAP1 POP PUSH2 0x2CF DUP2 PUSH2 0x2A9 JUMP JUMPDEST SWAP3 SWAP2 POP POP JUMP JUMPDEST PUSH1 0x0 DUP1 REVERT JUMPDEST PUSH1 0x0 DUP1 REVERT JUMPDEST PUSH1 0x0 PUSH1 0x1F NOT PUSH1 0x1F DUP4 ADD AND SWAP1 POP SWAP2 SWAP1 POP JUMP JUMPDEST PUSH32 0x4E487B7100000000000000000000000000000000000000000000000000000000 PUSH1 0x0 MSTORE PUSH1 0x41 PUSH1 0x4 MSTORE PUSH1 0x24 PUSH1 0x0 REVERT JUMPDEST PUSH2 0x328 DUP3 PUSH2 0x2DF JUMP JUMPDEST DUP2 ADD DUP2 DUP2 LT PUSH8 0xFFFFFFFFFFFFFFFF DUP3 GT OR ISZERO PUSH2 0x347 JUMPI PUSH2 0x346 PUSH2 0x2F0 JUMP JUMPDEST JUMPDEST DUP1 PUSH1 0x40 MSTORE POP POP POP JUMP JUMPDEST PUSH1 0x0 PUSH2 0x35A PUSH2 0x28B JUMP JUMPDEST SWAP1 POP PUSH2 0x366 DUP3 DUP3 PUSH2 0x31F JUMP JUMPDEST SWAP2 SWAP1 POP JUMP JUMPDEST PUSH1 0x0 PUSH8 0xFFFFFFFFFFFFFFFF DUP3 GT ISZERO PUSH2 0x386 JUMPI PUSH2 0x385 PUSH2 0x2F0 JUMP JUMPDEST JUMPDEST PUSH2 0x38F DUP3 PUSH2 0x2DF JUMP JUMPDEST SWAP1 POP PUSH1 0x20 DUP2 ADD SWAP1 POP SWAP2 SWAP1 POP JUMP JUMPDEST DUP3 DUP2 DUP4 CALLDATACOPY PUSH1 0x0 DUP4 DUP4 ADD MSTORE POP POP POP JUMP JUMPDEST PUSH1 0x0 PUSH2 0x3BE PUSH2 0x3B9 DUP5 PUSH2 0x36B JUMP JUMPDEST PUSH2 0x350 JUMP JUMPDEST SWAP1 POP DUP3 DUP2 MSTORE PUSH1 0x20 DUP2 ADD DUP5 DUP5 DUP5 ADD GT ISZERO PUSH2 0x3DA JUMPI PUSH2 0x3D9 PUSH2 0x2DA JUMP JUMPDEST JUMPDEST PUSH2 0x3E5 DUP5 DUP3 DUP6 PUSH2 0x39C JUMP JUMPDEST POP SWAP4 SWAP3 POP POP POP JUMP JUMPDEST PUSH1 0x0 DUP3 PUSH1 0x1F DUP4 ADD SLT PUSH2 0x402 JUMPI PUSH2 0x401 PUSH2 0x2D5 JUMP JUMPDEST JUMPDEST DUP2 CALLDATALOAD PUSH2 0x412 DUP5 DUP3 PUSH1 0x20 DUP7 ADD PUSH2 0x3AB JUMP JUMPDEST SWAP2 POP POP SWAP3 SWAP2 POP POP JUMP JUMPDEST PUSH1 0x0 PUSH20 0xFFFFFFFFFFFFFFFFFFFFFFFFFFFFFFFFFFFFFFFF DUP3 AND SWAP1 POP SWAP2 SWAP1 POP JUMP JUMPDEST PUSH1 0x0 PUSH2 0x446 DUP3 PUSH2 0x41B JUMP JUMPDEST SWAP1 POP SWAP2 SWAP1 POP JUMP JUMPDEST PUSH2 0x456 DUP2 PUSH2 0x43B JUMP JUMPDEST DUP2 EQ PUSH2 0x461 JUMPI PUSH1 0x0 DUP1 REVERT JUMPDEST POP JUMP JUMPDEST PUSH1 0x0 DUP2 CALLDATALOAD SWAP1 POP PUSH2 0x473 DUP2 PUSH2 0x44D JUMP JUMPDEST SWAP3 SWAP2 POP POP JUMP JUMPDEST PUSH1 0x0 DUP1 PUSH1 0x0 DUP1 PUSH1 0x0 PUSH1 0xA0 DUP7 DUP9 SUB SLT ISZERO PUSH2 0x495 JUMPI PUSH2 0x494 PUSH2 0x295 JUMP JUMPDEST JUMPDEST PUSH1 0x0 PUSH2 0x4A3 DUP9 DUP3 DUP10 ADD PUSH2 0x2C0 JUMP JUMPDEST SWAP6 POP POP PUSH1 0x20 DUP7 ADD CALLDATALOAD PUSH8 0xFFFFFFFFFFFFFFFF DUP2 GT ISZERO PUSH2 0x4C4 JUMPI PUSH2 0x4C3 PUSH2 0x29A JUMP JUMPDEST JUMPDEST PUSH2 0x4D0 DUP9 DUP3 DUP10 ADD PUSH2 0x3ED JUMP JUMPDEST SWAP5 POP POP PUSH1 0x40 PUSH2 0x4E1 DUP9 DUP3 DUP10 ADD PUSH2 0x464 JUMP JUMPDEST SWAP4 POP POP PUSH1 0x60 PUSH2 0x4F2 DUP9 DUP3 DUP10 ADD PUSH2 0x464 JUMP JUMPDEST SWAP3 POP POP PUSH1 0x80 PUSH2 0x503 DUP9 DUP3 DUP10 ADD PUSH2 0x2C0 JUMP JUMPDEST SWAP2 POP POP SWAP3 SWAP6 POP SWAP3 SWAP6 SWAP1 SWAP4 POP JUMP JUMPDEST PUSH1 0x0 DUP2 ISZERO ISZERO SWAP1 POP SWAP2 SWAP1 POP JUMP JUMPDEST PUSH2 0x525 DUP2 PUSH2 0x510 JUMP JUMPDEST DUP3 MSTORE POP POP JUMP JUMPDEST PUSH1 0x0 PUSH1 0x20 DUP3 ADD SWAP1 POP PUSH2 0x540 PUSH1 0x0 DUP4 ADD DUP5 PUSH2 0x51C JUMP JUMPDEST SWAP3 SWAP2 POP POP JUMP JUMPDEST PUSH2 0x54F DUP2 PUSH2 0x29F JUMP JUMPDEST DUP3 MSTORE POP POP JUMP JUMPDEST PUSH1 0x0 PUSH1 0x20 DUP3 ADD SWAP1 POP PUSH2 0x56A PUSH1 0x0 DUP4 ADD DUP5 PUSH2 0x546 JUMP JUMPDEST SWAP3 SWAP2 POP POP JUMP JUMPDEST PUSH1 0x0 DUP2 MLOAD SWAP1 POP SWAP2 SWAP1 POP JUMP JUMPDEST PUSH1 0x0 DUP3 DUP3 MSTORE PUSH1 0x20 DUP3 ADD SWAP1 POP SWAP3 SWAP2 POP POP JUMP JUMPDEST PUSH1 0x0 JUMPDEST DUP4 DUP2 LT ISZERO PUSH2 0x5AA JUMPI DUP1 DUP3 ADD MLOAD DUP2 DUP5 ADD MSTORE PUSH1 0x20 DUP2 ADD SWAP1 POP PUSH2 0x58F JUMP JUMPDEST DUP4 DUP2 GT ISZERO PUSH2 0x5B9 JUMPI PUSH1 0x0 DUP5 DUP5 ADD MSTORE JUMPDEST POP POP POP POP JUMP JUMPDEST PUSH1 0x0 PUSH2 0x5CA DUP3 PUSH2 0x570 JUMP JUMPDEST PUSH2 0x5D4 DUP2 DUP6 PUSH2 0x57B JUMP JUMPDEST SWAP4 POP PUSH2 0x5E4 DUP2 DUP6 PUSH1 0x20 DUP7 ADD PUSH2 0x58C JUMP JUMPDEST PUSH2 0x5ED DUP2 PUSH2 0x2DF JUMP JUMPDEST DUP5 ADD SWAP2 POP POP SWAP3 SWAP2 POP POP JUMP JUMPDEST PUSH1 0x0 PUSH1 0x20 DUP3 ADD SWAP1 POP DUP2 DUP2 SUB PUSH1 0x0 DUP4 ADD MSTORE PUSH2 0x612 DUP2 DUP5 PUSH2 0x5BF JUMP JUMPDEST SWAP1 POP SWAP3 SWAP2 POP POP JUMP JUMPDEST PUSH2 0x623 DUP2 PUSH2 0x43B JUMP JUMPDEST DUP3 MSTORE POP POP JUMP JUMPDEST PUSH1 0x0 PUSH1 0x20 DUP3 ADD SWAP1 POP PUSH2 0x63E PUSH1 0x0 DUP4 ADD DUP5 PUSH2 0x61A JUMP JUMPDEST SWAP3 SWAP2 POP POP JUMP JUMPDEST PUSH1 0x0 DUP2 MLOAD SWAP1 POP SWAP2 SWAP1 POP JUMP JUMPDEST PUSH1 0x0 DUP3 DUP3 MSTORE PUSH1 0x20 DUP3 ADD SWAP1 POP SWAP3 SWAP2 POP POP JUMP JUMPDEST PUSH1 0x0 PUSH2 0x66B DUP3 PUSH2 0x644 JUMP JUMPDEST PUSH2 0x675 DUP2 DUP6 PUSH2 0x64F JUMP JUMPDEST SWAP4 POP PUSH2 0x685 DUP2 DUP6 PUSH1 0x20 DUP7 ADD PUSH2 0x58C JUMP JUMPDEST PUSH2 0x68E DUP2 PUSH2 0x2DF JUMP JUMPDEST DUP5 ADD SWAP2 POP POP SWAP3 SWAP2 POP POP JUMP JUMPDEST PUSH1 0x0 PUSH1 0x60 DUP3 ADD SWAP1 POP PUSH2 0x6AE PUSH1 0x0 DUP4 ADD DUP7 PUSH2 0x546 JUMP JUMPDEST DUP2 DUP2 SUB PUSH1 0x20 DUP4 ADD MSTORE PUSH2 0x6C0 DUP2 DUP6 PUSH2 0x660 JUMP JUMPDEST SWAP1 POP PUSH2 0x6CF PUSH1 0x40 DUP4 ADD DUP5 PUSH2 0x546 JUMP JUMPDEST SWAP5 SWAP4 POP POP POP POP JUMP JUMPDEST PUSH32 0x4E487B7100000000000000000000000000000000000000000000000000000000 PUSH1 0x0 MSTORE PUSH1 0x22 PUSH1 0x4 MSTORE PUSH1 0x24 PUSH1 0x0 REVERT JUMPDEST PUSH1 0x0 PUSH1 0x2 DUP3 DIV SWAP1 POP PUSH1 0x1 DUP3 AND DUP1 PUSH2 0x71E JUMPI PUSH1 0x7F DUP3 AND SWAP2 POP JUMPDEST PUSH1 0x20 DUP3 LT DUP2 EQ ISZERO PUSH2 0x732 JUMPI PUSH2 0x731 PUSH2 0x6D7 JUMP JUMPDEST JUMPDEST POP SWAP2 SWAP1 POP JUMP INVALID LOG2 PUSH5 0x6970667358 0x22 SLT KECCAK256 PUSH15 0xEFFF7A51395A9641C6A7058A6C5B00 BYTE 0xBB PUSH4 0xCFE02822 CALLER JUMPDEST CODECOPY 0xE5 0xEB CALLCODE 0xE6 0x27 ISZERO PUSH5 0x736F6C6343 STOP ADDMOD MULMOD STOP CALLER "
        },
        "methodIdentifiers": {
          "_accessPath()": "5cb34322",
          "_caller()": "a149b2c0",
          "_data()": "68beab3f",
          "_exec()": "955b8ffc",
          "_sender()": "cbd49462",
          "testPhase(bytes32,bytes,address,address,bytes32)": "0d3333cd"
        }
      }
    }
  }
}