{
  "_format": "hh-sol-artifact-1",
  "contractName": "_0xAether",
  "sourceName": "contracts/Libraries/_0xAether.sol",
  "abi": [
    {
      "inputs": [
        {
          "internalType": "bytes",
          "name": "_aBlock",
          "type": "bytes"
        }
      ],
      "name": "decodeBlk",
      "outputs": [
        {
          "components": [
            {
              "internalType": "bytes32",
              "name": "_masterHash",
              "type": "bytes32"
            },
            {
              "internalType": "uint256",
              "name": "_txnCount",
              "type": "uint256"
            },
            {
              "internalType": "bytes20",
              "name": "_aetheringAddress",
              "type": "bytes20"
            }
          ],
          "internalType": "struct IAetherHubV2.AetherBlock",
          "name": "",
          "type": "tuple"
        },
        {
          "internalType": "bytes16[]",
          "name": "",
          "type": "bytes16[]"
        }
      ],
      "stateMutability": "pure",
      "type": "function"
    },
    {
      "inputs": [
        {
          "internalType": "bytes",
          "name": "_aTxn",
          "type": "bytes"
        }
      ],
      "name": "decodeTxn",
      "outputs": [
        {
          "components": [
            {
              "internalType": "address",
              "name": "_from",
              "type": "address"
            },
            {
              "internalType": "address",
              "name": "_to",
              "type": "address"
            },
            {
              "internalType": "bytes4",
              "name": "_select",
              "type": "bytes4"
            },
            {
              "internalType": "bytes",
              "name": "_args",
              "type": "bytes"
            }
          ],
          "internalType": "struct IAetherHubV2.AetherTxn",
          "name": "_aetherTxn",
          "type": "tuple"
        }
      ],
      "stateMutability": "pure",
      "type": "function"
    }
  ],
  "bytecode": "0x610a77610053600b82828239805160001a607314610046577f4e487b7100000000000000000000000000000000000000000000000000000000600052600060045260246000fd5b30600052607381538281f3fe73000000000000000000000000000000000000000030146080604052600436106100405760003560e01c806363d5e0db14610045578063efad2f3714610076575b600080fd5b61005f600480360381019061005a919061050c565b6100a6565b60405161006d9291906106ff565b60405180910390f35b610090600480360381019061008b919061050c565b61010d565b60405161009d919061072f565b60405180910390f35b6100ae6101aa565b606060008060008087878101906100c59190610491565b935093509350935060006040518060600160405280868152602001858152602001846bffffffffffffffffffffffff1916815250905080829650965050505050509250929050565b6101156101dd565b600080600080868681019061012a9190610416565b935093509350935060405180608001604052808573ffffffffffffffffffffffffffffffffffffffff1681526020018473ffffffffffffffffffffffffffffffffffffffff168152602001837bffffffffffffffffffffffffffffffffffffffffffffffffffffffff191681526020018281525094505050505092915050565b6040518060600160405280600080191681526020016000815260200160006bffffffffffffffffffffffff191681525090565b6040518060800160405280600073ffffffffffffffffffffffffffffffffffffffff168152602001600073ffffffffffffffffffffffffffffffffffffffff16815260200160007bffffffffffffffffffffffffffffffffffffffffffffffffffffffff19168152602001606081525090565b600061026361025e84610776565b610751565b9050808382526020820190508285602086028201111561028257600080fd5b60005b858110156102b257816102988882610339565b845260208401935060208301925050600181019050610285565b5050509392505050565b60006102cf6102ca846107a2565b610751565b9050828152602081018484840111156102e757600080fd5b6102f2848285610904565b509392505050565b600081359050610309816109b7565b92915050565b600082601f83011261032057600080fd5b8135610330848260208601610250565b91505092915050565b600081359050610348816109ce565b92915050565b60008135905061035d816109e5565b92915050565b600081359050610372816109fc565b92915050565b60008135905061038781610a13565b92915050565b60008083601f84011261039f57600080fd5b8235905067ffffffffffffffff8111156103b857600080fd5b6020830191508360018202830111156103d057600080fd5b9250929050565b600082601f8301126103e857600080fd5b81356103f88482602086016102bc565b91505092915050565b60008135905061041081610a2a565b92915050565b6000806000806080858703121561042c57600080fd5b600061043a878288016102fa565b945050602061044b878288016102fa565b935050604061045c87828801610378565b925050606085013567ffffffffffffffff81111561047957600080fd5b610485878288016103d7565b91505092959194509250565b600080600080608085870312156104a757600080fd5b60006104b587828801610363565b94505060206104c687828801610401565b93505060406104d78782880161034e565b925050606085013567ffffffffffffffff8111156104f457600080fd5b6105008782880161030f565b91505092959194509250565b6000806020838503121561051f57600080fd5b600083013567ffffffffffffffff81111561053957600080fd5b6105458582860161038d565b92509250509250929050565b600061055d83836105d6565b60208301905092915050565b61057281610828565b82525050565b6000610583826107e3565b61058d8185610806565b9350610598836107d3565b8060005b838110156105c95781516105b08882610551565b97506105bb836107f9565b92505060018101905061059c565b5085935050505092915050565b6105df8161084c565b82525050565b6105ee81610878565b82525050565b6105fd816108a4565b82525050565b61060c816108ae565b82525050565b600061061d826107ee565b6106278185610817565b9350610637818560208601610913565b610640816109a6565b840191505092915050565b60608201600082015161066160008501826105f4565b50602082015161067460208501826106f0565b50604082015161068760408501826105e5565b50505050565b60006080830160008301516106a56000860182610569565b5060208301516106b86020860182610569565b5060408301516106cb6040860182610603565b50606083015184820360608601526106e38282610612565b9150508091505092915050565b6106f9816108fa565b82525050565b6000608082019050610714600083018561064b565b81810360608301526107268184610578565b90509392505050565b60006020820190508181036000830152610749818461068d565b905092915050565b600061075b61076c565b90506107678282610946565b919050565b6000604051905090565b600067ffffffffffffffff82111561079157610790610977565b5b602082029050602081019050919050565b600067ffffffffffffffff8211156107bd576107bc610977565b5b6107c6826109a6565b9050602081019050919050565b6000819050602082019050919050565b600081519050919050565b600081519050919050565b6000602082019050919050565b600082825260208201905092915050565b600082825260208201905092915050565b6000610833826108da565b9050919050565b6000610845826108da565b9050919050565b60007fffffffffffffffffffffffffffffffff0000000000000000000000000000000082169050919050565b60007fffffffffffffffffffffffffffffffffffffffff00000000000000000000000082169050919050565b6000819050919050565b60007fffffffff0000000000000000000000000000000000000000000000000000000082169050919050565b600073ffffffffffffffffffffffffffffffffffffffff82169050919050565b6000819050919050565b82818337600083830152505050565b60005b83811015610931578082015181840152602081019050610916565b83811115610940576000848401525b50505050565b61094f826109a6565b810181811067ffffffffffffffff8211171561096e5761096d610977565b5b80604052505050565b7f4e487b7100000000000000000000000000000000000000000000000000000000600052604160045260246000fd5b6000601f19601f8301169050919050565b6109c08161083a565b81146109cb57600080fd5b50565b6109d78161084c565b81146109e257600080fd5b50565b6109ee81610878565b81146109f957600080fd5b50565b610a05816108a4565b8114610a1057600080fd5b50565b610a1c816108ae565b8114610a2757600080fd5b50565b610a33816108fa565b8114610a3e57600080fd5b5056fea26469706673582212207f66e2f606394d0caa21c9e887e5adf9efd0d573d293ef43df657287c6257b4464736f6c63430008040033",
  "linkReferences": {},
  "deployedLinkReferences": {}
}