{
  "_format": "hh-sol-artifact-1",
  "contractName": "Phase",
  "sourceName": "contracts/phase.sol",
  "abi": [
    {
      "anonymous": false,
      "inputs": [
        {
          "indexed": false,
          "internalType": "bytes32",
          "name": "AccessPath",
          "type": "bytes32"
        },
        {
          "indexed": false,
          "internalType": "bytes",
          "name": "data",
          "type": "bytes"
        },
        {
          "indexed": true,
          "internalType": "address",
          "name": "Sender",
          "type": "address"
        },
        {
          "indexed": true,
          "internalType": "address",
          "name": "Caller",
          "type": "address"
        },
        {
          "indexed": false,
          "internalType": "bytes32",
          "name": "Exec",
          "type": "bytes32"
        }
      ],
      "name": "Phase",
      "type": "event"
    },
    {
      "inputs": [],
      "name": "_accessPath",
      "outputs": [
        {
          "internalType": "bytes32",
          "name": "",
          "type": "bytes32"
        }
      ],
      "stateMutability": "view",
      "type": "function"
    },
    {
      "inputs": [],
      "name": "_caller",
      "outputs": [
        {
          "internalType": "address",
          "name": "",
          "type": "address"
        }
      ],
      "stateMutability": "view",
      "type": "function"
    },
    {
      "inputs": [],
      "name": "_data",
      "outputs": [
        {
          "internalType": "bytes32",
          "name": "",
          "type": "bytes32"
        }
      ],
      "stateMutability": "view",
      "type": "function"
    },
    {
      "inputs": [],
      "name": "_exec",
      "outputs": [
        {
          "internalType": "string",
          "name": "",
          "type": "string"
        }
      ],
      "stateMutability": "view",
      "type": "function"
    },
    {
      "inputs": [],
      "name": "_sender",
      "outputs": [
        {
          "internalType": "address",
          "name": "",
          "type": "address"
        }
      ],
      "stateMutability": "view",
      "type": "function"
    },
    {
      "inputs": [
        {
          "internalType": "bytes32",
          "name": "aP",
          "type": "bytes32"
        },
        {
          "internalType": "bytes",
          "name": "da",
          "type": "bytes"
        },
        {
          "internalType": "address",
          "name": "se",
          "type": "address"
        },
        {
          "internalType": "address",
          "name": "ca",
          "type": "address"
        },
        {
          "internalType": "bytes32",
          "name": "exec",
          "type": "bytes32"
        }
      ],
      "name": "testPhase",
      "outputs": [
        {
          "internalType": "bool",
          "name": "",
          "type": "bool"
        }
      ],
      "stateMutability": "nonpayable",
      "type": "function"
    }
  ],
  "bytecode": "0x608060405234801561001057600080fd5b5061076e806100206000396000f3fe608060405234801561001057600080fd5b50600436106100625760003560e01c80630d3333cd146100675780635cb343221461009757806368beab3f146100b5578063955b8ffc146100d3578063a149b2c0146100f1578063cbd494621461010f575b600080fd5b610081600480360381019061007c9190610479565b61012d565b60405161008e919061052b565b60405180910390f35b61009f6101a5565b6040516100ac9190610555565b60405180910390f35b6100bd6101ab565b6040516100ca9190610555565b60405180910390f35b6100db6101b1565b6040516100e891906105f8565b60405180910390f35b6100f961023f565b6040516101069190610629565b60405180910390f35b610117610265565b6040516101249190610629565b60405180910390f35b60008273ffffffffffffffffffffffffffffffffffffffff168473ffffffffffffffffffffffffffffffffffffffff167fa4b9c2c41c3e983dd8e168695f169f9871ef6c7e129297c9964ffebd1d6a2c3a88888660405161019093929190610699565b60405180910390a36001905095945050505050565b60005481565b60015481565b600480546101be90610706565b80601f01602080910402602001604051908101604052809291908181526020018280546101ea90610706565b80156102375780601f1061020c57610100808354040283529160200191610237565b820191906000526020600020905b81548152906001019060200180831161021a57829003601f168201915b505050505081565b600360009054906101000a900473ffffffffffffffffffffffffffffffffffffffff1681565b600260009054906101000a900473ffffffffffffffffffffffffffffffffffffffff1681565b6000604051905090565b600080fd5b600080fd5b6000819050919050565b6102b28161029f565b81146102bd57600080fd5b50565b6000813590506102cf816102a9565b92915050565b600080fd5b600080fd5b6000601f19601f8301169050919050565b7f4e487b7100000000000000000000000000000000000000000000000000000000600052604160045260246000fd5b610328826102df565b810181811067ffffffffffffffff82111715610347576103466102f0565b5b80604052505050565b600061035a61028b565b9050610366828261031f565b919050565b600067ffffffffffffffff821115610386576103856102f0565b5b61038f826102df565b9050602081019050919050565b82818337600083830152505050565b60006103be6103b98461036b565b610350565b9050828152602081018484840111156103da576103d96102da565b5b6103e584828561039c565b509392505050565b600082601f830112610402576104016102d5565b5b81356104128482602086016103ab565b91505092915050565b600073ffffffffffffffffffffffffffffffffffffffff82169050919050565b60006104468261041b565b9050919050565b6104568161043b565b811461046157600080fd5b50565b6000813590506104738161044d565b92915050565b600080600080600060a0868803121561049557610494610295565b5b60006104a3888289016102c0565b955050602086013567ffffffffffffffff8111156104c4576104c361029a565b5b6104d0888289016103ed565b94505060406104e188828901610464565b93505060606104f288828901610464565b9250506080610503888289016102c0565b9150509295509295909350565b60008115159050919050565b61052581610510565b82525050565b6000602082019050610540600083018461051c565b92915050565b61054f8161029f565b82525050565b600060208201905061056a6000830184610546565b92915050565b600081519050919050565b600082825260208201905092915050565b60005b838110156105aa57808201518184015260208101905061058f565b838111156105b9576000848401525b50505050565b60006105ca82610570565b6105d4818561057b565b93506105e481856020860161058c565b6105ed816102df565b840191505092915050565b6000602082019050818103600083015261061281846105bf565b905092915050565b6106238161043b565b82525050565b600060208201905061063e600083018461061a565b92915050565b600081519050919050565b600082825260208201905092915050565b600061066b82610644565b610675818561064f565b935061068581856020860161058c565b61068e816102df565b840191505092915050565b60006060820190506106ae6000830186610546565b81810360208301526106c08185610660565b90506106cf6040830184610546565b949350505050565b7f4e487b7100000000000000000000000000000000000000000000000000000000600052602260045260246000fd5b6000600282049050600182168061071e57607f821691505b60208210811415610732576107316106d7565b5b5091905056fea26469706673582212206eefff7a51395a9641c6a7058a6c5b001abb63cfe02822335b39e5ebf2e6271564736f6c63430008090033",
  "linkReferences": {},
  "deployedLinkReferences": {}
}