{
  "_format": "hh-sol-artifact-1",
  "contractName": "AetherProxy",
  "sourceName": "contracts/Proxy/AetherProxy.sol",
  "abi": [
    {
      "inputs": [],
      "stateMutability": "nonpayable",
      "type": "constructor"
    },
    {
      "stateMutability": "payable",
      "type": "fallback"
    },
    {
      "inputs": [],
      "name": "aetherBonds",
      "outputs": [
        {
          "internalType": "address",
          "name": "",
          "type": "address"
        }
      ],
      "stateMutability": "view",
      "type": "function"
    },
    {
      "inputs": [],
      "name": "aetherDAO",
      "outputs": [
        {
          "internalType": "address",
          "name": "",
          "type": "address"
        }
      ],
      "stateMutability": "view",
      "type": "function"
    },
    {
      "inputs": [],
      "name": "aetherFactory",
      "outputs": [
        {
          "internalType": "address",
          "name": "",
          "type": "address"
        }
      ],
      "stateMutability": "view",
      "type": "function"
    },
    {
      "inputs": [],
      "name": "aetherHUB",
      "outputs": [
        {
          "internalType": "address",
          "name": "",
          "type": "address"
        }
      ],
      "stateMutability": "view",
      "type": "function"
    },
    {
      "inputs": [],
      "name": "aetherID",
      "outputs": [
        {
          "internalType": "uint256",
          "name": "",
          "type": "uint256"
        }
      ],
      "stateMutability": "view",
      "type": "function"
    },
    {
      "inputs": [],
      "name": "aetherKeeper",
      "outputs": [
        {
          "internalType": "address",
          "name": "",
          "type": "address"
        }
      ],
      "stateMutability": "view",
      "type": "function"
    },
    {
      "inputs": [],
      "name": "aetherRouter",
      "outputs": [
        {
          "internalType": "address",
          "name": "",
          "type": "address"
        }
      ],
      "stateMutability": "view",
      "type": "function"
    },
    {
      "inputs": [],
      "name": "aetherToken",
      "outputs": [
        {
          "internalType": "address",
          "name": "",
          "type": "address"
        }
      ],
      "stateMutability": "view",
      "type": "function"
    },
    {
      "inputs": [
        {
          "internalType": "uint256",
          "name": "contractId",
          "type": "uint256"
        }
      ],
      "name": "getAetherAddress",
      "outputs": [
        {
          "internalType": "address",
          "name": "contractAddress",
          "type": "address"
        }
      ],
      "stateMutability": "view",
      "type": "function"
    },
    {
      "inputs": [],
      "name": "implementation",
      "outputs": [
        {
          "internalType": "address",
          "name": "",
          "type": "address"
        }
      ],
      "stateMutability": "view",
      "type": "function"
    },
    {
      "inputs": [
        {
          "internalType": "uint256",
          "name": "_acid_",
          "type": "uint256"
        },
        {
          "internalType": "address",
          "name": "_router_",
          "type": "address"
        },
        {
          "internalType": "address",
          "name": "_proxy_",
          "type": "address"
        },
        {
          "internalType": "bool",
          "name": "_delegate_",
          "type": "bool"
        }
      ],
      "name": "initialize",
      "outputs": [
        {
          "internalType": "bool",
          "name": "",
          "type": "bool"
        }
      ],
      "stateMutability": "nonpayable",
      "type": "function"
    },
    {
      "inputs": [
        {
          "internalType": "uint256",
          "name": "_acid_",
          "type": "uint256"
        },
        {
          "internalType": "address",
          "name": "_router_",
          "type": "address"
        },
        {
          "internalType": "bytes",
          "name": "_contract_",
          "type": "bytes"
        },
        {
          "internalType": "bool",
          "name": "_delegate_",
          "type": "bool"
        }
      ],
      "name": "initialize",
      "outputs": [
        {
          "internalType": "bool",
          "name": "",
          "type": "bool"
        }
      ],
      "stateMutability": "nonpayable",
      "type": "function"
    },
    {
      "inputs": [],
      "name": "proxyType",
      "outputs": [
        {
          "internalType": "uint256",
          "name": "",
          "type": "uint256"
        }
      ],
      "stateMutability": "pure",
      "type": "function"
    },
    {
      "stateMutability": "payable",
      "type": "receive"
    }
  ],
  "bytecode": "0x60806040523480156200001157600080fd5b5060017f360894a13ba1a3210667c828492db98dca3e2076cc3735a920a3ca505d382bbd60001c6200004491906200012b565b60001b7f360894a13ba1a3210667c828492db98dca3e2076cc3735a920a3ca505d382bbc60001b14620000a0577f4e487b7100000000000000000000000000000000000000000000000000000000600052600160045260246000fd5b33620000da7fb53127684a568b3173ae13b9f8a6016e243e63b6e8ee1178d6a717850b5d610360001b6200012160201b62000d4b1760201c565b60000160006101000a81548173ffffffffffffffffffffffffffffffffffffffff021916908373ffffffffffffffffffffffffffffffffffffffff1602179055506200019f565b6000819050919050565b6000620001388262000166565b9150620001458362000166565b9250828210156200015b576200015a62000170565b5b828203905092915050565b6000819050919050565b7f4e487b7100000000000000000000000000000000000000000000000000000000600052601160045260246000fd5b61197680620001af6000396000f3fe6080604052600436106100c65760003560e01c80635c60da1b1161007f578063a74a368511610059578063a74a3685146102c3578063dc60135214610300578063ec2382381461032b578063eccda8df1461035657610112565b80635c60da1b146102305780635fd1cf261461025b578063a0dbcfa61461028657610112565b8063081dd5ff1461011c578063177a6ce51461014757806329c44a9d146101725780634555d5c9146101af57806346f733f8146101da57806350ef7d201461020557610112565b36610112576100d3610381565b73ffffffffffffffffffffffffffffffffffffffff166108fc349081150290604051600060405180830381858888f1935050505061011057600080fd5b005b61011a6103d8565b005b34801561012857600080fd5b5061013161043b565b60405161013e9190611554565b60405180910390f35b34801561015357600080fd5b5061015c6104f3565b6040516101699190611554565b60405180910390f35b34801561017e57600080fd5b50610199600480360381019061019491906112f5565b6105ab565b6040516101a6919061156f565b60405180910390f35b3480156101bb57600080fd5b506101c461076d565b6040516101d1919061164a565b60405180910390f35b3480156101e657600080fd5b506101ef610776565b6040516101fc9190611554565b60405180910390f35b34801561021157600080fd5b5061021a61082e565b604051610227919061164a565b60405180910390f35b34801561023c57600080fd5b50610245610837565b6040516102529190611554565b60405180910390f35b34801561026757600080fd5b50610270610846565b60405161027d9190611554565b60405180910390f35b34801561029257600080fd5b506102ad60048036038101906102a89190611358565b6108fd565b6040516102ba919061156f565b60405180910390f35b3480156102cf57600080fd5b506102ea60048036038101906102e591906112cc565b610aa2565b6040516102f79190611554565b60405180910390f35b34801561030c57600080fd5b50610315610b23565b6040516103229190611554565b60405180910390f35b34801561033757600080fd5b50610340610bdb565b60405161034d9190611554565b60405180910390f35b34801561036257600080fd5b5061036b610c93565b6040516103789190611554565b60405180910390f35b60006103af7f360894a13ba1a3210667c828492db98dca3e2076cc3735a920a3ca505d382bbc60001b610d4b565b60000160009054906101000a900473ffffffffffffffffffffffffffffffffffffffff16905090565b60006103e2610381565b905060006103ee610d55565b15905060405136600082376000826000811461041557600080368588600019f49150610423565b60008036853489600019f191505b503d806000843e8160008114610437578184f35b8184fd5b60003073ffffffffffffffffffffffffffffffffffffffff163373ffffffffffffffffffffffffffffffffffffffff1614156104ac576040517f08c379a00000000000000000000000000000000000000000000000000000000081526004016104a3906115ca565b60405180910390fd5b6104ee600160068111156104e9577f4e487b7100000000000000000000000000000000000000000000000000000000600052602160045260246000fd5b610d99565b905090565b60003073ffffffffffffffffffffffffffffffffffffffff163373ffffffffffffffffffffffffffffffffffffffff161415610564576040517f08c379a000000000000000000000000000000000000000000000000000000000815260040161055b906115ca565b60405180910390fd5b6105a6600460068111156105a1577f4e487b7100000000000000000000000000000000000000000000000000000000600052602160045260246000fd5b610d99565b905090565b60006105b5610eee565b73ffffffffffffffffffffffffffffffffffffffff163373ffffffffffffffffffffffffffffffffffffffff16146105ec57600080fd5b600073ffffffffffffffffffffffffffffffffffffffff1661060c610381565b73ffffffffffffffffffffffffffffffffffffffff1614801561065c5750600073ffffffffffffffffffffffffffffffffffffffff168473ffffffffffffffffffffffffffffffffffffffff1614155b80156106955750600073ffffffffffffffffffffffffffffffffffffffff168373ffffffffffffffffffffffffffffffffffffffff1614155b1561076057826106c77f360894a13ba1a3210667c828492db98dca3e2076cc3735a920a3ca505d382bbc60001b610d4b565b60000160006101000a81548173ffffffffffffffffffffffffffffffffffffffff021916908373ffffffffffffffffffffffffffffffffffffffff160217905550816107357f3b8036aab80a296c0614759d7eb58cce8015b9c568a8cba1d3aab585b6f07ec060001b610f45565b60000160006101000a81548160ff0219169083151502179055506107598585610f4f565b9050610765565b600090505b949350505050565b60006001905090565b60003073ffffffffffffffffffffffffffffffffffffffff163373ffffffffffffffffffffffffffffffffffffffff1614156107e7576040517f08c379a00000000000000000000000000000000000000000000000000000000081526004016107de906115ca565b60405180910390fd5b61082960056006811115610824577f4e487b7100000000000000000000000000000000000000000000000000000000600052602160045260246000fd5b610d99565b905090565b60008054905090565b6000610841610381565b905090565b60003073ffffffffffffffffffffffffffffffffffffffff163373ffffffffffffffffffffffffffffffffffffffff1614156108b7576040517f08c379a00000000000000000000000000000000000000000000000000000000081526004016108ae906115ca565b60405180910390fd5b6108f86006808111156108f3577f4e487b7100000000000000000000000000000000000000000000000000000000600052602160045260246000fd5b610d99565b905090565b6000610907610eee565b73ffffffffffffffffffffffffffffffffffffffff163373ffffffffffffffffffffffffffffffffffffffff161461093e57600080fd5b600073ffffffffffffffffffffffffffffffffffffffff1661095e610381565b73ffffffffffffffffffffffffffffffffffffffff161480156109ae5750600073ffffffffffffffffffffffffffffffffffffffff168473ffffffffffffffffffffffffffffffffffffffff1614155b80156109bb575060008351115b15610a955760006109cc8685610f73565b9050806109fb7f360894a13ba1a3210667c828492db98dca3e2076cc3735a920a3ca505d382bbc60001b610d4b565b60000160006101000a81548173ffffffffffffffffffffffffffffffffffffffff021916908373ffffffffffffffffffffffffffffffffffffffff16021790555082610a697f3b8036aab80a296c0614759d7eb58cce8015b9c568a8cba1d3aab585b6f07ec060001b610f45565b60000160006101000a81548160ff021916908315150217905550610a8d8686610f4f565b915050610a9a565b600090505b949350505050565b60003073ffffffffffffffffffffffffffffffffffffffff163373ffffffffffffffffffffffffffffffffffffffff161415610b13576040517f08c379a0000000000000000000000000000000000000000000000000000000008152600401610b0a906115ca565b60405180910390fd5b610b1c82610d99565b9050919050565b60003073ffffffffffffffffffffffffffffffffffffffff163373ffffffffffffffffffffffffffffffffffffffff161415610b94576040517f08c379a0000000000000000000000000000000000000000000000000000000008152600401610b8b906115ca565b60405180910390fd5b610bd660026006811115610bd1577f4e487b7100000000000000000000000000000000000000000000000000000000600052602160045260246000fd5b610d99565b905090565b60003073ffffffffffffffffffffffffffffffffffffffff163373ffffffffffffffffffffffffffffffffffffffff161415610c4c576040517f08c379a0000000000000000000000000000000000000000000000000000000008152600401610c43906115ca565b60405180910390fd5b610c8e60006006811115610c89577f4e487b7100000000000000000000000000000000000000000000000000000000600052602160045260246000fd5b610d99565b905090565b60003073ffffffffffffffffffffffffffffffffffffffff163373ffffffffffffffffffffffffffffffffffffffff161415610d04576040517f08c379a0000000000000000000000000000000000000000000000000000000008152600401610cfb906115ca565b60405180910390fd5b610d4660036006811115610d41577f4e487b7100000000000000000000000000000000000000000000000000000000600052602160045260246000fd5b610d99565b905090565b6000819050919050565b6000610d837f3b8036aab80a296c0614759d7eb58cce8015b9c568a8cba1d3aab585b6f07ec060001b610f45565b60000160009054906101000a900460ff16905090565b6000600160009054906101000a900473ffffffffffffffffffffffffffffffffffffffff1673ffffffffffffffffffffffffffffffffffffffff1663a74a3685836040518263ffffffff1660e01b8152600401610df6919061164a565b60206040518083038186803b158015610e0e57600080fd5b505afa925050508015610e3f57506040513d601f19601f82011682018060405250810190610e3c91906112a3565b60015b610ee4573d8060008114610e6f576040519150601f19603f3d011682016040523d82523d6000602084013e610e74565b606091505b506000831415610ea957600160009054906101000a900473ffffffffffffffffffffffffffffffffffffffff16915050610ee9565b6040517f08c379a0000000000000000000000000000000000000000000000000000000008152600401610edb9061158a565b60405180910390fd5b809150505b919050565b6000610f1c7fb53127684a568b3173ae13b9f8a6016e243e63b6e8ee1178d6a717850b5d610360001b610d4b565b60000160009054906101000a900473ffffffffffffffffffffffffffffffffffffffff16905090565b6000819050919050565b6000610f5a8361106f565b8015610f6b5750610f6a826110d2565b5b905092915050565b6000803061a31460f01b85604051602001610f9093929190611517565b6040516020818303038152906040528051906020012090506000835111610fec576040517f08c379a0000000000000000000000000000000000000000000000000000000008152600401610fe3906115aa565b60405180910390fd5b808351602085016000f59150600073ffffffffffffffffffffffffffffffffffffffff168273ffffffffffffffffffffffffffffffffffffffff161415611068576040517f08c379a000000000000000000000000000000000000000000000000000000000815260040161105f906115ea565b60405180910390fd5b5092915050565b600080600054148015611083575060008214155b6110c2576040517f08c379a00000000000000000000000000000000000000000000000000000000081526004016110b99061162a565b60405180910390fd5b8160008190555060019050919050565b60008073ffffffffffffffffffffffffffffffffffffffff168273ffffffffffffffffffffffffffffffffffffffff161415801561115e5750600073ffffffffffffffffffffffffffffffffffffffff16600160009054906101000a900473ffffffffffffffffffffffffffffffffffffffff1673ffffffffffffffffffffffffffffffffffffffff16145b61119d576040517f08c379a00000000000000000000000000000000000000000000000000000000081526004016111949061160a565b60405180910390fd5b81600160006101000a81548173ffffffffffffffffffffffffffffffffffffffff021916908373ffffffffffffffffffffffffffffffffffffffff16021790555060019050919050565b60006111fa6111f58461168a565b611665565b90508281526020810184848401111561121257600080fd5b61121d848285611740565b509392505050565b600081359050611234816118fb565b92915050565b600081519050611249816118fb565b92915050565b60008135905061125e81611912565b92915050565b600082601f83011261127557600080fd5b81356112858482602086016111e7565b91505092915050565b60008135905061129d81611929565b92915050565b6000602082840312156112b557600080fd5b60006112c38482850161123a565b91505092915050565b6000602082840312156112de57600080fd5b60006112ec8482850161128e565b91505092915050565b6000806000806080858703121561130b57600080fd5b60006113198782880161128e565b945050602061132a87828801611225565b935050604061133b87828801611225565b925050606061134c8782880161124f565b91505092959194509250565b6000806000806080858703121561136e57600080fd5b600061137c8782880161128e565b945050602061138d87828801611225565b935050604085013567ffffffffffffffff8111156113aa57600080fd5b6113b687828801611264565b92505060606113c78782880161124f565b91505092959194509250565b6113dc816116cc565b82525050565b6113f36113ee826116cc565b611780565b82525050565b611402816116de565b82525050565b611419611414826116ea565b611792565b82525050565b600061142c601d836116bb565b915061143782611805565b602082019050919050565b600061144f6020836116bb565b915061145a8261182e565b602082019050919050565b6000611472600e836116bb565b915061147d82611857565b602082019050919050565b60006114956011836116bb565b91506114a082611880565b602082019050919050565b60006114b86012836116bb565b91506114c3826118a9565b602082019050919050565b60006114db600e836116bb565b91506114e6826118d2565b602082019050919050565b6114fa81611736565b82525050565b61151161150c82611736565b6117ae565b82525050565b600061152382866113e2565b6014820191506115338285611408565b6002820191506115438284611500565b602082019150819050949350505050565b600060208201905061156960008301846113d3565b92915050565b600060208201905061158460008301846113f9565b92915050565b600060208201905081810360008301526115a38161141f565b9050919050565b600060208201905081810360008301526115c381611442565b9050919050565b600060208201905081810360008301526115e381611465565b9050919050565b6000602082019050818103600083015261160381611488565b9050919050565b60006020820190508181036000830152611623816114ab565b9050919050565b60006020820190508181036000830152611643816114ce565b9050919050565b600060208201905061165f60008301846114f1565b92915050565b600061166f611680565b905061167b828261174f565b919050565b6000604051905090565b600067ffffffffffffffff8211156116a5576116a46117b8565b5b6116ae826117e7565b9050602081019050919050565b600082825260208201905092915050565b60006116d782611716565b9050919050565b60008115159050919050565b60007fffff00000000000000000000000000000000000000000000000000000000000082169050919050565b600073ffffffffffffffffffffffffffffffffffffffff82169050919050565b6000819050919050565b82818337600083830152505050565b611758826117e7565b810181811067ffffffffffffffff82111715611777576117766117b8565b5b80604052505050565b600061178b8261179c565b9050919050565b6000819050919050565b60006117a7826117f8565b9050919050565b6000819050919050565b7f4e487b7100000000000000000000000000000000000000000000000000000000600052604160045260246000fd5b6000601f19601f8301169050919050565b60008160601b9050919050565b7f41657468657220436f6e7472616374204944204e6f7420526f75746564000000600082015250565b7f4372656174696f6e436f6465206d696e206c656e206973206e6f74207a65726f600082015250565b7f726563757373696f6e2076696577000000000000000000000000000000000000600082015250565b7f6465706c6f796d656e74206661696c6564000000000000000000000000000000600082015250565b7f526f7574657220616c7265616479207365740000000000000000000000000000600082015250565b7f496420616c726561647920736574000000000000000000000000000000000000600082015250565b611904816116cc565b811461190f57600080fd5b50565b61191b816116de565b811461192657600080fd5b50565b61193281611736565b811461193d57600080fd5b5056fea2646970667358221220c98301a657f1ae539143694460253a8e4dbea22628460da80da6a7ab6cfcc58264736f6c63430008040033",
  "linkReferences": {},
  "deployedLinkReferences": {}
}